:100000006F70D045130000001300000013000000C3
:100010001300000013000000130000001300000094
:100020001300000013000000130000001300000084
:08003000130000007300100032
:100038000000000000000000E4660000E866000020
:1000480000000000EC660000000000000000000056
:10005800EA660000F87B00000000000000000000D5
:100068009E65000000000000FC7B0000000000000E
:10007800FE7B0000007C0000027C0000047C000085
:10008800067C0000087C0000C8650000DE650000F2
:10009800F46500000A66000020660000147C000079
:1000A800167C0000187C00001A7C00001C7C0000F4
:1000B8001E7C0000207C0000227C0000247C0000C4
:1000C800267C0000287C00002A7C000036660000A0
:1000D8002E7C0000DA640000327C0000EE64000030
:1000E80002650000286500004E6500003C7C0000A9
:1000F8003E7C0000407C0000427C0000447C000004
:10010800467C0000BA7900004A7C0000287A00008A
:1001180076660000507C0000527C0000547C000091
:10012800567C0000587C00005A7C0000000000004B
:080138000000000000000000BF
:1001400010219421050585056313D60075FA330542
:10015000D64082802A8309CA838305002300730066
:100160007D16050385056DFA82802A8311C623005A
:10017000B3007D16050365FE8280397101436EC6AA
:1001800019A0397141536AC866CA62CC5ECE19A003
:10019000397101535AD056D252D44ED64AD826DAA3
:1001A00022DC06DE33016140828241114AC026C250
:1001B00022C406C68282B24D4101024D924C224CAD
:1001C000B24B4101024B924A224AB24941010249D3
:1001D00092442244B2404101828001458280828063
:1001E0007D5582800347C503B7370020938787E496
:1001F0000A07BA979C4398431E2393F7070289C7BF
:100200004A231375F50F82807D558280EFF2FFF946
:100210001C414111CC87DC439305F10005468297D0
:10022000410175B737370140130707C0AA87630B31
:10023000E5023707004005456387E70213070740DB
:1002400009456382E70237170040930607800D4592
:10025000638BD700130707C011456386E70041652C
:100260007D15828001458280EFF23FF403A701985B
:1002700083A741982A8458C51C402285DC4B82976D
:10028000635D050083A601985C4403A7419833870A
:10029000F6401C44E362F7FE7D5515BFEFF25FEFB9
:1002A0002A89AE89B284014463149400228519BF5F
:1002B0004A855D3FE34C05FEB387890088A30504AA
:1002C000E5B7EFF2FFEC014495C2AA892E8A328984
:1002D000B68401444E85493F634A050063084501E1
:1002E000B307890088A30504E39684FE2285D9BD5F
:1002F000EFF21FEAB7F700E003A9019883A941983C
:100300009047D447411132C436C603AA019883AA44
:1003100041989047D44732C2984BDC4B13061700E4
:10032000B336E600BE96631449016389590312454A
:100330001304803E3305A640B337A600B387F640CA
:10034000B307F402B335A4023305A402BE95330407
:100350004403EF80300122954101ADB5A2473248F8
:100360001304803E3305F6403337A600B3870641B9
:10037000998FB307F402B335A4023305A402BE95E6
:1003800033042403EF80007EF9B781470547631AE1
:10039000E5002D678E071307C743BA97DC4399C75B
:1003A00082878507058193F7F70FD5B782803727B6
:1003B00002401C4B93E707081CCB8280B727024002
:1003C000C847058911E5C8474189133515000D0552
:1003D0008280EFF29FDD2A848544CD376318950033
:1003E00019E0154529A0D93F7D14CDBF7DD8C5B3EF
:1003F000EFF2BFDBAA8437050B00E13F914763139F
:10040000F502372402401C4837050B0093E727000C
:100410001CC844C81C4893E707041CC85D3F1C481F
:10042000F59B1CC86DB3EFF25FD8AA8415652E89C1
:100430004D379147631FF500372402401C4815656E
:1004400093E717001CC82390240161371C48F99BCF
:100450001CC8B5BB9C4513F7070113F8F70001C78B
:10046000D8413368E80037270240145B3707000F94
:10047000758F45EB8546238ED1963717014063155E
:10048000E5009A2135839AA18E2113F7F50F31C328
:1004900018418146054E930E80023D4F930F800414
:1004A00021433316DE00B3F8C500631016036392D0
:1004B000D70950C913962600B318CF0093C8F8FF88
:1004C00033F7E8003316C800518F8506E39B66FCBE
:1004D00018C11307F00F6375B70454410146054E68
:1004E000930E8002130F80042143130786003317F5
:1004F000EE00B3F8E500631117036390D70558C900
:10050000931826003D47331717011347F7FFF98E5D
:10051000B3181801B3E6D8000506E31866FC54C109
:10052000828037170140E311E5F603C7C19729DF41
:1005300089BFE391F7F910C9B5BFE393E7FD18C987
:10054000C1B73707300013560501931605013378FC
:10055000E5003D8AC182B707014063530502DC4FC5
:10056000631CE80641060D473317C7001347F7FF22
:10057000F98FBDCD558112053395A600C98F8DA881
:10058000D843B727024083A80703B707000FB3F784
:10059000170189EB93571700F9784E07B3F7170146
:1005A0004D835D8FB70730006318F804370600F1FC
:1005B0007D1637080140B377C70003274800718FC5
:1005C0002322E80091C5558112053395A600C98FF5
:1005D000370701405CC3828037071000698F41F7FD
:1005E000558112053395A6001347F5FFF98FD9F50C
:1005F000370701405CCF8280B7071000E98F99CBA5
:100600008D47B397C70093C7F7FFF98F3707000FE0
:10061000D98F4DBF55811205B396A60093C7F6FF3B
:10062000F98F3707000FD98FC5D5D58F55B71E2144
:1006300037370140130707C0C207C1836304E502CF
:10064000370700406300E50213070740630CE5002D
:1006500037170040930607806306D500130707C0CD
:100660006316E500BA2193F7F7F8D98FFA2193F7CB
:10067000F7CFC207C183D98F1EA1DE215EB59E21AF
:100680001EB5B7370140938707C06314F5009C255A
:100690001EB985475EA982801E294A25ED8F420535
:1006A000418189C76D8D3335A000828001458280EC
:1006B0001629F577FD17FD8EFE21DA25D58F1EA9A7
:1006C0005625FD779387379FFD8EDE21D58F9625A2
:1006D000D58FB625D58F5EA55E29A146C207C183F9
:1006E00093F7F7CFD98F5EA9371702405C43B18BE0
:1006F0006398D70E5C435843C166C983BD8B758F21
:100700008907C5466393D700C94701EF37470240C1
:1007100003270780418B09CF37177A00130707207B
:1007200021A8371702405843B7060200758F6DD7CE
:1007300037173D0013070790B387E70237160240CB
:100740005842B70600209386060511833D8B3697E5
:10075000182333D7E7005C42A1839D8BB69703C86B
:1007600007005C421378F80FAD839D8BBE969C22E8
:100770005442370600201306460CB9828D8AB29681
:10078000942293F7F70FB746014093860680B3573C
:10079000F7006304D500B357070156256547B387B3
:1007A000E702C206C186984163D106040607930694
:1007B00040065225B3D7E7024206418633D7D70217
:1007C000B3F7D7021207635406028E0793872703F5
:1007D000B3D7D7029D8BD98FC207C1831EA5828054
:1007E000B7177A009387072091BF0A07C9B7920706
:1007F00093872703B3D7D702BD8BF1BFFD577D5732
:100800006315F50001458280B1059C41E38CE7FE4C
:10081000E31CF5FEC84182802D679376F50F130621
:10082000400213078736937705706364D6048A06FF
:10083000369718439146D98F13D747003D8B63E015
:10084000E604AD66938646070A073697144313F706
:10085000F7008547B397E700C207C1833717014008
:10086000A1C16396E60003C7C19711C3B5839CCAB3
:1008700082801376050C1308000C630606018DC9EF
:100880002328000002901306900CE36AD6FEAD66A2
:100890001375F5030A0593868617AA96944241BFFD
:1008A0006396E60003C7C19711C3B583DCCA828093
:1008B000232A0000C1BF03A7019883A74198BA86E5
:1008C00003A7019883A74198158FE36BA7FE828049
:1008D0008280EFF29F8D23A6B1944CC110C554C500
:1008E00023A4C19423A2D19411CA1C42A9653285C4
:1008F0009C4F1306E0029385C55D829703A5419442
:1009000009C91C41A9651306E0029C4F9385C55D8A
:10091000829775B8AA8798438D4748416314F700BA
:100920006F90A0398280184189476315F7004841CC
:100930006F90C043484182801C410547F9176363AB
:10094000F700C9BF2E858280EFF29F842E894C412B
:100950002A844A85B289EF80B04FCE85EF80504F10
:100960004C44EF80805A832AC40148C42A8AD68521
:10097000EF80B0446357A006232654010C404A85FB
:10098000EF80104D4C44EF804058AA84930500003E
:100990004E85EF80B03C05C10C484A85EF80107948
:1009A0000C44EF80F04ACE85EF80B00CAA852685F6
:1009B000EF80A055AA8483294401A6854E85EF7057
:1009C000F06F63430500A689044CCE852685EF8031
:1009D000D03E6343A000CE842328240126856FF0F7
:1009E0006FFEB7040080B3C45401A6855285EF7032
:1009F000F06CE35505F844C451B75C416380B7021D
:100A0000814701481CC9930700004CC1232A0501F6
:100A10001CD55CD57CD53CD9232A05068280505D47
:100A2000344178419307C50B1305C52F930500008A
:100A300090C3D4C398C7CCC78CCB93870709E397DF
:100A4000A7FE82809307C5390147014505469146B7
:100A50008C4391C5B315E6004D8D420541810507D4
:100A60009107E317D7FE82803E2163F2F5041C252F
:100A7000935606011357860085EF93F6F60F13770A
:100A8000F70F1376F60F03483501834805015C45DF
:100A9000639008050D48B3850503AE970C29BE95F4
:100AA00094A11439BE9698A23829BA9790A382804F
:100AB000B386F6021377F70F1376F60F3307F702B4
:100AC000A18693F6F60F3306F6022183218265BFD5
:100AD0008A05AE973E9823000800C9B7EFF2EFEC05
:100AE0002A849304B012EFF0BF805C486374F50071
:100AF00048C8D5BF1D8DE3F8A4FE996773900780A1
:100B00001C206388072C5C444E20144C504C8823D6
:100B1000BE9513871700930700083378F50090CA35
:100B2000630108160100010001000100010001003D
:100B300001000100010001000100010001000100AD
:100B4000010001000100010001000100010001009D
:100B5000010001000100010001000100010001008D
:100B6000010001000100010001000100010001007D
:100B7000010001000100010001000100010001006D
:100B8000010001000100010001000100010001005D
:100B9000010001000100010001000100010001004D
:100BA000010001000100010001000100010001003D
:100BB000010001000100010001000100010001002D
:100BC000010001000100010001000100010001001D
:100BD000010001000100010001000100010001000D
:100BE00001000100010001000100010001000100FD
:100BF00001000100010001000100010001000100ED
:100C000001000100D0CA0100010001000100010043
:100C100001000100010001000100010001000100CC
:100C200001000100010001000100010001000100BC
:100C300001000100010001000100010001000100AC
:100C4000010001000100010001000100010001009C
:100C5000010001000100010001000100010001008C
:100C6000010001000100010001000100010001007C
:100C70000100010001000100858363870714010062
:100C800069BD010001000100010001000100010037
:100C9000010001000100010001000100010001004C
:100CA000010001000100010001000100010001003C
:100CB000010001000100010001000100010001002C
:100CC000010001000100010001000100010001001C
:100CD000010001000100010001000100010001000C
:100CE0000100010001000100010001000100D0CA63
:100CF00001000100010001000100010001000100EC
:100D000001000100010001000100010001000100DB
:100D100001000100010001000100010001000100CB
:100D200001000100010001000100010001000100BB
:100D300001000100010001000100010001000100AB
:100D4000010001000100010001000100010001009B
:100D5000010001000100010001000100010001008B
:100D6000010001000100010001000100010001007B
:100D7000010001000100010001000100010001006B
:100D8000010001000100010001000100010001005B
:100D9000010001000100010001000100010001004B
:100DA000010001000100010001000100010001003B
:100DB000010001000100010001000100010001002B
:100DC0000100010001004DBD6375B7000823050750
:100DD00099B399679387870873900780EFF04FD195
:100DE00048C86FF0CFBE014582808280EFF2EFBB32
:100DF000EFF00FD081456FF08FBD99C12E8565BC96
:100E0000828083C741929DE31567B737004013077F
:100E1000575598C31947D8C31307102798C7356784
:100E20001307C7CC98C385472382F192AD67373744
:100E300000409387A7AA1CC382808D4763E4B70054
:100E40003306C04093F5F50F6354C00293160601B4
:100E5000C18281470947638EE5026364B702371791
:100E60000040130707809DE156BF2310F7048280DE
:100E7000814711C63306C04093170601C1838146DE
:100E8000D1BF0D47E395E5FE3707004056BB1EBFB7
:100E9000828037070040231AD742231CF742828002
:100EA000EFF2AFB093F7F50F0D456361F50293F5DF
:100EB000F50FA20693975500558F4206138581FFC3
:100EC000598E81453E954D366FF06FB09145E39D4B
:100ED000B7FEA206558F420637250020598E814560
:100EE00013058593CDB7C1670563AA8801461385AD
:100EF000F7FF1303130293170601C18363E3B700DF
:100F00008280B387C8009C232147A2073D8D931799
:100F1000050193161500C187C206FD87C18633F807
:100F20006700B3C606017D17139506011377F70F07
:100F3000418171FF0506C1B7EFF28FA5232005009F
:100F400037E400081840FD57AA89630AF7081840DB
:100F5000B7474C57938767346313F7080E248567A8
:100F6000CD171387F5FF4207418363EAE7061305B0
:100F7000C400953F3E246394A7064440014437F9DA
:100F80000008832709007D5A638647050327090067
:100F9000B7474C5793876734631EF7028355890020
:100FA0008567CD171387F5FF4207418363E4E702A6
:100FB0001305C9000D3F8357A900639DA700630770
:100FC000440183274900014463E69700B7F700080E
:100FD000C443054423A0990022856FF0AF9E81444D
:100FE0007D5471BFEFF26F9CB7F700E09047D44794
:100FF000411132C436C6984BDC4B7D1513041700E3
:10100000B334E400BE94B385A4021306803E814647
:10101000B337850233058502BE95EF70B0342247A1
:10102000B24701463AC03EC20148B7F800E003A704
:10103000880083A7C8003AC43EC6024792472243AD
:10104000B24363E5F304639477006361E3042243EE
:10105000B243024E924E3307C341B336E300B38727
:10106000D341958F3297B336C700C2973A8622474D
:101070003388F600B2473AC03EC2E36AB8FA6394D6
:101080000501E366A6FA41016FF06F94024E924E9D
:101090002243B307C441B2433337F400B386D4418B
:1010A000998E33876700B337F7009E96B6975DBF7A
:1010B000EFF20F8E03A7019883A741982A84BA8480
:1010C0009309700C1C402285DC53829719CD83A6AE
:1010D000019803A74198B387964063E8F60063E65A
:1010E000F90013054006FD3DF1BF6FF0AF8D03A57C
:1010F000C19301E503A5819411C15DBF8280EFF228
:10110000CF8A3725002093078593DC4781C71305D5
:101110008593E932138481FF930404085C4499C3E6
:1011200022856D3A13040402E31A94FE6FF02F8AAD
:10113000F9B7828083A7419095C703D7874083D6AC
:10114000074105071377F73F6309D70083D6874028
:10115000BE9688A62394E740828003A7C740050770
:1011600023A6E740828083A7819595C703D7874050
:1011700083D6074105071377F73F6309D70083D666
:101180008740BE9688A62394E740828003A7C74085
:10119000050723A6E7408280035685408356054114
:1011A0009317060113970601C18341833385E740F6
:1011B0006375D60013850740198D420541818280F1
:1011C0000357854083570541630FF7008357054157
:1011D000AA97982783570541850793F7F73F231868
:1011E000F5403A8582807D558280AA878146139595
:1011F000060141816378C50203D8874003D70741C0
:101200006302E80203D707413E9708273387D500DA
:10121000850608A303D7074105071377F73F2398EF
:10122000E740F1B782808280054582805C419DEB7A
:1012300083C7D19113F5F70F8DE7B70702401387E6
:101240004704FC43858B91C75C430545C207C183B6
:1012500089EBB747014003D507801D811345150071
:101260000589828083C7C19113F5F70FFDFBB7573E
:101270000040D5B703A6019803A7019083A6419823
:101280006377E60003A7C18F050723AEE18E03A5B0
:10129000818F23A0C19083A5C18F518D8280D9BF3A
:1012A000EFE2BFEDC13FB7070240D84703A68191E7
:1012B000420741832A84AE846308E60823ACE190A8
:1012C00023A8819023AA919083A781906399870096
:1012D00083A7C19063959700B3679400B5E303AD0E
:1012E000819283AB01833719002003AB418313093B
:1012F0008993856A138A81FD930C0901938DFAFF06
:101300004A870145B30659011E234107EA9763C77F
:101310005707EE873E95E319D7FE2185EF8010250C
:10132000DE85EF80E032DA85EF8080322320AA006C
:101330000909110AE31699FD23A4819023A691902F
:10134000138581FD6FE03FE703A7019183A64191DB
:101350003307E5403336E500B386D5406396C600D3
:1013600093064006E3F2E6F63727014013070740ED
:10137000144737065000D18E14C799B7E3DC07F83D
:10138000814749BFEFE27FE22E84193FAA87130508
:10139000000081CF0D47B3058740939615001D4788
:1013A0006365D7008E05AE9788436FE05FE2EFE29A
:1013B000DFDF2E84F5352A8701450DC38D47818FE8
:1013C000860785079D4663EBF6008A073E9783A54F
:1013D00081830843EF80601E3325A0006FE03FDF6C
:1013E000EFE2BFDC2E846D3D2A871305000019CB88
:1013F0008D47818F860785079D4663E5F6008A073E
:101400003E9708436FE0BFDC5C4114419C43984227
:10141000FD176379F7001C45130617009C4390C223
:10142000BA978CA3828081ED82801C451306170039
:1014300085059C4390C28386F5FFBA9794A3838762
:10144000050081CB5C4114419C439842FD17E36E3B
:10145000F7FC82805C4114419C439842FD176379FC
:10146000F7001C45130617009C4390C2BA978CA343
:1014700082808387050081CB5C4114419C43984264
:10148000FD176363F70082801C451306170085056E
:101490009C4390C28386F5FFBA9794A3D9BF5C4161
:1014A00014419C439842FD176379F7001C451306CD
:1014B00017009C4390C2BA978CA382808387050053
:1014C00081CB5C4114419C439842FD176363F70054
:1014D00082801C451306170085059C4390C28386B5
:1014E000F5FFBA9794A3D9BFEFE23FC9B727002011
:1014F0001387879559714047444B832B4702032C30
:1015000007022AC6014793878795634A872283AAE1
:10151000C70203AB870283AD0701214D37F900E015
:10152000A549032789008327C9001306803E3AC8CE
:101530003ECA03270901832749018146130A170080
:10154000B33CEA00BE9CB3859903B3B74903338526
:101550004903BE95EF7000614247D247AA883ACC52
:101560003ECE01450148032789008327C9003AC8B8
:101570003ECA6247F2474246D24663E1F61E639492
:10158000D700636DE61C424ED24E6246F2463303EC
:10159000CE4033376E003386DE409A87198EAA9785
:1015A00033B7A70042963308C70042473E85D2476B
:1015B0003ACC3ECEE369B8FA63940501E36515FBC6
:1015C000814763C1871C032789008327C90013064D
:1015D000803E3AD03ED20327090183274901814644
:1015E000130A1700B33CEA00BE9CB3859903B3B756
:1015F000490333854903BE95EF70C0560257925791
:10160000AA883AD43ED6014501480327890083279A
:10161000C9003AD03ED22257B2570256925663E2E0
:10162000F6186394D700636EE616025E925E225649
:10163000B2563303CE4033376E003386DE409A878E
:10164000198EAA9733B7A70042963308C7000257EE
:101650003E8592573AD43ED6E369B8FA63940501C1
:10166000E36515FBEE86014763418716814763C436
:1016700087187D1DE3170DEAB7F700E09047D447C0
:10168000254532D836DA984BDC4B1306803E1309D9
:101690001700B339E900BE99B30535038146B33766
:1016A000250333052503BE95EF70C04B4257D25733
:1016B0002A833ADC3EDE0147814737F500E01045DA
:1016C000544532D836DA6256F2564258D25863E35D
:1016D000D81463941601636FC812C25E525F6258D9
:1016E000F258338E0E4133B6CE0133081F41F286D5
:1016F0003308C840BE9633B6F6003A983307060161
:101700004256B687D25632DC36DEE36AB7FA6394C5
:10171000E500E3E667FAB2476395073263D08714C2
:1017200013972700B386E400944281EA629714433A
:10173000139717005E971A2398CA8507C5B79316A3
:1017400027003386D400104201EAE29690429316B5
:101750001700DE96962214CA050745BB6246F2467C
:10176000424EB307CA40D24E3333FA00B386DC4050
:101770003387C701B38666403336F700F696BA87DB
:10178000369631BD13972700B386E400944281EA70
:101790005A9714431397170056971A2398CA850728
:1017A0000DB52256B256025EB307CA40925E33337D
:1017B000FA00B386DC403387C701B3866640333610
:1017C000F700F696BA873696ADBD9E22131627000F
:1017D000629610428607C2070C46C1831316170093
:1017E0009EA25E9612226D8E01C693E717009EA2FE
:1017F0000507890695BD13972700B386E400944238
:1018000081EA5A9714431397170056971A23D8CA98
:101810008507B1BD6258F258C25EB3060941525FF6
:10182000333ED900B38819413386D601B388C84105
:101830003338D600FA98B28646986DBD13972700C4
:10184000B386E400944281EA629714431397170029
:101850005E971A23D8CA8507E3C287FEB7F700E070
:101860009047D4472545B2C0B6C2984BDC4B13060F
:10187000803E13091700B339E900BE99B30535035B
:101880008146B337250333052503BE95EF70802DC0
:10189000064796470146BAC4BEC6814E37FE00E0F1
:1018A00003278E008327CE00BAC0BEC22647B647A4
:1018B0000648964863E9F818639417016365E818C9
:1018C000064896482643B64333076840B336E800D7
:1018D000B3877840958F3297B336C700F6973A862C
:1018E0000647B38EF6009647BAC4BEC6E3EABEFA10
:1018F0006394D501E366A6FA814763C88716B7F7F4
:1019000000E09047D4472545B2C8B6CA984BDC4B97
:101910001306803E13091700B339E900BE99B305D9
:1019200035038146B337250333052503BE95EF7094
:1019300060234647D6470146BACCBECE814E37FE1D
:1019400000E003278E008327CE00BAC8BECA6647D0
:10195000F6474648D64863E9F81263941701636571
:10196000E8124648D6486643F64333076840B33624
:10197000E800B3877840958F3297B336C700F69763
:101980003A864647B38EF600D647BACCBECEE3EAD7
:10199000BEFA6394D501E366A6FA814763C887104F
:1019A000B7F700E09047D4472545B2D0B6D2984B60
:1019B000DC4B1306803E13041700B334E400BE94DE
:1019C000B30595028146B337850233058502BE957E
:1019D000EF704019065796570146BAD4BED6014853
:1019E000B7F800E003A7880083A7C800BAD0BED22A
:1019F0002657B6570653965363E9F30C6394770062
:101A00006365E30C06539653265EB65E3307C34107
:101A1000B336E300B387D341958F3297B336C7000F
:101A2000C2973A8606573388F6009657BAD4BED680
:101A3000E36AB8FA63940501E366A6FA65616FE0AC
:101A40008FF7814711BD2643B6430648B307694067
:101A500096483337F900B3867940998E338707016A
:101A6000B337F700C696B697BDB513972700B38670
:101A7000E400944281EA5A9714431397170056974B
:101A80001A2398CA850795BD6643F6434648B307AF
:101A90006940D6483337F900B3867940998E338749
:101AA0000701B337F700C696B697F9B51397270025
:101AB000B386E400944281EA5A97144313971700BF
:101AC00056971A23D8CA8507D1BD265EB65E06533F
:101AD000B307C44196533337F400B386D441998E8B
:101AE00033876700B337F7009E96B6973DB7372721
:101AF000002093078795D04B8C4B13078795814720
:101B0000544763C3D700828093962700B29623A0E0
:101B1000060093961700AE96239006008507CDB772
:101B200039C503070500930720026312F7049307E2
:101B30001500014713032002130EC0051308F6FF1A
:101B40009308E006930E2007130F400783860700D3
:101B500089CE1385170063956600636EC704828083
:101B60006394C6058387170091EB8D4711A08947C1
:101B700037270020232EF7E001458280637F07018D
:101B80006380170363D7F800638ED7016393E7017F
:101B9000A547B386E5009CA20507930715007DB70E
:101BA000A947C5BFB547F5B73E85E37807FFB387BB
:101BB000E50094A3D5B7BA9523800500828019CD9E
:101BC000370780FFDD4631171C21DD1793F7F70F2C
:101BD00063E6F600B357F740858B91C38280050515
:101BE000E5B7EFE2EFDA4111AA890A85EFF0CFB449
:101BF00063400508130415000588B7E700089843FB
:101C0000FD57B70400206308F70637F700081843AC
:101C10006306F70699677390078037076745B7270C
:101C2000024013073712D8C33797EFCD1307B79A7F
:101C3000D8C32D6413071003D8C7373900401304E5
:101C4000A4AA2320890037E50008EFE06FFA23A05B
:101C5000A40C03A7040C91476301F70CEFE02FF5E8
:101C600099679387870873900780014402C039A061
:101C700002C0014459B7B7F700089C43B7474C5717
:101C8000938767343EC28247930580044E8585075B
:101C90003EC4930780047C86EFF0EFA4A167B907E8
:101CA0003E946887320419697310098037076745C5
:101CB000B727024013073712D8C33797EFCD130762
:101CC000B79AD8C313071003D8C7AD67373700409A
:101CD0009387A7AA1CC32285EFE08FF123A0A40C51
:101CE00003A7040C91476315F704130AC4001309F2
:101CF0004100914A835509002285EFE0CFF223A0ED
:101D0000A40C83A7040C638E5703EFE04FEA996796
:101D1000938787087390078015A02320890037F5E3
:101D20000008EFE0EFEC23A0A40C83A7040C3DB760
:101D3000EFE0EFE7130989087310098041016FE0B4
:101D40006FC809040909E31744FB0149914A130AC2
:101D50008004B38729018E2333052401EFE0AFEC23
:101D600023A0A40C83A7040CE39157FB0909E312F9
:101D700049FF61BFEFE26FC304412A848545268590
:101D8000EFE09F9119CDDE24858B81CF0325C4FF21
:101D90005C5D89C73C411305450382971C40795718
:101DA0009AAB6FE0CFC2EFE24FC000412A895E24B8
:101DB000898B91EB5E24918B99E75E24A18B81E75F
:101DC0005E24C18B8DC789452285EFE0FF8C15C14C
:101DD000F5571EA885448327C9FF8D0492041385F7
:101DE00044003E95184501C7A6979C4B82976FE02B
:101DF0000FBE91452285EFE03F8A09C5ED571EA829
:101E00008944D1BFA1452285EFE01F8909C5DD576F
:101E10001EA88D44C9B7C1452285EFE0FF8745DD87
:101E2000BD571EA8914445BFEFE22FB8411102C231
:101E300002C402C6FD576313F50001A01377F50035
:101E4000AD670A079387C73FBA97118103A90700B7
:101E50003D899147AE84014463ECA702A96793874B
:101E6000C7600A053E951C413717024082871C4F08
:101E70003714014093E747001CCF1304048009A8DE
:101E80001C4F37140140130404C093E787001CCF94
:101E900093D7844093F7F7076387071EB71602406E
:101EA000984EFD171367170098CE1307F004636C64
:101EB000F71C29678A0713070762BA979C43828732
:101EC0001C4F3714014093E707011CCFD1B71C4FBB
:101ED000371401401304044093E707021CCF4DBFA1
:101EE0001C4F3724014093E707041CCF79B7854581
:101EF0000545EFE00FE541AA8145DDBF8545094570
:101F0000CDBF8145EDBF85451145E5B78145EDBFA5
:101F100085452145F9BF8145EDBF8545370514004D
:101F200013050503F9B78545370514004105D1B7F9
:101F30008145EDB78545370516001305050C55BFDE
:101F40008545370516001305050465B78145E5B7D6
:101F50008545370518001305053061BF85453705F0
:101F600018001305052071B78545370518001305BE
:101F7000051041B78145F1BF854537151A00130596
:101F800005C085BF37151A0085451305058095B72F
:101F90008145E5B785450565A9BF8145EDBF854507
:101FA00037451D00B9B7854537651D0099B781458F
:101FB000E5BF8545216535BF8145EDBF85453705C1
:101FC000200005053DB78145DDBF8545370520006B
:101FD0001305050239BF8145D5BF8545370520006A
:101FE0009DB78145E5BF85453705200013050508E8
:101FF00009B78145D5BF8545370520000905D5BD01
:102000008145DDBF8545370520001105DDB58145DA
:10201000DDBF8545370520002105E1BD8145DDBFD8
:1020200085453705200019B78145E5BF854537054A
:10203000300035BF85453705300025B78545370564
:1020400030001305054075B585453715200055B599
:102050008145E5BF81453725200061BD8545E5BF48
:1020600085453745200071B58145E5BF8545370574
:10207000008061BF8545370513804DBD370701409E
:102080005C4F9D9B5CCF93D7244013F734008D8B1E
:1020900065CB3AC409476381E70E0D476380E70EBD
:1020A00005476389E70CC1473EC6D5A0854537057E
:1020B000158051BD85453705158019BF370701408B
:1020C0005C4F93F7F7F97DBF85453705008095BFD5
:1020D0008545370530801DB7854537053080D5B536
:1020E000B7060140DC4E3707FDFF7D17F98FDCCEC8
:1020F00059BF85453705328005B78545370532809C
:1021000029B7B7060140DC4E3707F4FFF9BF854514
:102110003705348075BD85453705348001BDB70668
:102120000140DC4E3707D0FFC9B7854537053680FB
:1021300075BD85453705368039B5B7060140DC4E9B
:10214000370740FF5DB785453705388019BD8545A0
:102150003705388029BDB7060140DC4E370700FD42
:1021600069B7854537052080E9BDB7070140D84FDD
:10217000D8CF11BFD1470DBFE1473DB7F1472DB7CC
:102180000547638FE7008946638ED70095E34C00CF
:10219000228523122101EFE0EFAB41016FE02F8395
:1021A000914719B791848D8893078004E38EE4EEFC
:1021B00093078002D5BDFD577D576318F5008280D7
:1021C0006314F5008C458DB1B1059C41E39AE7FE9F
:1021D00001A0EFD29FFA83A70198011137040020D4
:1021E00003A841983EC49307040203C7C7022ACA42
:1021F00042C68D47AE891304040263E3E7048347B4
:10220000C40237370020930687E48A07B6979043C5
:102210001305703E834786028A07BE969C4293064A
:1022200087E403A807008357080093F70704638A2D
:10223000072C01476395E92E4E8505616FD0BFF7E6
:102240002D6A93058A302545EFE04FDB630E0520AC
:10225000373900208144114D130989E42306940283
:102260006395A40993058A302545EFE02FD9630DC6
:10227000051EA54793058A3025451CCCEFE00FD8F5
:102280000328C401AD6D93858D2AAA84428542CE70
:10229000EFE0CFD6832B04022D6D9305CD26AA8ABD
:1022A0005E85EFE0AFD55050AD6C2A8993850C2345
:1022B000328532CCEFE08FD42A8B6387041A7248C0
:1022C000FD556246630EB80663800A1A6383BB0439
:1022D000630C09186313B60A639A541B638A2419A2
:1022E0006303090463130B0AB5AA93972400CA97E2
:1022F00083AC0700638B0C0093058A302545EFE023
:10230000EFCF83A70C00E38CA7EE850493F4F40FC2
:10231000B1B7630F760163090514639654076381AF
:1023200024156314090663179B14232064018DA0F0
:102330006386541563190914DA8404C0B1E82DA228
:10234000638B0B0363020912630D0601630E051014
:10235000E38754FDE3850AFC2320240163146911FB
:102360003DA06385541163830A106319A90E2320CD
:102370002401CA8431A86309760D63070B0EE3803C
:1023800054FBE38E0AF8E31909FC23206401DA8484
:10239000B746014093860680639ED40E37160240EE
:1023A000144E9165CD8E14CE23060402930650037D
:1023B00014D493058A302545FD3B63860A00484CBA
:1023C00093858D2ACD3B014A630809000850930587
:1023D000CD26130A0010C53363080B0048509385BF
:1023E0000C23136A0A20C13B0349C402B7370020FB
:1023F000938787E493162900B697B7060020938643
:102400004602044094C3F167938707201CC4B707B2
:102410000C0044C0232604001CC8231A4401639600
:102420000A00DE2893E78700DEA8B7050020938521
:1024300085022685EFE0CFA7DE240967D98FDEA4C9
:102440008D47E3FE27DB0DA0E38A54E9E3880AE821
:10245000E30409EE23202401E30BA9F2CA8419A89E
:10246000E30569F3232004008149F9B3E39C24E7E1
:10247000E38D64F1E3180BFE04C019BFE39224E777
:10248000E39EAAFCEDB5E31BA9FC01B7E318A9FC88
:10249000CA8465B5B746004093860640639FD40062
:1024A00037160240544EB7050200CD8E54CE8546F5
:1024B0002306D40293066003E5BDB7560040138699
:1024C0000680639FC40037160240544EB7050400CF
:1024D000CD8E54CE89462306D40293067003C9BD1F
:1024E000938606C0E397D4EC37160240544EB705E6
:1024F0000800CD8E54CE8D462306D4029306D00319
:1025000045BD03A40198A24783A44198B305F440B4
:102510003337B400E31A97F4E377B5D0B1B7834704
:1025200086028A07B6979C438C439E2193F7070443
:10253000EDDFD2451C42BA958C210507CEA3DDB94B
:102540002E85B28579B1EFD25FC6371402401C4C9C
:102550000111B714014093E7C7001CCC9307803FDB
:10256000FC82E1473ECE4C088D47138504C03ECC2B
:10257000EFD05FEEE1774C0813850480FC82EFD04A
:102580007FED1C4C37051800854593E717001CCCE0
:102590005C4C13050530B714004093E717005CCC82
:1025A0005C4C93E727005CCC5C4C93E747005CCC29
:1025B000EFD03FF937151A00854513050580EFD098
:1025C0005FF885473EC42C009307703E37050040F6
:1025D000370400403EC6EFE08F852C001305044011
:1025E000EFE0EF842C0013850480EFE04F841E3071
:1025F000E5759385F5CFC207C183F99BC207C183F7
:102600001EB01E3056201A2CC207C2064207418354
:10261000C1821377C7F856A013670706C1831AACA7
:10262000F59B231A040293E717001EB01E301966AB
:10263000C207C183BD9BC207C1831EB01E30562096
:102640001A2CC207C2066D8F518FC182420756A055
:102650004183C1831AAC93F7F7FD93E70701231C6D
:1026600004021EB00357044293070440420741830B
:10267000799B420741839AB39A33CA23962F420724
:102680004205C206C182418193F6C6F8CAA393E609
:102690000606418396AF759B239A070213671700BE
:1026A0009AB39A33420741833D9B420741839AB3D1
:1026B0009A33CA23962F42074205ED8ED18EC20669
:1026C0004181C1824183CAA31377F7FD96AF239C52
:1026D0000702136707019AB303D704829387048024
:1026E000420741831377F7EF420741839AB39A3346
:1026F000CA23D62F42074205C206C182418193F602
:10270000C6F8CAA393E606064183D6AF1377F7DF70
:10271000239E0702136707109AB39A334207418337
:10272000799B420741839AB39A33CA23962F420773
:102730004205C206C182418193F6C6F8CAA393E658
:102740000606418396AF759B239A0702136717000D
:102750009AB39A33420741833D9B420741839AB320
:102760009A33CA23962F42074205ED8ED18E4181BE
:10277000C206CAA3C182418396AF1377F7FD239C9B
:102780000702136707019AB39A334207418313770D
:10279000F7EF420741839AB39A33CA23D62F4207F1
:1027A0004205C206C182418193F6C6F8CAA393E6E8
:1027B00006064183D6AF1377F7DF239E0702136720
:1027C00007109AB39A33FD76FD16758F9AB3963338
:1027D000CA23DA2F42056D8F518F418142077976E6
:1027E000CAA341837D16DAAFF18E056623900704F4
:1027F000D18E96B31E2093E717001EA08357044086
:1028000093E717002310F44083D7048093E7170061
:102810002390F48005616FD09F9BEFD29F965C411F
:10282000AE843284FDE70547A38EE190B7470140AF
:102830001307F0FB2390E780B7070240FC43858B2A
:1028400095CB61691309196AB70902409387490456
:10285000DC43C207C18381CB7D19630609000545AE
:10286000EFE04FF8E5B7B7060240FC424167791741
:10287000F98FFCC2B7060240FC4241677917F98F15
:10288000FCC223A2060423A4060423A6060423A84C
:102890000604DC423D67D98FDCC21387C1FA44C30A
:1028A00040C7EC42E177BD070853FD8D1C47C98F37
:1028B000084BC98F484BC98F084FC98F484FC98FE4
:1028C0004853C98F0857C98FCD8FFCC2A0C61C437F
:1028D0000567FCC6A4CAFC4293E71700FCC2B71701
:1028E00001409387078098CBB747014003D74781C2
:1028F00013670708239AE7801307F0FB2390E7800C
:102900009387C780984322851367070498C36FD0C5
:10291000DF8A0547238EE190B75700401307F0FB8D
:102920002390E7809387C78098430149896A13778A
:10293000F7FB98C3375A00407D5B93170901C183A9
:1029400063E58700B757004045BFB387240183CBB9
:10295000070093890A7183570A8093F7070881EB70
:10296000FD19638869010545EFE0CFE7EDB76384A2
:10297000090023127A810509C9B7EFD21F8301111B
:102980002313010002CA02CC02CE23A2A190B717E2
:102990000240984F916637140140558F98CF984F59
:1029A000130504808D441367470098CFD84B4C0023
:1029B000056913671700D8CB930700207C82E14795
:1029C0003EC626C4EFD01FA993070040130504801C
:1029D0007C824C00930780043EC6EFD0BFA7C1475E
:1029E000130504804C003EC62312210126C4EFD0FB
:1029F0007FA613040480F167232A2401938707200C
:102A0000374401403EC80C08B14713050480FC85DB
:102A1000EFD01FCA9307C48098431367070298C377
:102A200098431367070498C303A7019511E7B7E715
:102A300000E0A38A074225A083A601950547E38805
:102A4000E6FE83A601950947E383E6FE03A7019509
:102A5000E30F97FC03A701959147E30AF7FCB7E75B
:102A600000E03707200023A2E71037470140938793
:102A7000C1FA9306478094C3C14694C793060008E1
:102A8000D4CB8D66D4D323A2070023A0070223A8AA
:102A9000070023A4070223AE070023AC070023A6E8
:102AA0000700930707800357C7808966558FDAA709
:102AB00085679387471323A0F19205616FD02FF1AB
:102AC000232205005DBDEFD2CFEB9377F50F1307FF
:102AD00040022E896365F7042D678A07130787363E
:102AE000BA979C43137405705D8CFD576304F426FC
:102AF000373B0020135C240093070BE2137CCC03CC
:102B0000E2979C43937CF400130B0BE2B3D797013D
:102B1000858BB1CFAD6993878908FD561DA81377C2
:102B2000050C9306000C6317D7221307900C636300
:102B3000F7222D679376F5038A06130787173697D2
:102B40001843AD67938787360A0759BF630FE420A0
:102B5000B1079843E31CD7FE629B03270B00854710
:102B6000B397970193C7F7FFF98F2320FB007D19D7
:102B70009147914563ED271DA967938707760A0959
:102B80003E998327090082870A05938744015E9551
:102B90001CC193070008DCD4930700049CD8B73706
:102BA000014023AC4401C4C823AE040023A00402A6
:102BB00023920402938707C06312FA0EB7160240ED
:102BC0009C4E056713070780D98F9CCE83A7890089
:102BD00089CB0D46CE854E85829723A4090023A676
:102BE0000900C109E394A9FF884CC167FD1723AE12
:102BF00004009CD01E2123A0040023A2040093E71C
:102C0000070823A4040023A6040023A804001EA18F
:102C10009385C401EFD0BFA1B7E700E09387071009
:102C200013070020D8C3056793060780D4C3D8C311
:102C30000967D8C31167D8C3B3875B019C4384C3BA
:102C4000DE9A83A70A0083A90700E38709F083A41B
:102C500089012685EFD00FDDB7370140938707C084
:102C60006399F408B71602409C4E7D771307F77FEF
:102C7000F98F9CCE0A055E952320050023AA090042
:102C800093844908138A4903638C440BC1149C4400
:102C9000E5DF0D46A68526858297FDB7B70700407C
:102CA0006319FA00371702405C4F93E717005CCFB7
:102CB00031BF938707406318FA00371702405C4F13
:102CC00093E72700EDB7B717004013870780631815
:102CD000EA00371702405C4F93E74700C9BF93876C
:102CE00007C0E315FAEE371702405C4F93E7870001
:102CF0007DBFB70700406398F400371702405C4F70
:102D0000F99B5CCF85BF938707406397F400371723
:102D100002405C4FF59BF5B7B7170040138707805B
:102D20006397E400371702405C4FED9BD9BF938750
:102D300007C0E391F4F4371702405C4FDD9BD1B735
:102D4000930540084E85EF40D07A39B58D452285F0
:102D5000EFF08F8D6FD06FC6E145D5BF9305800230
:102D6000FDB78145EDB79D45DDB79385890822857F
:102D7000EFD0DFA8EFD00FCBB73B002093874BE31A
:102D8000931A2500D6979C43938B4BE3E39A07EA6B
:102D900013054008EF403076AA8493858908228580
:102DA000EFD0DFA5938944032A8A138D4408CE8788
:102DB00023A0070023A2070023A4070023A60700DF
:102DC000C107E317FDFE5285EFD0CFC5C167FD17E0
:102DD000E31CF5DA01A0EFD24FBA372400209307A5
:102DE0008495C44703A9470103AC470283AC07029B
:102DF00003ABC70283AB87025D712AC4214D930DDB
:102E0000000813048495B7F900E0254A03A7890058
:102E100083A7C9001306803E3AC83ECA83A70901AA
:102E200003A849018146938A170033B7FA003A98FC
:102E3000B3050A0342C6B3375A0333055A03BE9596
:102E4000EF5050524247D24732483ACC2A833ECEC6
:102E50000145814803A7890083A7C9003AC83ECA33
:102E60006247F2474246D24663EAF6066394D700C9
:102E70006366E6064247D247E24E724F3306D741B9
:102E8000333EC7003387E7413307C741B287AA976C
:102E9000B3B6A7004697B388E60042473E85D247BF
:102EA0003ACC3ECEE3E8B8FA63941501E36465FAE0
:102EB000A247B3F7B7016394072863D49706139723
:102EC0002700B306E900944281EA669714431397FA
:102ED000170062971A23D8CA8507C5B76247F24719
:102EE0004246338FEA40D246330EF840B3BEEA0181
:102EF000330EDE41B307CF0033B7E701F2963697C2
:102F000079B713972700B306E900944281EA6697E0
:102F100014431397170062971A2398CA8507E3C2D0
:102F200097FE814763CF972003A7890083A7C90035
:102F30001306803E3AD03ED283A7090103A8490177
:102F40008146938A170033B7FA003A98B3050A030B
:102F500042C6B3375A0333055A03BE95EF5090402B
:102F60000257925732483AD42A833ED601458148C7
:102F700003A7890083A7C9003AD03ED22257B2578F
:102F80000256925663EEF61C6394D700636AE61C01
:102F900002579257A25E325F3306D741333EC700D5
:102FA0003387E7413307C741B287AA97B3B6A70073
:102FB0004697B388E60002573E8592573AD43ED6EC
:102FC000E3E8B8FA63941501E36465FA814763CCDA
:102FD000971A7D1D93DD1D00E31A0DE2814763C33F
:102FE000971CB7F700E09047D447254532D836DA2A
:102FF000984BDC4B1306803E9309170033BAE90067
:103000003E9AB30545038146B3373503330535038F
:10301000BE95EF5030354257D257014E3ADC3EDE76
:10302000014737F300E0032683008326C30032D82C
:1030300036DA6256F2564258D25863E4D81863948E
:1030400016016360C818C25E525F625CF25C33882E
:103050008E4133B60E01B3079F41C286918FBA9657
:1030600033B6E600F297330EF60042563687D25654
:1030700032DC36DEE369BEFA6394C501E365A7FA84
:10308000814763C49716B7F700E09047D4472545BA
:10309000B2C0B6C2984BDC4B1306803E93041700B7
:1030A00033B9E4003E99B30525038146B337950251
:1030B00033059502BE95EF50F02A06479647014624
:1030C000BAC4BEC60148B7F800E003A7880083A7CA
:1030D000C800BAC0BEC22647B6470643964363E55A
:1030E000F312639477006361E31206439643264E1E
:1030F000B64E3307C341B336E300B387D341958F50
:103100003297B336C700C2973A8606473388F6002F
:103110009647BAC4BEC6E36AB8FA63940501E3668B
:10312000A6FA81448549544463C2D41050484C5493
:103130000854814763CBD71261616FD0CF87814735
:10314000F9BB13972700B306E900944281EA5E9722
:103150001443139717005A971A2398CA8507D9B3AF
:103160002257B2570256338FEA409256330EF84038
:10317000B3BEEA01330EDE41B307CF0033B7E70138
:10318000F29636971DB513972700B306E9009442CF
:1031900081EA5E971443139717005A971A23D8CAE7
:1031A000850735B513972700B306E900944281EAF5
:1031B000669714431397170062971A2398CA8507D6
:1031C00039BD6258F258425FB3870941D25FB3BE3E
:1031D000F90033081A413386E7013308D841B33781
:1031E000F6007E98B286C2979DBD13972700B3065E
:1031F000E900944281EA5E971443139717005A97A7
:103200001A2398CA8507B5BD264EB64E0643B38726
:10321000C441964333B7F400B306D941998E33873E
:103220006700B337F7009E96B697D9BD1C4C13992B
:1032300024008945CA978843EFF0FF881C50939675
:103240001400CA979C4398475C50B6979E23F98F09
:1032500089C75C48CA9723A037011C4C9545850453
:10326000CA978843EFF03F867DBD13972700330848
:10327000E60003280800631B08002A9703280700BC
:10328000139717002E971A23232AE80085075DB5A8
:10329000EFC23FEFB7F700E09047D447797132C0F3
:1032A00036C2984BDC4B2A8A13041700B334E4006F
:1032B0002545BE94B30595021306803E8146B3377B
:1032C000850233058502BE95EF50D009024792472B
:1032D00001463AC43EC60148B7F800E003A788009B
:1032E00083A7C8003AC03EC22247B2470243924376
:1032F00063E3F31C63947700636FE31A0243924322
:10330000224EB24E3307C341B336E300B387D341F5
:10331000958F3297B336C700C2973A8602473388F3
:10332000F60092473AC43EC6E36AB8FA63940501D0
:10333000E366A6FAB7270020138787954447032939
:103340004701832B4702032C070293878795014788
:103350006345971883AAC70203AB8702814763CDF1
:103360009718B7F700E09047D447254532C836CACA
:10337000984BDC4B1306803E13041700B339E4006E
:10338000BE99B30535038146B337850233058502FF
:10339000BE95EF50207D4247D2472A833ACC3ECE9D
:1033A0000147814737F500E01045544532C836CA19
:1033B0006246F2464248D24863EFD814639416013D
:1033C000636BC814C24E524F6248F248338E0E41AE
:1033D00033B6CE0133081F41F2863308C840BE968B
:1033E00033B6F6003A98330706014246B687D2460E
:1033F00032CC36CEE36AB7FA6394E500E3E667FAC7
:10340000814763CE9712B7F700E09047D447254530
:1034100032D036D2984BDC4B1306803E1304170093
:10342000B339E400BE99B30535038146B33785024D
:1034300033058502BE95EF50E07202579257014E58
:103440003AD43ED6014737F300E0032683008326B3
:10345000C30032D036D22256B2560258925863EF89
:10346000D80E63941601636BC80E825E125FA25B76
:10347000325C33887E4133B60E01B3078F41C2867A
:10348000918FBA9633B6E600F297330EF6000256E5
:103490003687925632D436D6E369BEFA6394C501B4
:1034A000E365A7FA814763CF970C5285EFF0BF928F
:1034B00045616FC09FD0224EB24E0243B307C44154
:1034C00092433337F400B386D441998E3387670033
:1034D000B337F7009E96B6972DBD93162700330697
:1034E000D900104201EAE296904293161700DE9648
:1034F000962214CA0507A9BD13972700B306E90051
:10350000944281EA5A9714431397170056971A2347
:1035100098CA8507A9B56248F248C24EB30604416D
:10352000524F333ED400B38819413386D601B38855
:10353000C8413338D600FA98B28646984DB51397ED
:103540002700B306E900944281EA62971443139777
:1035500017005E971A23D8CA850765B52258B25856
:10356000025FB3070441925FB33EF4003388194110
:103570003386E7013308D841B337F6007E98B28628
:10358000C29701B713972700B306E900944281EA76
:103590005A9714431397170056971A23D8CA8507CA
:1035A00019B7EFC29FC03724002093078495DC47EA
:1035B000AE841304849595C3EFE06FD31305C00662
:1035C000C1393145EFF03F811305D006D1310545B2
:1035D000EFD09FF10145EFD03FF14844032844016B
:1035E00018440323040083280401814763C7A7000C
:1035F000860426970A236FC09FBD93962700C29624
:1036000090429396170001EE3386D8000E220546AD
:10361000BA968EA2B306F30090A28507C1BF81457A
:103620000146FDB7EFC27FB82A84031565008147C4
:10363000634B05008545EFF00FC903156400814514
:10364000EFD08F9D85471CB06FC07FB8EFC2FFB52C
:103650003725002013058593F137138581FFD9376E
:1036600013858101C137138581036D3F1385810562
:10367000553F6FC0DFB5C1456F40A06791456F40B2
:103680004067930540416F40C066EFC29FAF5971DC
:103690003C003ED67C003ED83C003ED07C003ED272
:1036A0001C412EC632C436D436CE19476361F702A8
:1036B00029678A071307877ABA979C432A84B684B6
:1036C0008287A965938505786808EFD0DFD56561A5
:1036D0006FC0BFAE5C2189C7AD65938545CFEDB79F
:1036E000A96593854577CDB7EFD0CFA22966AA8685
:1036F00013068678C145E800EF609067EC00E9B7F3
:10370000EFD06FA2B70400801389F4FF83A5C183B3
:10371000337925012A844A85EF50C02301E983A526
:10372000C1834A85EF5070696356A000A9659385EF
:10373000C57859BF930500002285EF5020186356C5
:10374000050683A501842285EF50401763490508CB
:10375000A18C2685EF6060562A89EF602061AA85DA
:103760002685EF60A01C83A58184EF50706E83A531
:10377000C184EF508079EF604054AA849305000023
:103780002285EF50A013635705009305D00228103F
:10379000EFD09FC729662687CA861306C679930588
:1037A0000002E800EF60D05C91BF83A541842285D0
:1037B000EF50B0606359A002AD66938606F2228591
:1037C00036C2EF60A07A924629662A87AE87130632
:1037D000467993050002E800EF60905905B7A966A5
:1037E0009386C677E9BFA284ADB79305200228105F
:1037F000EFD09FC11104130920020307040011C771
:10380000A2479440FD1763E8F600930520022810B4
:10381000EFD09FBF6DBD630627019307C0056317F7
:10382000F7009305C0052810EFD01FBE83050400E4
:1038300028100504EFD05FBDC9B7032B45009305E1
:10384000B0052810EFD05FBC63190B1C9305D005A1
:103850007DBF5443296613068678C145E800EF60B2
:103860003051EC000DA803294700B70C0080138DE0
:10387000FCFF83A5C183337DA9016A85EF50800DCC
:1038800001E983A5C1836A85EF5030536355A008D1
:10389000A9659385C5788800EFD0BFBD83270B0A43
:1038A0008509E3D5F9FA9305C0022810EFD0DFB5FA
:1038B0008387818E89E723200A0A2384818F184019
:1038C000994752896318F7000329440063140900DB
:1038D0001389C19EB24522468327090A2ECA32CCDB
:1038E000E3DEF9FA930C8002B38C99033C083EDCCA
:1038F0005C083EDE3C08BEC25C08BEC426DA330764
:1039000099011C43A6C09546FD17E3E9F6F88A071E
:10391000D6979C438287930500004A85EF40107A32
:103920006357050683A501844A85EF403079634AD1
:103930000508B3CC2C016685EF6020382A8DEF6036
:10394000E042AA856685EF50707E83A58184EF50A2
:10395000305083A5C184EF50405BEF600036AA8CE5
:10396000930500004A85EF40707563570500930585
:10397000D0024818EFD01FAE29666687EA86130684
:10398000C67993050002E800EF60903ED9BD83A59B
:1039900041844A85EF5070426359A002AD66938618
:1039A00006F24A8536C2EF60605C924629662A8735
:1039B000AE871306467993050002E800EF60503B9E
:1039C0004DB5A9669386C677E9BFCA8CADB75C23AF
:1039D00089C7AD65938545CF7DBDA965938545773D
:1039E0005DBD481893052002EFD0DFA693858C00BB
:1039F000CA958800EFD0FFA7930520024818EFD0A2
:103A00007FA569BD5C431547A686E800BAC6BEC857
:103A1000AD3969B55C431947C5BF83270B0A814996
:103A2000E356F0E2A96A138AC19E054C938A4A7C48
:103A300041B540419305B0072810EFD0FF9C19C451
:103A40008327041A930904016345F0009305D00706
:103A50007DBB930520022810EFD01F9B0149296AE6
:103A60008327041A938509FF6345F900AD659385A3
:103A700005F26808EFD03F9B680893054A7AEFD0BB
:103A80009F9A8327041A4E856344F900138501A980
:103A90002246B245A6860509CD3E8327041AE35780
:103AA000F9FA28109305C002EFD01F969305200263
:103AB000281093894903EFD03F955DB7EFC26FECB3
:103AC00003A4C193797109E403A481946304040EEF
:103AD0002285EFD0EFDD9307E07F372B00203EC635
:103AE00093070BE23EC83C003ECC7C003ECE1C0857
:103AF0003ED03C003ED27C003ED4372A00201C0839
:103B00009305B00728083ED613094AC702C4EFD070
:103B10001F998327091A93090BE2130A4AC7814B9D
:103B2000635DF004296C930520022808EFD03F97CD
:103B3000CA854810EFD09F9893054C7A4810EFD073
:103B4000FF97A247C244B24A5408BE94B38AFA40CF
:103B50005686A6851305090102CAEFF01FB3524726
:103B600063755701BA9423800400A247850BBA9766
:103B70003EC483270A1A63C2FB049305D0072808B2
:103B8000EFD0FF912247B2476376F700C247BA975A
:103B9000238007002246354793050BE2B387C9000F
:103BA00098A3294798B31C40090642069C4F4182BE
:103BB0002285829745616FC04FE09305C0022808B7
:103BC00013094903EFD0BF8DB9BF232005001306A9
:103BD0000002814511056FC04FD9EFC20FDD2A8465
:103BE000930405011309051B268593844403F13FC3
:103BF000E39C24FF85472320041A2302F41A6FC094
:103C00000FDDEFC28FDA95471CC103A4018F0D476A
:103C1000617105043364E402AA84280023A8818E1C
:103C20006D3F9307801AB307F4023707002013078C
:103C300047372C001306501ABA973E85EFC08FD134
:103C4000C8C05D616FC0AFD8EFC22FD661712800C8
:103C5000693737250020130445C72C001306501A76
:103C6000130545C7EFC00FCF2324041A5D616FC051
:103C70000FD6EFC28FD391472A841CC17D46110510
:103C8000EF40806DA30104026FC06FD481E5232053
:103C900005008280F9BFEFC2AFCF0329051A397141
:103CA0002A848144130A400363C524059D4763C3E6
:103CB000270793044003330599027D462295EF4080
:103CC000A0690329041A6808B30499020509B30915
:103CD0009400A38F0900D53D130640026C0813859C
:103CE0000901EFC02FC7C1042320241B3305940012
:103CF00029A8B38944032EC633053401EFC04FC44D
:103D0000B24519E5C1093305340121616FC08FCB7C
:103D1000850459BF2302041A138501A9FDB7EFC218
:103D20002FC7B284AA892E89053737240020A965B8
:103D30009385C57D130544C7B93F8947A9651CC153
:103D4000232235019385057E130544C7A93785478E
:103D5000A9651CC1230205009385457E130544C750
:103D60001D3FCA852537A9659385C57E130544C7C0
:103D70001D37A685213FEFF07FD46FC0AFC4EFC2DF
:103D80002FC1AA8932842E89C135B7240020A965A4
:103D90009385C57D138544C7FD3D8947A9651CC131
:103DA000232235019385057E138544C7ED3585476C
:103DB0001CC15CA1630A0900A9659385457E138532
:103DC00044C7D13DCA85D93509C8A9659385C57E43
:103DD000138544C7C935A285553DEFF03FCE6FC06E
:103DE0006FBEEFC2EFBA2A8408412E89B284EFF089
:103DF0009FEA1C4185490840F917CA8563FBF90011
:103E0000A685EFF05FE91C41F91763EAF900084065
:103E1000A685EFF05FE8EFC01FB16FC0AFBA03A592
:103E20000185E5BFEFC2CFB62A8408412E89B2844E
:103E3000EFF07FE61C4185490840F917CA8563FB0E
:103E4000F900A685EFF03FE51C410840F91763E94A
:103E5000F900A685EFF03FE4EFC0FFAC6FC08FB66E
:103E6000CA85EFF05FE31C41CA850840F91763FB80
:103E7000F900A685EFF03FE21C41F91763EBF9006A
:103E80000840A685EFF03FE1EFC0DFA8EF50106ECD
:103E9000F1B703A50185D9B7EFC28FAF8329051A02
:103EA000AA842E890144130A400363453401014565
:103EB0006FC04FB133054403CA852695EFC04FA8A4
:103EC00019C10504DDB70545E5B7EFC20FAE4111D5
:103ED0002A846800EFD04F86634F0502A167B907B7
:103EE0003E9532051A2593068004BA8763F4E600EE
:103EF0009307800413970701418331058147939607
:103F00000701C18263EDE6081844B7476140938713
:103F10001706630EF70883A7418503A741875CC492
:103F20001CC85CC81CCC83A7818558DC5CCC83A7EB
:103F3000C18503A781871CD083A7018638C01307DA
:103F400000001CD483A7418678C05CD483A78186F7
:103F50001CD8930720035CD883A7C1861CDC83A7E9
:103F600001875CD03CC4C1475CC0B74761409387C0
:103F700017061CC483474441A1C383258449B7471E
:103F800061409387170698416318F70013064005B0
:103F90001305C404EFC00F9C41016FC04FA3B306CB
:103FA000F5009022B306F4008507D0A289BF5840DF
:103FB000C147E312F7F6D1B708408547230AF4401A
:103FC0001C41DC478297232CA440232EB44075B7B4
:103FD000EFC2AF9D2A8448454111AE84EF30906016
:103FE00038381C280D466303F70011463306960245
:103FF0004206418252A0328532C6EF30305E48C45C
:1040000009C932468145EFC04F9626A041016FC0D5
:104010000F9C231204008144CDBFEFC20F99B70754
:10402000020185071CC985471EA12304050023261C
:104030000500232A05002A84B284593F1C3081CB15
:1040400003156400634505008145EFE0DFA71C30E0
:1040500066A089CB85452685EFE0FFA681452685AC
:10406000EFC08FFB831764009306400213F7F70F2E
:1040700063CDE602AD660A07938686363697184307
:1040800093F70770D98F13F6F70093D647000547CB
:104090003317C700BD8A11466378D604BD8B054728
:1040A000232C0400B317F70011A893F6070C13068E
:1040B000000C6388C600232C0400A1675CCC6FC091
:1040C0000F919306900C63CFE600AD6613F6F703ED
:1040D0000A0693868617B29694422D671307873691
:1040E0008A0669BFFD575DBFAD678A06938747079C
:1040F000B6979C4358CCB71601401CCCE391D7FC33
:10410000B72702409C5BB706000FF58FCDFB3583C8
:1041100058CC75B7EFC26F86371402401C488564CF
:1041200093840480C58F1CC81848FD779387F77F58
:104130007D8F18C8584C5D718545F98F5CCC1C4C3F
:10414000216593E717001CCCEFC0AFBFEFF00FD095
:104150001C4C371501400C1893E747001CCC8D47C9
:104160003EDA130505809307F00F2318F10202DCF5
:10417000EFC04FAE5C4837070240416693E7170037
:104180005CC81C477916F18F1CC72324070023261F
:10419000070023280700232A07005C4361763D06B9
:1041A00093E7F7005CC31C47F18F0D661306065AB0
:1041B000D18F1CC7B727014044C71386C74410CB13
:1041C000371600201306869350CB14479387074079
:1041D00093E6160014C75844D176FD1613670720DE
:1041E00058C458441377F7DF58C45840758FB166E8
:1041F000558F58C0184C1367072018CC36462647F1
:10420000D443518F3706F1E01306F6EFF18E558F48
:1042100013670710D8C39847B7F6F1FF9386D67F88
:10422000758FB7060E008906558F98C7D857B70601
:1042300010FFFD16758FB7067000558FD8D79847B9
:10424000B70600FCFD161367170098C7D843758F93
:10425000D8C39847B72601401367870098C793874C
:1042600006409847218B65FF98471367470098C71A
:10427000372701409307074084479188E5FC230BCB
:10428000010025463727014083476101637FF60619
:10429000230B0100A54621468347610163FDF60A11
:1042A000231C0100231D0100230B0100954613066A
:1042B00000608347610163F1F61483476101638005
:1042C0000718B88483466101BC84834561010346B5
:1042D00061013347D702B3E7B7028607B3C7C70206
:1042E000BA97C207C183FC84034761019947954689
:1042F000998F93F7F70FA30BF1008347710163992F
:10430000071685679387078051AA930607409C4646
:1043100093E787009CC6930707409447A18AE5FE70
:10432000944793E6460094C7930607409C46918BBA
:10433000E5FFF446834761010C088607938707046D
:10434000AE972396D7FC83476101850793F7F70F54
:10435000230BF10015BFA30B010083477101637AA2
:10436000F60083476101850793F7F70F230BF100F0
:1043700025B703477101834771010C0806078507BC
:10438000860713070704938707042E97AE970357F2
:10439000C7FC83D7C7FC63F9E7048347710186072D
:1043A00093870704AE9783D7C7FCFC8483477101CA
:1043B000034771018507860793870704AE9783D566
:1043C000C7FC93171700938707041808BA9723961A
:1043D000B7FC83477101B8840C088507860793876B
:1043E0000704AE972396E7FC83477101850793F78F
:1043F000F70FA30BF10095B78347610118088907F0
:10440000860793870704BA9783D7C7FCE367F6EA62
:10441000834761010C08B8848907860793870704DE
:10442000AE9783D7C7FCBA97C207C183FC84834782
:104430006101850793F7F70F230BF1009DBD9307EB
:10444000004055B5834761011008B8858907860784
:1044500093870704B29783D7C7FCBA97C207C18373
:10446000FC8583476101850793F7F70F230BF10064
:1044700083476101E3F8F6FCB88583467101BC858A
:1044800083457101034671013347D702B3E7B70291
:104490008607B3C7C702BA97C207C183FC85BC842D
:1044A000B085A884AC858566130700409386068096
:1044B000B307F7403386C640098F8D8EC207420688
:1044C0004207C2064186C1874187C186B2973697A7
:1044D00009463367C702372301400D4E9D45994E6B
:1044E00015457D48B3C7C702BA97C207C18723A441
:1044F000F1928147B386C70313070340104BB3966D
:10450000D500D18E1386170014CB9376F60F63E295
:10451000DE02B388A702032F4703B316180193C620
:10452000F6FFB3F6E601B3971701D58F5CDBB287D0
:10453000D1B7B386A7028328070389163316D8009C
:104540001346F6FF33761601B396D700D18E14DBEF
:104550006384B7009D4779BF1C47B7065000130519
:10456000001093E707101CC71C4737240020D58F85
:104570001CC7EFC04FB4EFD01FFD37063200814596
:1045800013058493EFC04FCEEFC07FB71305800CA7
:10459000EFC06FB213062003814513058493EFC06B
:1045A000AFCCEFC0DFB51305800CEFC0CFB00D6608
:1045B00013060620814513058493EFC0EFCAEFC0B0
:1045C0001FB41305800CEFC00FAF13058493014691
:1045D0008145EFC06FC937240020EFC05FB2EFD034
:1045E0009FF6EFF0AF861309849591471145232676
:1045F000F900EF3080728327C9002320A900370714
:104600000020130484957D5563F4E700139527007B
:10461000EF30A0705C4448C0370700207D5563F43C
:10462000E70013952700EF30406F5844B70700406C
:1046300048C8F9177D5563E4E70013151700EF30FC
:10464000C06D5844B707004008C4F9177D5563E4AE
:10465000E70013151700EF30406C5C4408C83707BB
:1046600000207D5563F4E70013952700EF30E06AE2
:104670005C4408CC370700207D5563F4E7001395B0
:104680002700EF3080695C4448CC370700207D5517
:1046900063F4E70013952700EF3020685C4408D0EE
:1046A000370700207D5563F4E70013952700EF30AE
:1046B000C0665844B707004008D4F9177D5563E435
:1046C000E70013151700EF3040655844B707004066
:1046D00048D0F9177D5563E4E70013151700EF3054
:1046E000C0631C4C032BC401832B4402032C4400E5
:1046F000832C0400032D840014541050B70F0020A5
:10470000B7020020AD652D6F48D43EC60148014E6A
:10471000938F0F0093820201130940029309000C4A
:10472000130A900C854E93854507130F8F36914AD7
:10473000FD5D5C446345FE0481445C4463C8F41839
:104740008DC3EFD0CFBA1305C006EFE07FB42D457F
:10475000EFE06FE81305D006EFE09FB30145EFC02F
:10476000BFD84848032804008328040103234400D9
:104770008147584463CDE71861616FB0DFA33247CA
:10478000B387F4019C432697B3089B001CC3B387EF
:1047900054009C4323A0F80018439378F70F6369F3
:1047A00019038A08FA9883A80800137707703367FB
:1047B00017019358470093F8F80063FA1A098148E3
:1047C0003D8B3397EE00420723201601418311A849
:1047D0001373070C6314330163701A05232006005A
:1047E0002167B3880B012390E80013F7F70F636587
:1047F000E9060A077A97184393F70770D98F13D7FA
:1048000047003D8B63F0EA0C0147BD8BB397FE0078
:10481000C20798C2C18391A89373F7032D638A03DB
:10482000130383171E9303230300AD689388883610
:104830000A039A9883A80800137707701143336717
:1048400017019358470093F8F800E36A13F78A08B2
:10485000AE9883A80800ADB793F8070C63943801AD
:10486000637AEA0223A00600A167330705011EA3AD
:10487000B3079C0023A0B701B387CC0123800700B6
:10488000B3070D0123900700050E91061106910450
:10489000090845B513F3F703AD680A039388881731
:1048A0009A9883A808002D67130787368A084697C9
:1048B000184393F707709148D98F13D747003D8B62
:1048C000E3E4E8F40A072E97184381B78329C4016B
:1048D000139924008545CA9903A509008504EFB002
:1048E000BFF31C4C8545CA978843EFB0FFF203A580
:1048F00009008545EFE02F9D1C4C9545CA978843DC
:10490000EFE06F9C5C48CA9723A007003DB59396E3
:1049100027003306D50010423307F800133616007F
:1049200010A31397170046971A237D569375070215
:1049300081C993750701054681E509831376270030
:104940009A9690C2850735B5EFB23F83397119E168
:1049500001443DA08D47B289E3CCC7FEAE84EFD0C1
:104960000FA6030905002A84630C0900A9651146F6
:1049700093850578EF30B01401E923A004001104F9
:10498000228521616FB03F83AD651146938545CF88
:104990002285EF30D01209E585479CC0DCA0C5B761
:1049A000A9651546938545772285EF30501119E5A5
:1049B00085479CC0238204001504D9B793072002C1
:1049C000631EF9006C08130600022285EFD04F9594
:1049D0002A846C082685EFF0CFA95DB79307D00233
:1049E0006302F908930709FD25476370F70E9307E3
:1049F000B0056315F93003AC440099479CC06317B8
:104A00000C0283A7C1928D468507B3E7D7029306B0
:104A1000400A23A6F192B387D70237270020130755
:104A20008798BA9723A0070A3E8CDCC003070400CE
:104A30009307B005E31EF7F0296B0504130AD005B0
:104A40008D4B954A130B0B7F1309800283070400DB
:104A5000639A0718030704009307D005631AF72821
:104A6000050439BF0504230E21018547B7850004DD
:104A700001461305500413085006F9481303A00219
:104A8000B5150307040019CB634CE5066358E30032
:104A9000930657FDB3D6D500858A95EA1387070399
:104AA00014083697230E07FC99CB05476398E70651
:104AB0008347C101938757FD93F7D70FA1EBB72722
:104AC0000020114723AEE7E061B5814745B7794E35
:104AD000634CFE02130EE0026306C701137EF7FD6E
:104AE000631EAE0013860703130E01017296230E98
:104AF000E6FC8507368609A88546EDB7B286DDB7A0
:104B0000E31E07F9E3DAF8FE0504A5BF01EE680825
:104B1000EF30202389479CC0C8C09DB501E62547DA
:104B2000E357F7FE8307C1011307D0026389E70843
:104B30001307B002930DC1016394E700930DD101F7
:104B4000054A49A0638B6707938C07FD93F6FC0F1A
:104B500063E7DB0463950A02EA854A85EF40502F3C
:104B60002AC613958C016185EF504020B245EF4075
:104B7000C0392A89850D83870D00E9F72DA0A2454C
:104B80004E85EF40F02CAA8913958C016185EF507A
:104B9000E01DCE85EF40D02BAA854A85C9BF93F78B
:104BA000F7FDE39987FD8D479CC05285EF50001CAF
:104BB000CA85EF40F029C8C0E1B3854A65BF930DAF
:104BC000D1017D5A83A9C18783A74188814A1309EE
:104BD00000003EC403AD0188130BE002A54B130C8B
:104BE000500451BF2285EFC09FFD830705002A8432
:104BF000638E470F6808EFE05FFD22854E866C08E4
:104C0000A1332A846306050E83240C0A63C19B0822
:104C1000F247FD1763EDFA068A07DA979C4382870D
:104C20006808EFB03FCFB38724030947E29798C3E2
:104C3000C8C3850423209C0A99A86808EFB0BFCE9A
:104C4000B3872403E29723A07701C8C3DDB7B387F6
:104C50002403034701028546E29794C3D8A3D1BF3A
:104C6000B384240311477D460C10B3079C00A104B4
:104C700098C333059C00EF30206E03270C0AB3075E
:104C800027030507E297A38307022320EC0A228566
:104C9000EFC0FFF2830705001307C0022A84639464
:104CA000E7040505EFC0BFF1830705002A84E39FF1
:104CB00047D9B7270020094731B5338724038147F7
:104CC000629723205701F246639D5601825711A82F
:104CD0003387240399468147629714C37246E307DA
:104CE000D6FE5CC3B9B7E38347D7E1B7E31405D673
:104CF000B7270020094723AEE7E059B19307B00773
:104D0000E319F9FA2685EFE0DFEFAA85138619008B
:104D1000228519202A84ADB16309050EEFB24FC771
:104D20008D474111328463DCC700B7270020154747
:104D300023AEE7E081473E8541016FB0AFC8AE8446
:104D4000EFC0FFE7830605001307B00793071500C0
:104D5000E392E6FE1309D00793092002130AA00389
:104D60000504930AC0020387070009EB8386070046
:104D70001307D007639EE602850775BF3E85EFC027
:104D80001FE403070500AA87E30227FF6306370134
:104D9000B7270020094769BF2300010083070500EA
:104DA000E39837FF41468A85EFC09FD701E98147E5
:104DB000372700208946232ED7E0B5BFEFC03FE05C
:104DC00083070500E39647FD0505EFC05FDF2A8BEB
:104DD0008A852685EFE03FECAA8522865A85EFF08A
:104DE000BFB671D5EFC0BFDD03070500AA87631BFF
:104DF00057010505EFC0BFDC03070500AA87E314D0
:104E000027F779B7E30127F761B7B72700201547E0
:104E100023AEE7E081473E8582808307050099E362
:104E20006F106048EFB26FB5130101D49305B0075E
:104E3000EF3000502A846303053203A9C194630E46
:104E400009000325090085472300F9421C41DC477E
:104E500082972324A9422326B942EFE0FFDEEFE048
:104E6000BFDE83070400B72A002013894AC7B1E3D5
:104E700085472324F91A8549EFC06FA7A285130639
:104E800040060819EF30404D0419230A011001446F
:104E9000130AF00F930A20021309C005294BB54BE2
:104EA000254CFD4C83860400638A0624631E44134C
:104EB000B1A42285EFC0BFD0030705009307B00758
:104EC0006307F70089472324F91A894975B7014612
:104ED00093854AC7EFF05FE4894709C58347491ABC
:104EE00081E799472324F91A8329891AE39609F857
:104EF000A96B9385CB7D13854AC7EFE0DFD9814548
:104F0000EFB09FA32D6B93058B892A8413854AC725
:104F1000EFE07FD8AD65130A45009385C5891385F9
:104F20004AC7EFE05FD718419547CA896317F70072
:104F30008329450063930900CA892D699305498A2D
:104F40005285EF30403A63180524EFE0FFCF938598
:104F5000CB7D13854AC7EFE01FD4894440C104C10B
:104F600093058B8913854AC7EFE0FFD29305498AE1
:104F7000EFE03FD029649305047E13854AC7EFE034
:104F80009FD18547AD651CC15CA19385C58A1385FA
:104F90004AC7EFE05FD09305047EEFE09FCDAD659B
:104FA0009385458B13854AC7EFE0FFCEEFE07FC5C1
:104FB000AD659385058C2A84EFE0FFCDAD659385C3
:104FC000858CEFE01FCBAD659385458D2285EFE0A5
:104FD0009FCC03A7019883A7419804C158C1EFE073
:104FE000FFADADAA1304E00F93F7F60F63965703D6
:104FF0009307140063844705130704279408369722
:1050000093870727230C27E5B6970904238C57E5D8
:10501000850449BD1304E00F13871400639427052A
:10502000930714006393470383060700BA8499CA61
:1050300093F7F60F13072002E39EE7FC8386140024
:105040008504CDF21304E00F55A813070427940834
:10505000369793870727230C27E5B6970904238CF7
:1050600027E57DB76395670393071400E38E47FB3D
:10507000130704279408369793870727230C27E5FF
:105080000904B6971307E006238CE7E451B763954C
:105090007703930714009306F00FE387D7F81307FD
:1050A00004279408369793870727230C27E50904DC
:1050B000B69713072007C9BF6395870393071400AA
:1050C0009306F00FE382D7F6130704279408369768
:1050D00093870727230C27E50904B6971307400792
:1050E00065B763EEFC08930754001306E00F637B7B
:1050F000F60683060700BA84E39806EE93070427B2
:1051000098083384E700230C04E49D4763E13709E2
:105110002D671307870293972900BA9798432D6646
:10512000B7240020340A1306468593050010138522
:1051300044B7EF50E04303A4C19301E403A4819476
:1051400011CC138544B7EF3020201C401316050105
:1051500041829C4F938544B7228582971301012C8D
:105160006FB06F853C0A2D6693050010818D3385E5
:1051700087001306C684EF50A03F190451BD930762
:1051800004279808BA97238CD7E4050451B52D67F6
:105190001307878069B7AD659385C58D5285EF305C
:1051A00080142A896310055283A7C194C5DBEFB030
:1051B0001FF4372A00202D668565A2861306468EC9
:1051C0009385058013050AE2EF50803A83AAC194C3
:1051D0002A8D5685EFB01F8783A7C183AADC130AE7
:1051E0000AE2BED683A74184BED883A70184BEDA73
:1051F00093070009B307F9021D47D69783A7470A0B
:10520000FD17636EF7162D678A0713078704BA9791
:105210009C43131B4900569B83298B31B655BED442
:10522000939B190093DB1B005E85EF30A072631C1B
:105230000514B6555E85EF4040386346A014C65548
:105240004E85EF4080376343A014D6554E85EF302E
:10525000E066634F05124E85EF403026AA8BEF4083
:10526000F030AA854E85EF40606C83A58184EF40C5
:10527000203EEF4090249357F541035CCB31B3CCF3
:10528000A700B38CFC409307803E3357FC02337C6D
:10529000FC0293172900D69703ABC700BADE5A85E4
:1052A000EF40B0212AC1EF40702CAA855A85EF400B
:1052B000E06783A54189EF40A039EF401020935764
:1052C000F54133C6A7001D8E32C332C59307F07770
:1052D00063C6A711930500004E85EF30205E1A4685
:1052E000635A050A63980B0AA9679387C7776657BD
:1052F00085659385058033572741058B3305AA01C2
:10530000B385A54141CF2D67130747CF1308000987
:1053100033080903569803488811630508082D6867
:10532000130848CF93080009B3081903D69883C817
:105330009812638D0806AD68938848CF8A463EC0B0
:10534000A65736CAF65632CC2D6636C662C866C433
:105350005EC2CA8613060691EF508021635CA004EA
:105360002A9D9307F07F63D7A7052D66AD651306C9
:1053700006999385459A2285EFE07F9AC5B3AD677C
:105380009387878179B593090000F1B5C659E1B5D6
:10539000D659D1B5AD67938707F291BF2967130737
:1053A0004777ADB7296813084877ADBFA9689388D8
:1053B000487769B7050991476302F90285652D664B
:1053C00093850580B385A5413305AA011306469B45
:1053D000EF50001A2A9D83AAC19419BD03A4C19459
:1053E000B70A0080FD1A5C4CB3F457012685BED481
:1053F000EF40B00CAADAEF407017AA852685EF407F
:10540000E05283A54189EF40A024EF40100B832C8C
:105410000402AADCB3F45C012685EF40100AAADE80
:10542000EF40D014AA852685EF40405083A501881F
:10543000EF400022EF40700804542AC133F95401B0
:105440004A85EF4090072AC3EF405012AA854A854B
:10545000EF40C04D83A54189EF40801FEF40F0052C
:105460000329C4022AC5B37B59015E85EF40F004CD
:105470002AC7EF40B00FAA855E85EF40204B83A579
:105480004189EF40E01CEF405003032C04032AC97C
:10549000337B5C015A85EF4050022ACBEF40100D60
:1054A000AA855A85EF40804883A50188EF40401ABD
:1054B000EF40B000832B84032ACD33FB5B015A8578
:1054C000EF40A07F2ACFEF40700AAA855A85EF40AF
:1054D000E04583A58184EF40A017EF40007E032BB9
:1054E00044022AD1B37A5B015685EF40007D2AD36E
:1054F000EF40D007AA855685EF40404383A5018839
:10550000856A938A0A80EF40A014EF40007BB307BE
:10551000AA013ED5B387AA413ED7A657AA8D9305C7
:1055200000003E85EF30803963520516A967138A63
:10553000C777930500006685EF304038635C05143B
:10554000A967938CC777930500002685EF30003755
:1055500063560514A9649384C477930500004A85B3
:10556000EF30C0356350051429691309C9779305D5
:1055700000006285EF308034635A0512296C130CE9
:10558000CC77930500005E85832A4403EF30003317
:1055900063520512A96B938BCB77930500005A8554
:1055A000EF30C031635C0510A967138BC7775C5C73
:1055B0002844BED43C40BED67C402944BED8EF40EF
:1055C000C06F83A50188AACE4655EF406008EF4022
:1055D000C06E33658502AACC4655EF40006E83A5A8
:1055E0000188AACA3655EF40A006EF40006D33652A
:1055F0008502AAC83655EF40406C83A50188AAC62B
:105600002655EF40E004EF40406B33658502AAC4A5
:105610002655EF40806A9A57AAC2EEC03EDE8A57EE
:105620005ADC2D663EDAFA476688D2863ED85ED6C8
:10563000EA475657F6583ED2DA47BA552A553ED071
:10564000CA4762CE4AC83ECCBA4726C21306869BDA
:105650003ECAAA4756D43EC69A473EC48A473EC071
:10566000E657EF40F070AA8703A5C19309E503A5AB
:105670008194E30505AE3306FD001C414206B725C3
:1056800000209C4F4182938505E2C1BCAD67138A1F
:1056900007F245B5AD67938C07F275B5AD64938499
:1056A00004F265BD2D69130909F2D1B52D6C130CF7
:1056B0000CF2C1BDAD6B938B0BF2C5B5AD67138B0F
:1056C00007F2F5B52D6C93058CA95285EF20B041FA
:1056D0002A8971E183A4C194E38204A8EFE0CFD6C4
:1056E0009385CB7D13854AC7EFE0EFDA89471CC16C
:1056F00040C193058B8913854AC7EFE0CFD9930545
:105700008CA9EFE00FD7A9659385057E13854AC75D
:10571000EFE06FD885471CC15CA12685EFB08FB242
:10572000AD65938585822A8413854AC7EFE0AFD69D
:1057300099471CC183A7C1928D461306400A85076D
:10574000B3E7D702B7260020938586988D481303C8
:105750008002094E114823A6F192B387C70213872E
:1057600086983E972320070A58C10326070A63CF6D
:10577000C800B30666023355244105890506232077
:10578000C70ABE96AE9623A0C601C8C20509E31E8D
:1057900009FD6FF0DF84AD65938545AA5285EF2042
:1057A0009034631105141306801ACE85280AEFA0E1
:1057B0007F9A03A9C194E303099AAD6A9385CAAAA3
:1057C000280AEFE04FCD184191476309F7002D6695
:1057D000130646ABAD65938545AD71BEAD69938546
:1057E00009AE280AEFE02FCB1C41054BF917E36007
:1057F000FBFE2D6A93058AAE280AEFE0CFC91C4153
:10580000F917E366FBFC9385CAAA280AEFE0AFC844
:105810003D46930545000819EF201034938509AEE5
:10582000280AA30F010AEFE00FC7EFB0CF8F93054F
:105830008AAEAA89280AEFE00FC6EFB0CF8EAD6519
:105840002A8A938505AF0819EFA09F8F35E10329B8
:1058500089358D4763E12709370B00809307FBFFEC
:10586000930500004E8583AAC194337AFA00EF3085
:10587000D05463540500334A4B01930700093309A0
:10588000F902860993D919009D45B3872A011309A6
:10589000090A23A2471123A4371133852A01EFB047
:1058A000CF952D66130646B0AD65938545B149A0E9
:1058B000AD65938585AF0819EFA09F8809CD830753
:1058C000010B2547938707FD6367F7000819EF2051
:1058D00040472A89BDBF2D66AD651306C6B19385C5
:1058E00045B351BCAD65938505B45285EF20B01F1B
:1058F00029E583A4C194E38304861389040A938968
:10590000C435138A042E230C09064A858145EFB05D
:10591000CF8E1309090923A009009109E3152AFF75
:105920002D66AD652380042E130686B49385C5B518
:105930002285EFE0CFC46FF07F82AD65938545B6D9
:105940005285EF20501A25E11306801ACE85280AC9
:10595000EFA05F8083A4C194E38204802D69930546
:105960008982280AEFE02FB31C410547F9176376B7
:10597000F7002D66130606B7B1BD93058982280A84
:10598000EFE06FB1EFA01FF98D4763F9A7002D6617
:10599000130606B8AD65938545B9F1BA23ACA434B6
:1059A0000146814571B7AD65938505BA5285EF20F3
:1059B00090136317051003A9C194630109FAAD653B
:1059C000938585824E85EFE00FADFD55EFA0DFF6A4
:1059D0002D6A93050ABBAA844E85EFE0EFCB9305B1
:1059E0000ABB19E9AD6A93858ABB4E85EFE0CFCA41
:1059F0002A8A35C593858ABB4E85EFE0CFA9034A35
:105A00004500AD6A93850ABC4E85EFE0EFC89385EB
:105A10000ABC19E92D6B9305CBBC4E85EFE0CFC7CF
:105A2000AA8A29C99305CBBC4E85EFE0CFA6834A4D
:105A3000450063D304089304090A1309092E238C33
:105A40004407A3845409954563130A0091452685AC
:105A500093840409EFA07FFAE31399FE91B78D4771
:105A6000E3E197FA93070009B387F402CA9703CAE0
:105A7000871141BF8D4763EE970293070009B387F3
:105A8000F402CA9783CA971293070009B384F402F9
:105A90009545B3079900238C47119384040AA38486
:105AA00057133305990063130A009145EFA0FFF4E3
:105AB000C5BDE3D704EE41B78D47E3D797FCCDB51D
:105AC000AD65938585BD5285EF20F00109C9AD65AF
:105AD000938505BF5285EF2010016317051683A437
