:100000006F80A01C1300000013000000130000000C
:100010001300000013000000130000001300000094
:100020001300000013000000130000001300000084
:08003000130000007300100032
:100038000000000000000000B2690000B66900007E
:1000480000000000BA690000000000000000000085
:10005800B869000066810000000000000000000090
:100068006C680000000000006A81000000000000C9
:100078006C8100006E8100007081000072810000B8
:10008800748100007681000096680000AC6800006A
:10009800C2680000D8680000EE6800008281000095
:1000A8008481000086810000888100008A81000028
:1000B8008C8100008E8100009081000092810000F8
:1000C8009481000096810000988100000469000076
:1000D8009C810000A8670000A0810000BC670000A8
:1000E800D0670000F66700001C680000AA810000C5
:1000F800AC810000AE810000B0810000B281000038
:10010800B4810000FA7E0000B8810000687F00001A
:1001180044690000BE810000C0810000C281000067
:10012800C4810000C6810000C881000000000000F2
:080138000000000000000000BF
:1001400010219421050585056313D60075FA330542
:10015000D64082802A8309CA838305002300730066
:100160007D16050385056DFA82802A8311C623005A
:10017000B3007D16050365FE8280397101436EC6AA
:1001800019A0397141536AC866CA62CC5ECE19A003
:10019000397101535AD056D252D44ED64AD826DAA3
:1001A00022DC06DE33016140828241114AC026C250
:1001B00022C406C68282B24D4101024D924C224CAD
:1001C000B24B4101024B924A224AB24941010249D3
:1001D00092442244B2404101828001458280828063
:1001E0007D5582800347C503B7370020938787E595
:1001F0000A07BA979C4398431E2393F7070289C7BF
:100200004A231375F50F82807D558280EFF2FFF946
:100210001C414111CC87DC439305F10005468297D0
:10022000410175B737370140130707C0AA87630B31
:10023000E5023707004005456387E70213070740DB
:1002400009456382E70237170040930607800D4592
:10025000638BD700130707C011456386E70041652C
:100260007D15828001458280EFF23FF403A701995A
:1002700083A741992A8458C51C402285DC4B82976C
:10028000635D050083A601995C4403A74199338708
:10029000F6401C44E362F7FE7D5515BFEFF25FEFB9
:1002A0002A89AE89B284014463149400228519BF5F
:1002B0004A855D3FE34C05FEB387890088A30504AA
:1002C000E5B7EFF2FFEC014495C2AA892E8A328984
:1002D000B68401444E85493F634A050063084501E1
:1002E000B307890088A30504E39684FE2285D9BD5F
:1002F000EFF21FEAB7F700E003A9019983A941993A
:100300009047D447411132C436C603AA019983AA43
:1003100041999047D44732C2984BDC4B13061700E3
:10032000B336E600BE96631449016389590312454A
:100330001304803E3305A640B337A600B387F640CA
:10034000B307F402B335A4023305A402BE95330407
:100350004403EF80305A22954101ADB5A24732489F
:100360001304803E3305F6403337A600B3870641B9
:10037000998FB307F402B335A4023305A402BE95E6
:1003800033042403EF801057F9B781470547631AF8
:10039000E50031678E07130707B3BA97DC4399C7A7
:1003A00082878507058193F7F70FD5B78280B72736
:1003B0000240C847058911E5C84741891335150032
:1003C0000D058280EFF27FDE2A848544CD376318E5
:1003D000950019E0154529A0D93F7D14CDBF7DD8E2
:1003E000FDB39C4513F7070113F8F70001C7D84187
:1003F0003368E80037270240145B3707000F758F1A
:1004000045EB85462384D198371701406315E500F5
:100410009A2135839AA18E2113F7F50F31C3184124
:100420008146054E930E80023D4F930F8004214379
:100430003316DE00B3F8C500631016036392D709C4
:1004400050C913962600B318CF0093C8F8FF33F7AE
:10045000E8003316C800518F8506E39B66FC18C17F
:100460001307F00F6375B70454410146054E930E10
:100470008002130F80042143130786003317EE0018
:10048000B3F8E500631117036390D70558C99318B3
:1004900026003D47331717011347F7FFF98EB318AE
:1004A0001801B3E6D8000506E31866FC54C1828043
:1004B00037170140E311E5F603C7819829DF89BFAB
:1004C000E391F7F910C9B5BFE393E7FD18C9C1B7C8
:1004D0003707300013560501931605013378E50000
:1004E0003D8AC182B707014063530502DC4F631C9C
:1004F000E80641060D473317C7001347F7FFF98F8A
:10050000BDCD558112053395A600C98F8DA8D8435E
:10051000B727024083A80703B707000FB3F71701F7
:1005200089EB93571700F9784E07B3F717014D83FE
:100530005D8FB70730006318F804370600F17D16A9
:1005400037080140B377C70003274800718F232283
:10055000E80091C5558112053395A600C98F37076C
:1005600001405CC3828037071000698F41F75581D5
:1005700012053395A6001347F5FFF98FD9F5370714
:1005800001405CCF8280B7071000E98F99CB8D477F
:10059000B397C70093C7F7FFF98F3707000FD98FBD
:1005A0004DBF55811205B396A60093C7F6FFF98F8C
:1005B0003707000FD98FC5D5D58F55B71E213737CF
:1005C0000140130707C0C207C1836304E502370770
:1005D00000406300E50213070740630CE50037178E
:1005E0000040930607806306D500130707C0631613
:1005F000E500BA2193F7F7F8D98FFA2193F7F7CFEF
:10060000C207C183D98F1EA1DE215EB59E211EB512
:10061000B7370140938707C06314F5009C251EB9C6
:1006200085475EA982801E294A25ED8F42054181BA
:1006300089C76D8D3335A0008280014582801629DF
:10064000F577FD17FD8EFE21DA25D58F1EA95625DB
:10065000FD779387379FFD8EDE21D58F9625D58F29
:10066000B625D58F5EA55E29A146C207C18393F743
:10067000F7CFD98F5EA9371702405C43B18B6398DF
:10068000D70E5C435843C166C983BD8B758F8907FC
:10069000C5466393D700C94701EF37470240032798
:1006A0000780418B09CF37177A001307072021A84D
:1006B000371702405843B7060200758F6DD73717BA
:1006C0003D0013070790B387E702371602405842F0
:1006D000B70600209386060511833D8B36971823B5
:1006E00033D7E7005C42A1839D8BB69703C8070010
:1006F0005C421378F80FAD839D8BBE969C225442CA
:10070000370600201306460CB9828D8AB2969422D1
:1007100093F7F70FB746014093860680B357F7006B
:100720006304D500B357070156256547B387E70231
:10073000C206C186984163D10604060793064006A7
:100740005225B3D7E7024206418633D7D702B3F723
:10075000D7021207635406028E0793872703B3D785
:10076000D7029D8BD98FC207C1831EA58280B71780
:100770007A009387072091BF0A07C9B7920793872A
:100780002703B3D7D702BD8BF1BFFD577D57631544
:10079000F50001458280B1059C41E38CE7FEE31C36
:1007A000F5FEC841828031679376F50F130640024B
:1007B0001307C7A5937705706364D6048A06369736
:1007C00018439146D98F13D747003D8B63E0E60469
:1007D000AD66938686760A073697144313F7F700BB
:1007E0008547B397E700C207C18337170140A1C10E
:1007F0006396E60003C7819811C3B5839CCA8280C3
:100800001376050C1308000C630606018DC9232816
:10081000000002901306900CE36AD6FEB1661375D1
:10082000F5030A059386C686AA96944241BF63964D
:10083000E60003C7819811C3B583DCCA8280232AEE
:100840000000C1BF03A7019983A74199BA8603A7F6
:10085000019983A74199158FE36BA7FE828082805F
:10086000EFF2BF9423AEB1944CC110C554C523AC74
:10087000C19423AAD19411CA1C42AD6532859C4F04
:100880001306E0029385C5B2829703A5419509C975
:100890001C41AD651306E0029C4F9385C5B282975B
:1008A0003DB2AA8798438D4748416314F7006F9083
:1008B000D0198280184189476315F70048416F902D
:1008C000F023484182801C410547F9176363F70014
:1008D000C9BF2E85828018419947AA866314F70004
:1008E000484105E999479CC203A701930D460507B6
:1008F0003367C7021306400A23A8E1923307C702F1
:10090000B7270020938747C43385E7002320050AD3
:10091000C8C28280EFF2DF872E894C412A844A8543
:10092000B289EF90E02BCE85EF90802B4C44EF8086
:10093000D036832AC40148C42A8AD685EF90E020A5
:100940006357A006232654010C404A85EF904029A6
:100950004C44EF809034AA84930500004E85EF90BC
:10096000E01805C10C484A85EF9040550C44EF90C3
:100970002027CE85EF80F068AA852685EF80F031AC
:10098000AA8483294401A6854E85EF80204C6343C9
:100990000500A689044CCE852685EF90001B634395
:1009A000A000CE842328240126856FF0BF81B704E0
:1009B0000080B3C45401A6855285EF802049E355D9
:1009C00005F844C451B75C41638BB700930700003E
:1009D0004CC11CD15CD17CD13CD52326050682803C
:1009E0008347054B8DE3EFF24FFC85472A842308AC
:1009F000F54A08411C41DC478297232CA44A232E48
:100A0000B44A6FF0CFFC8280032685128326C5127C
:100A1000032705139307451A1305453C930500006A
:100A200090C3D4C398C7CCC78CCB93878708E39770
:100A3000A7FE8280930785430147014505469146FD
:100A40008C4391C5B315E6004D8D420541810507E4
:100A50009107E317D7FE82803E2163F2F5041C253F
:100A6000935606011357860085EF93F6F60F13771A
:100A7000F70F1376F60F03483501834805015C45EF
:100A8000639008050D48B3850503AE970C29BE9504
:100A900094A11439BE9698A23829BA9790A382805F
:100AA000B386F6021377F70F1376F60F3307F702C4
:100AB000A18693F6F60F3306F6022183218265BFE5
:100AC0008A05AE973E9823000800C9B7EFF2EFED14
:100AD0002A849304B012EFF0BF815C486374F50080
:100AE00048C8D5BF1D8DE3F8A4FE996773900780B1
:100AF0001C206388072C5C444E20144C504C8823E7
:100B0000BE9513871700930700083378F50090CA45
:100B1000630108160100010001000100010001004D
:100B200001000100010001000100010001000100BD
:100B300001000100010001000100010001000100AD
:100B4000010001000100010001000100010001009D
:100B5000010001000100010001000100010001008D
:100B6000010001000100010001000100010001007D
:100B7000010001000100010001000100010001006D
:100B8000010001000100010001000100010001005D
:100B9000010001000100010001000100010001004D
:100BA000010001000100010001000100010001003D
:100BB000010001000100010001000100010001002D
:100BC000010001000100010001000100010001001D
:100BD000010001000100010001000100010001000D
:100BE00001000100010001000100010001000100FD
:100BF00001000100D0CA0100010001000100010054
:100C000001000100010001000100010001000100DC
:100C100001000100010001000100010001000100CC
:100C200001000100010001000100010001000100BC
:100C300001000100010001000100010001000100AC
:100C4000010001000100010001000100010001009C
:100C5000010001000100010001000100010001008C
:100C60000100010001000100858363870714010072
:100C700069BD010001000100010001000100010047
:100C8000010001000100010001000100010001005C
:100C9000010001000100010001000100010001004C
:100CA000010001000100010001000100010001003C
:100CB000010001000100010001000100010001002C
:100CC000010001000100010001000100010001001C
:100CD0000100010001000100010001000100D0CA73
:100CE00001000100010001000100010001000100FC
:100CF00001000100010001000100010001000100EC
:100D000001000100010001000100010001000100DB
:100D100001000100010001000100010001000100CB
:100D200001000100010001000100010001000100BB
:100D300001000100010001000100010001000100AB
:100D4000010001000100010001000100010001009B
:100D5000010001000100010001000100010001008B
:100D6000010001000100010001000100010001007B
:100D7000010001000100010001000100010001006B
:100D8000010001000100010001000100010001005B
:100D9000010001000100010001000100010001004B
:100DA000010001000100010001000100010001003B
:100DB0000100010001004DBD6375B7000823050760
:100DC00099B399679387870873900780EFF04FD2A4
:100DD00048C86FF0CFBF014582808280EFF2EFBC40
:100DE000EFF00FD181456FF08FBE99C12E8599BC70
:100DF0008280AD67373700409387A7AA1CC38280E3
:100E00008D4763E4B7003306C04093F5F50F635494
:100E1000C00293160601C182814709476382E50437
:100E20006368B70237170040130707809DE556BF78
:100E30002310F704828001CA3306C04093170601CD
:100E4000C1838146D9BF9307803E9306803EF1B7A8
:100E50000D47E391E5FE3707004056BB1EBF828079
:100E600037070040231AD742231CF7428280EFF253
:100E7000CFB393F7F50F0D456363F50293F5F50FC7
:100E8000A2063725002093975500558F420613057B
:100E9000858C598E81453E95C1366FF04FB3914593
:100EA000E39DB7FEA206558F420637250020598ED6
:100EB000814513058594CDB7EFF22FAFB7F700E06A
:100EC0009047D447411132C436C6984BDC4B7D1550
:100ED00013041700B334E400BE94B385A4021306D0
:100EE000803E8146B337850233058502BE95EF808B
:100EF00060202247B24701463AC03EC20148B7F8D7
:100F000000E003A7880083A7C8003AC43EC6024792
:100F100092472243B24363E5F3046394770063612D
:100F2000E3042243B243024E924E3307C341B33629
:100F3000E300B387D341958F3297B336C700C2978A
:100F40003A8622473388F600B2473AC03EC2E36A87
:100F5000B8FA63940501E366A6FA41016FF02FA782
:100F6000024E924E2243B307C441B2433337F400DA
:100F7000B386D441998E33876700B337F7009E96C6
:100F8000B6975DBFEFF2CFA003A7019983A7419960
:100F90002A84BA849309700C1C402285DC53829702
:100FA00019CD83A6019903A74199B387964063E8B9
:100FB000F60063E6F90013054006FD3DF1BF6FF052
:100FC0006FA003A5C19401E503A5819511C15DBF83
:100FD0008280EFF28F9D3725002093078594DC47B0
:100FE00081C713058594DD34372400201304848CD5
:100FF000930404085C4499C32285C93C1304040289
:10100000E31A94FE6FF0AF9CE9B7828083A78196C4
:1010100085C303D7874083D6A74005071377F73FDB
:101020006308D70083D68740BE9688A62394E740FE
:10103000828083A7C19085C303D7874083D6A7400A
:1010400005071377F73F6308D70083D68740BE961E
:1010500088A62394E7408280035685408356A540A6
:101060009317060113970601C18341833385E74037
:101070006375D60013850740198D42054181828032
:10108000035785408357A540630FF7008357A5405A
:10109000AA9798278357A540850793F7F73F23150D
:1010A000F5403A8582807D558280AA8781461395D6
:1010B000060141816378C50203D8874003D7A74062
:1010C0006302E80203D7A7403E9708273387D5007D
:1010D000850608A303D7A74005071377F73F239595
:1010E000E740F1B782808280054582805C419DEBBC
:1010F00083C7919213F5F70F8DE7B7070240138767
:101100004704FC43858B91C75C430545C207C183F7
:1011100089EBB747014003D507801D8113451500B2
:101120000589828083C7819213F5F70FFDFBB757BE
:101130000040D5B703A6019903A7819083A64199E2
:101140006377E60003A74190050723A2E19003A57A
:10115000019023A4C19083A54190518D8280D9BF75
:10116000EFF2AF81C13FB7070240D84703A6019213
:10117000420741832A84AE846308E60823A0E192F3
:1011800023AC819023AE919083A70191639987004E
:1011900083A7419163959700B3679400B5E303ADCE
:1011A000419283AB01833719002003AB41831309BC
:1011B000898C856A138A81FE930C0901938DFAFF4D
:1011C0004A870145B30659011E234107EA9763C7C1
:1011D0005707EE873E95E319D7FE2185EF90001261
:1011E000DE85EF80F01FDA85EF80901F2320AA00B4
:1011F0000909110AE31699FD23A8819023AA919069
:10120000138581FE6FE03FFB03A7819183A6C19107
:101210003307E5403336E500B386D5406396C60014
:1012200093064006E3F2E6F637270140130707402E
:10123000144737065000D18E14C799B7E3DC07F87E
:10124000814749BFEFE27FF62E84193FAA87130535
:10125000000081CF0D47B3058740939615001D47C9
:101260006365D7008E05AE9788436FE05FF6EFE2C7
:10127000DFF32E84F5352A8701450DC38D47818F15
:10128000860785079D4663EBF6008A073E9783A590
:1012900081830843EF80700B3325A0006FE03FF39C
:1012A000EFE2BFF02E846D3D2A871305000019CBB5
:1012B0008D47818F860785079D4663E5F6008A077F
:1012C0003E9708436FE0BFF05C4114419C43984255
:1012D000FD176379F7001C45130617009C4390C265
:1012E000BA978CA3828081ED82801C45130617007B
:1012F00085059C4390C28386F5FFBA9794A38387A4
:10130000050081CB5C4114419C439842FD17E36E7C
:10131000F7FC82808327050A63D5F50293078002D4
:10132000B385F5028946B307B50098436314D70027
:10133000C84382808D4601456317D700C8436F803C
:10134000D0700145828082805C4114419C43984268
:10135000FD176379F7001C45130617009C4390C2E4
:10136000BA978CA382808387050081CB5C411441AE
:101370009C439842FD176363F70082801C45130667
:10138000170085059C4390C28386F5FFBA9794A306
:10139000D9BF5C4114419C439842FD176379F70023
:1013A0001C45130617009C4390C2BA978CA38280F9
:1013B0008387050081CB5C4114419C439842FD1713
:1013C0006363F70082801C451306170085059C4364
:1013D00090C28386F5FFBA9794A3D9BFEFE2FFD9F5
:1013E000B72700201387879659714047444B832BBA
:1013F0004702032C07022AC6014793878796634A50
:10140000872283AAC70203AB870283AD0701214D60
:1014100037F900E0A549032789008327C90013068F
:10142000803E3AC83ECA0327090183274901814605
:10143000130A1700B33CEA00BE9CB3859903B3B707
:10144000490333854903BE95EF70D04A4247D247DE
:10145000AA883ACC3ECE014501480327890083275C
:10146000C9003AC83ECA6247F2474246D24663E1E3
:10147000F61E6394D700636DE61C424ED24E624660
:10148000F2463303CE4033376E003386DE409A8710
:10149000198EAA9733B7A70042963308C700424770
:1014A0003E85D2473ACC3ECEE369B8FA6394050153
:1014B000E36515FB814763C1871C032789008327E8
:1014C000C9001306803E3AD03ED203270901832784
:1014D00049018146130A1700B33CEA00BE9CB3855C
:1014E0009903B3B7490333854903BE95EF70904024
:1014F00002579257AA883AD43ED60145014803279D
:1015000089008327C9003AD03ED22257B2570256EB
:10151000925663E2F6186394D700636EE616025E95
:10152000925E2256B2563303CE4033376E00338676
:10153000DE409A87198EAA9733B7A70042963308E0
:10154000C70002573E8592573AD43ED6E369B8FAAF
:1015500063940501E36515FBEE8601476341871639
:10156000814763C487187D1DE3170DEAB7F700E0D4
:101570009047D447254532D836DA984BDC4B1306D2
:10158000803E13091700B339E900BE99B30535034E
:101590008146B337250333052503BE95EF7090359B
:1015A0004257D2572A833ADC3EDE0147814737F55E
:1015B00000E01045544532D836DA6256F2564258A9
:1015C000D25863E3D81463941601636FC812C25EE5
:1015D000525F6258F258338E0E4133B6CE01330853
:1015E0001F41F2863308C840BE9633B6F6003A98DB
:1015F000330706014256B687D25632DC36DEE36A3E
:10160000B7FA6394E500E3E667FAB24763950732F9
:1016100063D0871413972700B386E400944281EACD
:1016200062971443139717005E971A2398CA850789
:10163000C5B7931627003386D400104201EAE2961C
:10164000904293161700DE96962214CA050745BBF2
:101650006246F246424EB307CA40D24E3333FA00D6
:10166000B386DC403387C701B38666403336F70064
:10167000F696BA87369631BD13972700B386E400F5
:10168000944281EA5A9714431397170056971A23E6
:1016900098CA85070DB52256B256025EB307CA40F6
:1016A000925E3333FA00B386DC403387C701B386DA
:1016B00066403336F700F696BA873696ADBD9E2261
:1016C00013162700629610428607C2070C46C18394
:1016D000131617009EA25E9612226D8E01C693E726
:1016E00017009EA20507890695BD13972700B386AC
:1016F000E400944281EA5A971443139717005697CF
:101700001A23D8CA8507B1BD6258F258C25EB30623
:101710000941525F333ED900B38819413386D6015F
:10172000B388C8413338D600FA98B28646986DBD62
:1017300013972700B386E400944281EA629714432A
:10174000139717005E971A23D8CA8507E3C287FE4E
:10175000B7F700E09047D4472545B2C0B6C2984BD2
:10176000DC4B1306803E13091700B339E900BE991C
:10177000B30535038146B337250333052503BE95ED
:10178000EF705017064796470146BAC4BEC6814E51
:1017900037FE00E003278E008327CE00BAC0BEC20A
:1017A0002647B6470648964863E9F8186394170138
:1017B0006365E818064896482643B64333076840F1
:1017C000B336E800B3877840958F3297B336C700B9
:1017D000F6973A860647B38EF6009647BAC4BEC659
:1017E000E3EABEFA6394D501E366A6FA814763C8CB
:1017F0008716B7F700E09047D4472545B2C8B6CA68
:10180000984BDC4B1306803E13091700B339E900EF
:10181000BE99B30535038146B33725033305250348
:10182000BE95EF70300D4647D6470146BACCBECEC6
:10183000814E37FE00E003278E008327CE00BAC812
:10184000BECA6647F6474648D64863E9F81263942D
:1018500017016365E8124648D6486643F6433307E6
:101860006840B336E800B3877840958F3297B33637
:10187000C700F6973A864647B38EF600D647BACCED
:10188000BECEE3EABEFA6394D501E366A6FA8147C9
:1018900063C88710B7F700E09047D4472545B2D01A
:1018A000B6D2984BDC4B1306803E13041700B334BA
:1018B000E400BE94B30595028146B3378502330533
:1018C0008502BE95EF701003065796570146BAD4AD
:1018D000BED60148B7F800E003A7880083A7C80078
:1018E000BAD0BED22657B6570653965363E9F30CC7
:1018F000639477006365E30C06539653265EB65EE9
:101900003307C341B336E300B387D341958F329792
:10191000B336C700C2973A8606573388F600965703
:10192000BAD4BED6E36AB8FA63940501E366A6FAB0
:1019300065616FE05F88814711BD2643B643064865
:10194000B307694096483337F900B3867940998EDA
:1019500033870701B337F700C696B697BDB513971F
:101960002700B386E400944281EA5A971443139700
:10197000170056971A2398CA850795BD6643F64304
:101980004648B3076940D6483337F900B3867940F3
:10199000998E33870701B337F700C696B697F9B526
:1019A00013972700B386E400944281EA5A971443C0
:1019B0001397170056971A23D8CA8507D1BD265EFC
:1019C000B65E0653B307C44196533337F400B3866B
:1019D000D441998E33876700B337F7009E96B69748
:1019E0003DB73727002093078796D04B8C4B1307C2
:1019F00087968147544763C3D70082809396270018
:101A0000B29623A0060093961700AE962390060088
:101A10008507CDB739C50307050093072002631278
:101A2000F70493071500014713032002130EC005A6
:101A30001308F6FF9308E006930E2007130F4007E4
:101A40008386070089CE1385170063956600636E51
:101A5000C70482806394C6058387170091EB8D4786
:101A600011A08947372700202320F7C40145828031
:101A7000637F07016380170363D7F800638ED70184
:101A80006393E701A547B386E5009CA2050793078A
:101A900015007DB7A947C5BFB547F5B73E85E378C3
:101AA00007FFB387E50094A3D5B7BA952380050057
:101AB000828019CD370780FFDD4631171C21DD17E5
:101AC00093F7F70F63E6F600B357F740858B91C3A2
:101AD00082800505E5B7EFE24FED04412A84854594
:101AE0002685EFE05FB419CDDE24858B81CF0325F9
:101AF000C4FF5C5D89C73C411305450382971C40C8
:101B000079579AAB6FE0AFECEFE22FEA00412A89F8
:101B10005E24898B91EB5E24918B99E75E24A18BE7
:101B200081E75E24C18B8DC789452285EFE0BFAF79
:101B300015C1F5571EA885448327C9FF8D0492045B
:101B4000138544003E95184501C7A6979C4B829784
:101B50006FE0EFE791452285EFE0FFAC09C5ED5757
:101B60001EA88944D1BFA1452285EFE0DFAB09C59E
:101B7000DD571EA88D44C9B7C1452285EFE0BFAA35
:101B800045DDBD571EA8914445BFEFE20FE241116C
:101B900002C202C402C6FD576313F50001A0137709
:101BA000F500B1670A07938707AFBA97118103A9B8
:101BB00007003D899147AE84014463ECA702AD67FD
:101BC0009387C7B50A053E951C41371702408287A7
:101BD0001C4F3714014093E747001CCF13040480C7
:101BE00009A81C4F37140140130404C093E7870071
:101BF0001CCF93D7844093F7F7076387071EB71668
:101C00000240984EFD171367170098CE1307F00493
:101C1000636CF71C2D678A07130707B7BA979C43B5
:101C200082871C4F3714014093E707011CCFD1B7BF
:101C30001C4F371401401304044093E707021CCFE4
:101C40004DBF1C4F3724014093E707041CCF79B7E1
:101C500085450545EFE0DF8741AA8145DDBF854524
:101C60000945CDBF8145EDBF85451145E5B78145A6
:101C7000EDBF85452145F9BF8145EDBF8545370558
:101C8000140013050503F9B7854537051400410510
:101C9000D1B78145EDB78545370516001305050C0D
:101CA00055BF8545370516001305050465B7814501
:101CB000E5B78545370518001305053061BF854533
:101CC000370518001305052071B78545370518003D
:101CD0001305051041B78145F1BF854537151A0039
:101CE000130505C085BF37151A0085451305058006
:101CF00095B78145E5B785450565A9BF8145EDBF28
:101D0000854537451D00B9B7854537651D0099B72D
:101D10008145E5BF8545216535BF8145EDBF8545D9
:101D20003705200005053DB78145DDBF85453705F1
:101D300020001305050239BF8145D5BF854537050C
:101D400020009DB78145E5BF854537052000130577
:101D5000050809B78145D5BF854537052000090528
:101D6000D5BD8145DDBF8545370520001105DDB5B1
:101D70008145DDBF8545370520002105E1BD814551
:101D8000DDBF85453705200019B78145E5BF85458D
:101D90003705300035BF85453705300025B7854507
:101DA000370530001305054075B58545371520000A
:101DB00055B58145E5BF81453725200061BD854585
:101DC000E5BF85453745200071B58145E5BF8545AF
:101DD0003705008061BF8545370513804DBD370746
:101DE00001405C4F9D9B5CCF93D7244013F7340098
:101DF0008D8B65CB3AC409476381E70E0D4763803D
:101E0000E70E05476389E70CC1473EC6D5A0854567
:101E10003705158051BD85453705158019BF370732
:101E200001405C4F93F7F7F97DBF8545370500808A
:101E300095BF8545370530801DB78545370530800E
:101E4000D5B5B7060140DC4E3707FDFF7D17F98F8A
:101E5000DCCE59BF85453705328005B78545370546
:101E6000328029B7B7060140DC4E3707F4FFF9BFCF
:101E700085453705348075BD85453705348001BDFE
:101E8000B7060140DC4E3707D0FFC9B78545370597
:101E9000368075BD85453705368039B5B7060140B2
:101EA000DC4E370740FF5DB785453705388019BDE3
:101EB00085453705388029BDB7060140DC4E370718
:101EC00000FD69B7854537052080E9BDB7070140AA
:101ED000D84FD8CF11BFD1470DBFE1473DB7F1472C
:101EE0002DB70547638FE7008946638ED70095E3DA
:101EF0004C00228523122101EFE0AFCE41016FE0BB
:101F00000FAD914719B791848D8893078004E38EB4
:101F1000E4EE93078002D5BDFD577D576318F500A9
:101F200082806314F5008C458DB1B1059C41E39A24
:101F3000E7FE01A0EFE26FA483A701990111370426
:101F4000002003A841993EC49307040203C7C702B7
:101F50002ACA42C68D47AE891304040263E3E7042C
:101F60008347C40237370020930687E58A07B69770
:101F700090431305703E834786028A07BE969C42B3
:101F8000930687E503A807008357080093F7070423
:101F9000638A072C01476395E92E4E8505616FE042
:101FA0008FA1316A9305CA9F2545EFE00FFE630EAE
:101FB0000520373900208144114D130989E5230696
:101FC00094026395A4099305CA9F2545EFE0EFFBB2
:101FD000630D051EA5479305CA9F25451CCCEFE060
:101FE000CFFA0328C401B16D9385CD99AA844285A7
:101FF00042CEEFE08FF9832B0402316D93050D96ED
:10200000AA8A5E85EFE06FF85050B16C2A899385FB
:102010004C92328532CCEFE04FF72A8B6387041A5B
:102020007248FD556246630EB80663800A1A6383E0
:10203000BB04630C09186313B60A639A541B638AC2
:1020400024196303090463130B0AB5AA93972400A8
:10205000CA9783AC0700638B0C009305CA9F254584
:10206000EFE0AFF283A70C00E38CA7EE850493F4B6
:10207000F40FB1B7630F7601630905146396540733
:10208000638124156314090663179B1423206401DC
:102090008DA06386541563190914DA8404C0B1E86D
:1020A0002DA2638B0B0363020912630D0601630EFD
:1020B0000510E38754FDE3850AFC23202401631403
:1020C00069113DA06385541163830A106319A90E39
:1020D00023202401CA8431A86309760D63070B0EFF
:1020E000E38054FBE38E0AF8E31909FC2320640122
:1020F000DA84B746014093860680639ED40E371675
:102100000240144E9165CD8E14CE23060402930630
:10211000500314D49305CA9F2545FD3B63860A00EE
:10212000484C9385CD99CD3B014A6308090008507E
:1021300093050D96130A0010C53363080B00485031
:1021400093854C92136A0A20C13B0349C402B737F6
:102150000020938787E593162900B697B7060020DD
:1021600093864602044094C3F167938707201CC4FA
:10217000B7070C0044C0232604001CC8231A4401DE
:1021800063960A00DE2893E78700DEA8B7050020E3
:10219000938585022685EFE08FCADE240967D98FF3
:1021A000DEA48D47E3FE27DB0DA0E38A54E9E38834
:1021B0000AE8E30409EE23202401E30BA9F2CA8410
:1021C00019A8E30569F3232004008149F9B3E39CCE
:1021D00024E7E38D64F1E3180BFE04C019BFE3921A
:1021E00024E7E39EAAFCEDB5E31BA9FC01B7E318C5
:1021F000A9FCCA8465B5B746004093860640639F34
:10220000D40037160240544EB7050200CD8E54CE8E
:1022100085462306D40293066003E5BDB756004009
:1022200013860680639FC40037160240544EB705DC
:102230000400CD8E54CE89462306D4029306700343
:10224000C9BD938606C0E397D4EC37160240544EBE
:10225000B7050800CD8E54CE8D462306D4029306D2
:10226000D00345BD03A40199A24783A44199B305B6
:10227000F4403337B400E31A97F4E377B5D0B1B73D
:10228000834786028A07B6979C438C439E2193F727
:102290000704EDDFD2451C42BA958C210507CEA379
:1022A000DDB92E85B28579B1EFD23FF03714024007
:1022B0001C4C39713715014093E747001CCC8D4702
:1022C0003ED20C109307F00F130505802310F10286
:1022D00002D4EFE00F915C4837070240416693E774
:1022E00017005CC81C477916F18F1CC72324070010
:1022F0002326070023280700232A07005C43617672
:102300003D0693E7F7005CC31C47F18F0D6613068B
:10231000065AD18F1CC78567938707805CC7B7278C
:1023200001401386C74410CB371600201306868C55
:1023300050CB14479387074093E6160014C75844C0
:10234000D176FD161367072058C458441377F7DF7A
:1023500058C45840758FB166558F58C0184C1367D4
:10236000072018CC72566257D443518F3706F1E0DC
:102370001306F6EFF18E558F13670710D8C39847F1
:10238000B7F6F1FF9386D67F758FB7060E008906E4
:10239000558F98C7D857B70610FFFD16758FB7062B
:1023A0007000558FD8D79847B70600FCFD16136705
:1023B000170098C7D843758FD8C39847B7260140F0
:1023C0001367870098C7938706409847218B65FF5E
:1023D00098471367470098C737270140930707407E
:1023E0009C47918BE5FF23030100254637270140D9
:1023F0001C836376F60623030100A54621461C8351
:1024000063F1F60A231401002315010023030100E0
:102410009546130600601C8363F8F6101C836382E4
:102420000714388414833C840C8310833347D70209
:10243000B3E7B7028607B3C7C702BA97C207C1831B
:102440007C84188399479546998F93F7F70FDC831F
:102450009C83639D071285679387078091AA9306E3
:1024600007409C4693E787009CC693070740944724
:10247000A18AE5FE944793E6460094C79306074079
:102480009C46918BE5FFF4461C83860793870704DF
:102490008A972396D7FC1C83850793F7F70F5C83F5
:1024A00081BFA30301009C836378F6001C8385072A
:1024B00093F7F70F5C83A1B798839C830607850782
:1024C000860713070704938707040A978A97035719
:1024D000C7FC83D7C7FC63F3E7049C838607938715
:1024E00007048A9783D7C7FC7C849C8398838507DD
:1024F0008607938707048A9783D5C7FC931717002D
:10250000938707048A972396B7FC9C8338848507B2
:102510008607938707048A972396E7FC9C838507A1
:1025200093F7F70FDC8341B71C83890786079387EE
:1025300007048A9783D7C7FCE362F6EE1C833884CE
:1025400089078607938707048A9783D7C7FCBA97BA
:10255000C207C1837C841C83850793F7F70F5C83D4
:102560005DBD93070040E9BD1C8338858907860758
:10257000938707048A9783D7C7FCBA97C207C1839A
:102580007C851C83850793F7F70F5C831C83E3FD31
:10259000F6FC388594833C858C8390833347D7023F
:1025A000B3E7B7028607B3C7C702BA97C207C183AA
:1025B0007C853C84308528842C8585661307004003
:1025C00093860680B307F7403386C640098F8D8E09
:1025D000C20742064207C2064186C1874187C186BB
:1025E000B297369709463367C702372301400D4E2D
:1025F0009D45994E15457D48B3C7C702BA97C20796
:10260000C18723A2F1928147B386C7031307034012
:10261000104BB396D500D18E1386170014CB93764A
:10262000F60F63E2DE02B388A702032F4703B31657
:10263000180193C6F6FFB3F6E601B3971701D58FDD
:102640005CDBB287D1B7B386A7028328070389165C
:102650003316D8001346F6FF33761601B396D7002B
:10266000D18E14DB6384B7009D4779BF1C47B70642
:1026700050001305001093E707101CC71C47D58FA7
:102680001CC7EFE02F9C21616FD07FB4EFD2FFB168
:10269000371402401C4C0111B714014093E7C700E6
:1026A0001CCC9307803FFC82E1473ECE4C088D470F
:1026B000138504C03ECCEFD0DFD2E1774C08138500
:1026C0000480FC82EFD0FFD11C4C370518008545F3
:1026D00093E717001CCC5C4C13050530B714004081
:1026E00093E717005CCC5C4C93E727005CCC5C4C18
:1026F00093E747005CCCEFD0BFDD37151A00854566
:1027000013050580EFD0DFDC85473EC42C0093071E
:10271000703E37050040370400403EC6EFD01FEA48
:102720002C0013050440EFD07FE92C0013850480B2
:10273000EFD0DFE81E30E5759385F5CFC207C18382
:10274000F99BC207C1831EB01E3056201A2CC20747
:10275000C20642074183C1821377C7F856A01367A8
:102760000706C1831AACF59B231A040293E71700EE
:102770001EB01E301966C207C183BD9BC207C1834C
:102780001EB01E3056201A2CC207C2066D8F518F04
:10279000C182420756A04183C1831AAC93F7F7FD6B
:1027A00093E70701231C04021EB00357044293075A
:1027B000044042074183799B420741839AB39A338D
:1027C000CA23962F42074205C206C182418193F671
:1027D000C6F8CAA393E60606418396AF759B239A73
:1027E0000702136717009AB39A33420741833D9B50
:1027F000420741839AB39A33CA23962F4207420570
:10280000ED8ED18EC2064181C1824183CAA3137766
:10281000F7FD96AF239C0702136707019AB303D70E
:10282000048293870480420741831377F7EF4207BE
:1028300041839AB39A33CA23D62F42074205C20670
:10284000C182418193F6C6F8CAA393E60606418386
:10285000D6AF1377F7DF239E0702136707109AB3EB
:102860009A3342074183799B420741839AB39A3353
:10287000CA23962F42074205C206C182418193F6C0
:10288000C6F8CAA393E60606418396AF759B239AC2
:102890000702136717009AB39A33420741833D9B9F
:1028A000420741839AB39A33CA23962F42074205BF
:1028B000ED8ED18E4181C206CAA3C182418396AFFB
:1028C0001377F7FD239C0702136707019AB39A3326
:1028D000420741831377F7EF420741839AB39A3354
:1028E000CA23D62F42074205C206C182418193F610
:1028F000C6F8CAA393E606064183D6AF1377F7DF7F
:10290000239E0702136707109AB39A33FD76FD16CC
:10291000758F9AB39633CA23DA2F42056D8F518F84
:10292000418142077976CAA341837D16DAAFF18EE1
:10293000056623900704D18E96B31E2093E71700F7
:102940001EA08357044093E717002310F44083D759
:10295000048093E717002390F48005616FD03F87D0
:10296000EFD23F825C41AE843284FDE70547A38409
:10297000E192B74701401307F0FB2390E780B707C8
:102980000240FC43858B95CB61691309196AB7092D
:10299000024093874904DC43C207C18381CB7D1980
:1029A000630609000545EFE02FD1E5B7B706024001
:1029B000FC4241677917F98FFCC2B7060240FC421E
:1029C00041677917F98FFCC223A2060423A40604E9
:1029D00023A6060423A80604DC423D67D98FDCC287
:1029E0001387C1FB44C340C7EC42E177BD070853DE
:1029F000FD8D1C47C98F084BC98F484BC98F084FA5
:102A0000C98F484FC98F4853C98F0857C98FCD8F79
:102A1000FCC2A0C61C430567FCC6A4CAFC4293E7DF
:102A20001700FCC2B71701409387078098CBB747C0
:102A3000014003D7478113670708239AE7801307EC
:102A4000F0FB2390E7809387C78098432285136724
:102A5000070498C36FD06FF605472384E192B757F8
:102A600000401307F0FB2390E7809387C7809843CB
:102A70000149896A1377F7FB98C3375A00407D5B99
:102A800093170901C18363E58700B757004045BF2D
:102A9000B387240183CB070093890A7183570A8087
:102AA00093F7070881EBFD19638869010545EFE09D
:102AB000AFC0EDB76384090023127A810509C9B755
:102AC000EFD2AFEE01112313010002CA02CC02CEF5
:102AD00023A6A190B7170240984F91663714014082
:102AE000558F98CF984F130504808D441367470086
:102AF00098CFD84B4C00056913671700D8CB9307C4
:102B000000207C82E1473EC626C4EFD09F8D93070C
:102B10000040130504807C824C00930780043EC66D
:102B2000EFD03F8CC147130504804C003EC62312F2
:102B3000210126C4EFD0FF8A13040480F167232A01
:102B4000240193870720374401403EC80C08B14751
:102B500013050480FC85EFD09FAE9307C480984393
:102B60001367070298C398431367070498C303A722
:102B7000019611E7B7E700E0A38A074225A083A6E4
:102B800001960547E388E6FE83A601960947E3839D
:102B9000E6FE03A70196E30F97FC03A70196914772
:102BA000E30AF7FCB7E700E03707200023A2E710AD
:102BB000374701409387C1FB9306478094C3C146C2
:102BC00094C793060008D4CB8D66D4D323A2070004
:102BD00023A0070223A8070023A4070223AE0700AF
:102BE00023AC070023A60700930707800357C7807D
:102BF0008966558FDAA785679387270323A6F19205
:102C000005616FD0CFDC232205005DBDEFD2EFD987
:102C100091472A841CC17D461105EF50F04CA30159
:102C200004026FD0CFDA81E5232005008280F9BF4E
:102C3000EFD22FD59377F50F130740022E896365E6
:102C4000F70431678A071307C7A5BA979C43137423
:102C500005705D8CFD576304F426373B0020135C40
:102C6000240093070BE3137CCC03E2979C43937CF3
:102C7000F400130B0BE3B3D79701858BB1CFAD698C
:102C80009387C977FD561DA81377050C9306000C92
:102C90006317D7221307900C6363F722316793768B
:102CA000F5038A061307C78636971843B1679387DB
:102CB000C7A50A0759BF630FE420B1079843E31C77
:102CC000D7FE629B03270B008547B397970193C7F5
:102CD000F7FFF98F2320FB007D199147914563EDA4
:102CE000271DAD67938707CB0A093E998327090003
:102CF00082870A05938744015E951CC193070008EB
:102D0000DCD4930700049CD8B737014023AC4401BE
:102D1000C4C823AE040023A00402239204029387B4
:102D200007C06312FA0EB71602409C4E05671307E0
:102D30000780D98F9CCE83A7890089CB0D46CE858D
:102D40004E85829723A4090023A60900C109E394B4
:102D5000A9FF884CC167FD1723AE04009CD01E213B
:102D600023A0040023A2040093E7070823A404007F
:102D700023A6040023A804001EA19385C401EFD05C
:102D8000FF83B7E700E09387071013070020D8C33D
:102D9000056793060780D4C3D8C30967D8C31167F2
:102DA000D8C3B3875B019C4384C3DE9A83A70A0020
:102DB00083A90700E38709F083A489012685EFD062
:102DC0006FC6B7370140938707C06399F408B716F9
:102DD00002409C4E7D771307F77FF98F9CCE0A0542
:102DE0005E952320050023AA090093844908138ACD
:102DF0004903638C440BC1149C44E5DF0D46A68552
:102E000026858297FDB7B70700406319FA00371788
:102E100002405C4F93E717005CCF31BF93870740B8
:102E20006318FA00371702405C4F93E72700EDB7AD
:102E3000B7170040138707806318EA00371702406E
:102E40005C4F93E74700C9BF938707C0E315FAEECD
:102E5000371702405C4F93E787007DBFB7070040FC
:102E60006398F400371702405C4FF99B5CCF85BF35
:102E7000938707406397F400371702405C4FF59B38
:102E8000F5B7B7170040138707806397E40037173B
:102E900002405C4FED9BD9BF938707C0E391F4F4E8
:102EA000371702405C4FDD9BD1B7930540084E8534
:102EB000EF50003B39B58D452285EFE01FCD6FD037
:102EC000CFAFE145D5BF93058002FDB78145EDB792
:102ED0009D45DDB79385C9772285EFD01F8BEFD055
:102EE0006FB4B73B002093874BE4931A2500D69725
:102EF0009C43938B4BE4E39A07EA13054008EF5099
:102F00004036AA849385C9772285EFD01F8893899C
:102F100044032A8A138D4408CE8723A0070023A2E6
:102F2000070023A4070023A60700C107E317FDFE3F
:102F30005285EFD02FAFC167FD17E31CF5DA01A072
:102F4000EFD2AFA33724002093078496C44703A988
:102F5000470103AC470283AC070203ABC70283AB54
:102F600087025D712AC4214D930D000813048496D5
:102F7000B7F900E0254A03A7890083A7C900130613
:102F8000803E3AC83ECA83A7090103A84901814689
:102F9000938A170033B7FA003A98B3050A0342C67A
:102FA000B3375A0333055A03BE95EF60A014424766
:102FB000D24732483ACC2A833ECE0145814803A706
:102FC000890083A7C9003AC83ECA6247F247424611
:102FD000D24663EAF6066394D7006366E606424784
:102FE000D247E24E724F3306D741333EC700338794
:102FF000E7413307C741B287AA97B3B6A700469700
:10300000B388E60042473E85D2473ACC3ECEE3E85D
:10301000B8FA63941501E36465FAA247B3F7B70100
:103020006394072863D4970613972700B306E90033
:10303000944281EA669714431397170062971A2304
:10304000D8CA8507C5B76247F2474246338FEA4080
:10305000D246330EF840B3BEEA01330EDE41B30769
:10306000CF0033B7E701F296369779B71397270069
:10307000B306E900944281EA669714431397170058
:1030800062971A2398CA8507E3C297FE814763CFE8
:10309000972003A7890083A7C9001306803E3AD072
:1030A0003ED283A7090103A849018146938A1700EC
:1030B00033B7FA003A98B3050A0342C6B3375A0346
:1030C00033055A03BE95EF60E0020257925732482B
:1030D0003AD42A833ED60145814803A7890083A7B5
:1030E000C9003AD03ED22257B2570256925663EEEA
:1030F000F61C6394D700636AE61C02579257A25EDF
:10310000325F3306D741333EC7003387E741330789
:10311000C741B287AA97B3B6A7004697B388E6001F
:1031200002573E8592573AD43ED6E3E8B8FA639404
:103130001501E36465FA814763CC971A7D1D93DD21
:103140001D00E31A0DE2814763C3971CB7F700E047
:103150009047D447254532D836DA984BDC4B1306D6
:10316000803E9309170033BAE9003E9AB305450340
:103170008146B337350333053503BE95EF5090775D
:103180004257D257014E3ADC3EDE014737F300E0AA
:10319000032683008326C30032D836DA6256F256FD
:1031A0004258D25863E4D818639416016360C81873
:1031B000C25E525F625CF25C33888E4133B60E01B0
:1031C000B3079F41C286918FBA9633B6E600F29755
:1031D000330EF60042563687D25632DC36DEE369CD
:1031E000BEFA6394C501E365A7FA814763C49716E5
:1031F000B7F700E09047D4472545B2C0B6C2984B18
:10320000DC4B1306803E9304170033B9E4003E996B
:10321000B30525038146B337950233059502BE9564
:10322000EF50506D064796470146BAC4BEC60148E6
:10323000B7F800E003A7880083A7C800BAC0BEC2E1
:103240002647B6470643964363E5F3126394770037
:103250006361E31206439643264EB64E3307C341DD
:10326000B336E300B387D341958F3297B336C700A7
:10327000C2973A8606473388F6009647BAC4BEC658
:10328000E36AB8FA63940501E366A6FA81448549C6
:10329000544463C2D41050484C540854814763CB03
:1032A000D71261616FC03FF18147F9BB13972700C7
:1032B000B306E900944281EA5E971443139717001E
:1032C0005A971A2398CA8507D9B32257B25702567C
:1032D000338FEA409256330EF840B3BEEA01330E04
:1032E000DE41B307CF0033B7E701F29636971DB53D
:1032F00013972700B306E900944281EA5E971443CE
:10330000139717005A971A23D8CA850735B513970C
:103310002700B306E900944281EA669714431397A5
:10332000170062971A2398CA850739BD6258F25868
:10333000425FB3870941D25FB3BEF90033081A4137
:103340003386E7013308D841B337F6007E98B2865A
:10335000C2979DBD13972700B306E900944281EA06
:103360005E971443139717005A971A2398CA850734
:10337000B5BD264EB64E0643B387C441964333B718
:10338000F400B306D941998E33876700B337F7004D
:103390009E96B697D9BD1C4C139924008945CA97AF
:1033A0008843EFF0FF881C5093961400CA979C4303
:1033B00098475C50B6979E23F98F89C75C48CA9797
:1033C00023A037011C4C95458504CA978843EFF02C
:1033D0003F867DBD139727003308E60003280800C9
:1033E000631B08002A9703280700139717002E97DE
:1033F0001A23232AE80085075DB5EFC29FD8B7F7E7
:1034000000E09047D447797132C036C2984BDC4B0C
:103410002A8A13041700B334E4002545BE94B3058B
:1034200095021306803E8146B33785023305850237
:10343000BE95EF50304C0247924701463AC43EC613
:103440000148B7F800E003A7880083A7C8003AC086
:103450003EC22247B2470243924363E3F31C6394A4
:103460007700636FE31A02439243224EB24E330752
:10347000C341B336E300B387D341958F3297B33658
:10348000C700C2973A8602473388F60092473AC48B
:103490003EC6E36AB8FA63940501E366A6FAB72765
:1034A000002013878796444703294701832B47024F
:1034B000032C07029387879601476345971883AAD1
:1034C000C70203AB8702814763CD9718B7F700E0C7
:1034D0009047D447254532C836CA984BDC4B130673
:1034E000803E13041700B339E400BE99B3053503D9
:1034F0008146B337850233058502BE95EF50903F74
:103500004247D2472A833ACC3ECE0147814737F51E
:1035100000E01045544532C836CA6246F246424879
:10352000D24863EFD81463941601636BC814C24E7B
:10353000524F6248F248338E0E4133B6CE01330803
:103540001F41F2863308C840BE9633B6F6003A985B
:10355000330706014246B687D24632CC36CEE36AFE
:10356000B7FA6394E500E3E667FA814763CE971202
:10357000B7F700E09047D447254532D036D2984B74
:10358000DC4B1306803E13041700B339E400BE99E8
:10359000B30535038146B337850233058502BE95F1
:1035A000EF50503502579257014E3AD43ED601475C
:1035B00037F300E0032683008326C30032D036D2DF
:1035C0002256B2560258925863EFD80E63941601F1
:1035D000636BC80E825E125FA25B325C33887E41F1
:1035E00033B60E01B3078F41C286918FBA9633B6B8
:1035F000E600F297330EF60002563687925632D422
:1036000036D6E369BEFA6394C501E365A7FA81473C
:1036100063CF970C5285EFF0BF9245616FC0FFB941
:10362000224EB24E0243B307C44192433337F400F3
:10363000B386D441998E33876700B337F7009E96DF
:10364000B6972DBD931627003306D900104201EA24
:10365000E296904293161700DE96962214CA05074A
:10366000A9BD13972700B306E900944281EA5A974F
:1036700014431397170056971A2398CA8507A9B5BC
:103680006248F248C24EB3060441524F333ED40062
:10369000B38819413386D601B388C8413338D60080
:1036A000FA98B28646984DB513972700B306E900FD
:1036B000944281EA62971443139717005E971A2386
:1036C000D8CA850765B52258B258025FB3070441CE
:1036D000925FB33EF400338819413386E701330823
:1036E000D841B337F6007E98B286C29701B71397D8
:1036F0002700B306E900944281EA5A9714431397CE
:10370000170056971A23D8CA850719B7EFC2FFA921
:103710003724002093078496DC47AE8413048496F4
:1037200095C3EFE00FAC1305C006C1393145EFF08A
:103730003F811305D006D1310545EFD03FCA014581
:10374000EFD0DFC948440328440118440323040090
:1037500083280401814763C7A700860426970A23AC
:103760006FC0FFA693962700C296904293961700CB
:1037700001EE3386D8000E220546BA968EA2B30615
:10378000F30090A28507C1BF81450146FDB7EFC296
:10379000DFA12A84031565008147634B0500854539
:1037A000EFF00FC9031564008145EFC0DFFF8547C7
:1037B0001CB06FC0DFA1EFC25F9F3725002013054B
:1037C0008594F137372500201305858CC9373725B7
:1037D00000201305858E653F372500201305859051
:1037E0007D37372500201305859255376FC03F9EE2
:1037F000C1456F40F02691456F4090269305C0402B
:103800006F401026EFC2FF9759713C003ED67C00F6
:103810003ED83C003ED07C003ED21C412EC632C475
:1038200036D436CE19476361F7022D678A0713072E
:1038300087CFBA979C432A84B6848287AD659385E7
:1038400005CD6808EFD03FAA65616FC01F975C2166
:1038500089C7AD6593854540EDB7AD65938545CC8A
:10386000CDB7EFD00F842D66AA86130686CDC1454D
:10387000E800EF70E028EC00E9B7EFD0AF83B704C1
:1038800000801389F4FF83A5C183337925012A843D
:103890004A85EF50206501E983A5C1834A85EF6021
:1038A000C02A6356A000AD659385C5CD59BF930569
:1038B00000002285EF5080596356050683A50184D8
:1038C0002285EF50A05863490508A18C2685EF603A
:1038D000D0172A89EF609022AA852685EF60005EC6
:1038E00083A58184EF60C02F83A5C184EF50F03A97
:1038F000EF60B015AA84930500002285EF500055B3
:10390000635705009305D0022810EFD0FF9B2D666A
:103910002687CA861306C6CE93050002E800EF701C
:10392000201E91BF83A541842285EF600022635948
:10393000A002AD6693860661228536C2EF60103C18
:1039400092462D662A87AE87130646CE930500025F
:10395000E800EF70E01A05B7AD669386C6CCE9BF04
:10396000A284ADB7930520022810EFD0FF95110473
:10397000130920020307040011C7A2479440FD1752
:1039800063E8F600930520022810EFD0FF936DBD89
:10399000630627019307C0056317F7009305C00569
:1039A0002810EFD07F928305040028100504EFD083
:1039B000BF91C9B7032B45009305B0052810EFD080
:1039C000BF9063190B1C9305D0057DBF54432D6632
:1039D000130686CDC145E800EF708012EC000DA8FB
:1039E00003294700B70C0080138DFCFF83A5C1831A
:1039F000337DA9016A85EF50E04E01E983A5C183BB
:103A00006A85EF6080146355A008AD659385C5CDC8
:103A10008800EFD05F9583270B0A8509E3D5F9FA73
:103A20009305C0022810EFD03F8A8387018F89E772
:103A300023200A0A2388818F1840994752896318E6
:103A4000F70003294400631409001389C19FB2459C
:103A500022468327090A2ECA32CCE3DEF9FA930CF8
:103A60008002B38C99033C083EDC5C083EDE3C08D7
:103A7000BEC25C08BEC426DA330799011C43A6C047
:103A80009546FD17E3E9F6F88A07D6979C438287A7
:103A9000930500004A85EF50603B6357050683A5F8
:103AA00001844A85EF50803A634A0508B3CC2C0163
:103AB0006685EF6080792A8DEF605004AA8566855F
:103AC000EF60C03F83A58184EF60801183A5C1842E
:103AD000EF50B01CEF606077AA8C930500004A8518
:103AE000EF50C036635705009305D0024818EFD059
:103AF000BF852D666687EA861306C6CE930500024B
:103B0000E800EF60F07FD9BD83A541844A85EF606E
:103B1000C0036359A002AD66938606614A8536C22A
:103B2000EF60D01D92462D662A87AE87130646CEDB
:103B300093050002E800EF60B07C4DB5AD6693865A
:103B4000C6CCE9BFCA8CADB75C2389C7AD65938588
:103B500045407DBDAD65938545CC5DBD4818930559
:103B60002002EFD06FFE93858C00CA958800EFD0BD
:103B70008FFF930520024818EFD00FFD69BD5C430D
:103B80001547A686E800BAC6BEC8AD3969B55C431C
:103B90001947C5BF83270B0A8149E356F0E2AD6A96
:103BA000138AC19F054C938A4AD141B54041930580
:103BB000B0072810EFD04FF119C48327041A9309D6
:103BC00004016345F0009305D0077DBB93052002F7
:103BD0002810EFD06FEF01492D6A8327041A9385CF
:103BE00009FF6345F900AD65938505616808EFD06D
:103BF0008FEF680893054ACFEFD0EFEE8327041AC2
:103C00004E856344F900138501AA2246B245A68673
:103C10000509CD3E8327041AE357F9FA28109305C6
:103C2000C002EFD06FEA9305200228109389490360
:103C3000EFD08FE95DB7EFC2CFD403A4C1947971FF
:103C400009E403A481956304040E2285EFD08FB3A9
:103C50009307E07F372B00203EC693070BE33EC857
:103C60003C003ECC7C003ECE1C083ED03C003ED208
:103C70007C003ED4372A00201C089305B007280892
:103C80003ED613098AA902C4EFD0AFF08327091AE0
:103C900093090BE3130A8AA9814B635DF0042D6C31
:103CA000930520022808EFD0CFEECA854810EFD048
:103CB0002FF093054CCF4810EFD08FEFA247C244AE
:103CC000B24A5408BE94B38AFA405686A6851305B4
:103CD000090102CAEFF01FB3524763755701BA9446
:103CE00023800400A247850BBA973EC483270A1A93
:103CF00063C2FB049305D0072808EFD08FE9224761
:103D0000B2476376F700C247BA972380070022467E
:103D1000354793050BE3B387C90098A3294798B3A8
:103D20001C40090642069C4F4182228582974561CC
:103D30006FC0AFC89305C002280813094903EFD02C
:103D40004FE5B9BFEFC26FC621468145231E05006E
:103D5000231F050023100502231105022A84EFC04A
:103D6000CFC05146814513058400EFC00FC06FC01E
:103D70000FC62320050013060002814511056FC000
:103D8000CFBEEFC28FC22A84930405011309051B1D
:103D9000268593844403F13FE39C24FF8547232039
:103DA000041A2302F41A6FC08FC2EFC20FC09547E6
:103DB0001CC103A4818F0D47617105043364E402C3
:103DC000AA84280023AC818E6D3F9307801AB30725
:103DD000F40237070020130747382C001306501A47
:103DE000BA973E85EFC00FB7C8C05D616FC02FBEE8
:103DF000EFC2AFBB6171280069373725002013047B
:103E000085A92C001306501A130585A9EFC08FB49D
:103E10002324041A5D616FC08FBBEFC26FB7032903
:103E2000051A39712A848144130A400363C52405A5
:103E30009D4763C3270793044003330599027D46DA
:103E40002295EF40702A0329041A6808B3049902E6
:103E50000509B3099400A38F0900213F130640020E
:103E60006C0813850901EFC0EFAEC1042320241BA9
:103E70003305940029A8B38944032EC633053401C1
:103E8000EFC00FACB24519E5C1093305340121611A
:103E90006FC04FB3850459BF2302041A138501AACA
:103EA000FDB7EFC2EFAEB284AA892E8991373724CD
:103EB0000020AD659385C5D2130584A9B93F894714
:103EC000AD651CC123223501938505D3130584A953
:103ED000A9378547AD651CC123020500938545D3ED
:103EE000130584A91D3FCA85EFE0FFD3AD65938517
:103EF000C5D3130584A91537A685EFE0DFD2EFF00F
:103F00009FD36FC02FACEFC2AFA8AA8932842E898D
:103F1000C535B7240020AD659385C5D2138584A926
:103F2000ED3D8947AD651CC123223501938505D33D
:103F3000138584A9DD3585471CC15CA1630B09008D
:103F4000AD65938545D3138584A9C13DCA85EFE04E
:103F50009FCD11C8AD659385C5D3138584A9753DE3
:103F6000A285EFE05FCCEFF01FCD6FC0AFA5EFC231
:103F70002FA22A8408412E89B28445351C418549E7
:103F80000840F917CA8563FAF900A68579351C41FE
:103F9000F91763E9F9000840A6854135EFC09F9104
:103FA0006FC04FA203A50185E5BFEFC26F9E2A84B3
:103FB00008412E89B284EFF05FE61C418549084034
:103FC000F917CA8563FBF900A685EFF01FE51C41D0
:103FD0000840F91763E9F900A685EFF01FE4EFC088
:103FE0007F8D6FC02F9ECA85EFF03FE31C41CA85CD
:103FF0000840F91763FBF900A685EFF01FE21C41AA
:10400000F91763EBF9000840A685EFF01FE1EFC058
:104010005F89EF60A02EF1B703A50185D9B7EFC284
:104020002F978329051AAA842E890144130A400375
:104030006345340101456FC0EF9833054403CA85D9
:104040002695EFC0EF8F19C10504DDB70545E5B72B
:10405000EFC2AF952A8448454111AE84EF40402F0E
:1040600038381C280D466303F700114633069602C4
:104070004206418252A0328532C6EF40E02C48C44D
:1040800009C932468145EFC04F8E26A041016FC05D
:104090000F94231204008144CDBFEFC20F91B707E4
:1040A000020185071CC985471EA12304050023269C
:1040B0000500232A05002A84B284593F1C3081CB95
:1040C00003156400634505008145EFE07FB61C30B1
:1040D00066A089CB85452685EFE09FB5814526857D
:1040E000EFC06FEC831764009306400213F7F70FDD
:1040F00063CDE602B1660A079386C6A536971843D4
:1041000093F70770D98F13F6F70093D6470005474A
:104110003317C700BD8A11466378D604BD8B0547A7
:10412000232C0400B317F70011A893F6070C13060D
:10413000000C6388C600232C0400A1675CCC6FC010
:104140000F899306900C63CFE600B16613F6F70370
:104150000A069386C686B296944231671307C7A5AE
:104160008A0669BFFD575DBFAD678A06938787766C
:10417000B6979C4358CCB71601401CCCE391D7FCB2
:10418000B72702409C5BB706000FF58FCDFB358348
:1041900058CC75B7EFB27FFEB7170240984B8566D3
:1041A00093860680558F98CB944B7D771307F77FC6
:1041B000F98E94CBD44F41118545758FD8CF984F48
:1041C0002165372400201367170098CFEFC04FB048
:1041D000EFF06FDEEFE04F8DEFE04FCB37063200B0
:1041E000814513058494EFC03F87EFC09FDE130520
:1041F000800CEFC02FE5130620038145130584943E
:10420000EFC09F85EFC0FFDC1305800CEFC08FE38C
:104210000D6613060620814513058494EFC0DF83E5
:10422000EFC03FDB1305800CEFC0CFE11305849492
:1042300001468145EFC05F8237240020EFC07FD95F
:10424000EFE08F86EFE08FC4EFF0EFD69304849613
:1042500091471145DCC4EF400003DC4488C03707B8
:104260000020130484961395270063E3E7007D552F
:10427000EF4060015C4448C0370700207D5563F47F
:10428000E70013952700EF4000005844B7070040AF
:1042900048C8F9177D5563E4E70013151700EF30A0
:1042A000907E5844B707004008C4F9177D5563E471
:1042B000E70013151700EF30107D5C4408C837077E
:1042C00000207D5563F4E70013952700EF30B07BA5
:1042D0005C4408CC370700207D5563F4E700139554
:1042E0002700EF30507A5C4448CC370700207D55DA
:1042F00063F4E70013952700EF30F0785C4408D0B2
:10430000370700207D5563F4E70013952700EF3051
:1043100090775844B707004008D4F9177D5563E4F7
:10432000E70013151700EF3010765844B707004028
:1043300048D0F9177D5563E4E70013151700EF30F7
:1043400090741C4C032BC401832B4402032C4400A7
:10435000832C0400032D840010540C50B70200205D
:10436000B70300202D68B16F48D43EC6814881460E
:10437000814E938202009383030113094002930943
:10438000000C130A900C054F13088876938FCFA565
:10439000914AFD5D5C4463C5FE0481445C4463C88E
:1043A000F4188DC3EFD0EFE31305C006EFF0EF84F0
:1043B0002D45EFE0FFB81305D006EFF00F8401455F
:1043C000EFD0CF8148480328040083280401032349
:1043D00044008147584463CDE71841016FB0BFDD09
:1043E0003247B38756009C4336973303DB001CC328
:1043F000B38776009C432320F30018431373F70F11
:10440000636969020A037E9303230300137707702D
:1044100033676700135347001373F30063FA6A08A6
:1044200001433D8B3317EF00420723A06500418312
:1044300011A8137E070C63143E0163706A0423A065
:104440000500216733831B012310E30013F7F70FE7
:104450006365E9060A077E97184393F70770D98FBB
:1044600013D747003D8B63F0EA0C0147BD8BB317B0
:10447000FF00C20718C2C18391A89374F703316E7D
:104480008A04130ECE86269E032E0E00316313037C
:10449000C3A50A0E72930323030013770770114E0E
:1044A00033676700135347001373F300E36A6EF634
:1044B0000A03429303230300ADB713F3070C6314FD
:1044C0003301637AEA0223200600A167330715014E
:1044D0001EA3B307DC0023A0B701B387DC01238050
:1044E0000700B3071D0123900700850E11069105F3
:1044F0009106890845B513FEF70331630A0E1303CD
:10450000C38672930323030031671307C7A50A0309
:104510001A97184393F707701143D98F13D74700A1
:104520003D8BE364E3F40A074297184381B783297C
:10453000C401139924008545CA9903A5090085047F
:10454000EFC06FA61C4C8545CA978843EFC0AFA546
:1045500003A509008545EFE0AFED1C4C9545CA97D2
:104560008843EFE0EFEC5C48CA9723A007003DB515
:10457000939627003306D50010423307F800133610
:10458000160010A31397170046971A237D569375AC
:10459000070281C993750701054681E509831376F2
:1045A00027009A9690C2850735B5EFB21FBD3971C5
:1045B00019E101443DA08D47B289E3CCC7FEAE842A
:1045C000EFD02FCF030905002A84630C0900AD65E5
:1045D0001146938505CDEF40402501E923A0040055
:1045E0001104228521616FB01FBDAD651146938511
:1045F00045402285EF40602309E585479CC0DCA04B
:10460000C5B7AD651546938545CC2285EF40E021C1
:1046100019E585479CC0238204001504D9B7930788
:104620002002631EF9006C08130600022285EFD0F9
:104630006FBE2A846C082685EFE04FDD5DB79307D7
:10464000D002630DF904930709FD2547637BF70A40
:104650009307B0056310F92E99479CC02685EFC0DB
:104660008FA7030704009307B0052A8CE313F7F420
:104670002D6B0504130AD0058D4B954A130B0BD4F3
:104680001309800283070400639A071803070400D4
:104690009307D005631AF7280504A1B70504230E74
:1046A00021018547B785000401461305500413080E
:1046B0005006F9481303A002B5150307040019CBEF
:1046C000634CE5066358E300930657FDB3D6D50067
:1046D000858A95EA1387070314083697230E07FC8B
:1046E00099CB05476398E7068347C101938757FD38
:1046F00093F7D70FA1EBB7270020114723A0E7C4FA
:104700004DBD814745B7794E634CFE02130EE00262
:104710006306C701137EF7FD631EAE001386070311
:10472000130E01017296230EE6FC8507368609A852
:104730008546EDB7B286DDB7E31E07F9E3DAF8FE8A
:104740000504A5BF01EE6808EF30703689479CC0AC
:10475000C8C041BD01E62547E357F7FE8307C10105
:104760001307D0026389E7081307B002930DC10154
:104770006394E700930DD101054A49A0638B670755
:10478000938C07FD93F6FC0F63E7DB0463950A0245
:10479000EA854A85EF50C0442AC613958C0161858D
:1047A000EF50D035B245EF40504F2A89850D8387B1
:1047B0000D00E9F72DA0A2454E85EF506042AA8971
:1047C00013958C016185EF507033CE85EF504041D9
:1047D000AA854A85C9BF93F7F7FDE39987FD8D4701
:1047E0009CC05285EF509031CA85EF50603FC8C0E1
:1047F000CDBB854A65BF930DD1017D5A83A9418503
:1048000083A7C185814A130900003EC403AD818599
:10481000130BE002A54B130C500451BF2285EFD0BF
:104820004FA9830705002A84638E470F6808EFF0BD
:104830004FD422854E866C088D3B2A846306050E74
:1048400083240C0A63C19B08F247FD1763EDFA0647
:104850008A07DA979C4382876808EFC08F84B38702
:1048600024030947E29798C3C8C3850423209C0A00
:1048700099A86808EFC00F84B3872403E29723A0A8
:104880007701C8C3DDB7B387240303470102854618
:10489000E29794C3D8A3D1BFB384240311477D46C4
:1048A0000C10B3079C00A10498C333059C00EF4093
:1048B000A00383270C0A3387270385076297A30386
:1048C00007022320FC0A2285EFD0AF9E8307050054
:1048D0001307C0022A846394E7040505EFD06F9D97
:1048E000830705002A84E39F47D9B727002009479B
:1048F00031B5B38724030147E29723A05701F2465D
:10490000639D5601025711A8B387240399460147B6
:10491000E29794C37246E307D6FED8C3B9B7E383E0
:1049200047D7E1B7E31405D6B7270020094723A0EE
:10493000E7C445B99307B007E319F9FA2685EFF004
:10494000CFC6AA8513861900228519202A8451B959
:104950006309050EEFB2DF838D474111328463DCBA
:10496000C700B7270020154723A0E7C481473E852D
:1049700041016FB03F85AE84EFD0AF938306050051
:104980001307B00793071500E392E6FE1309D0075B
:1049900093092002130AA0030504930AC0020387A7
:1049A000070009EB838607001307D007639EE60222
:1049B000850775BF3E85EFD0CF8F03070500AA8717
:1049C000E30227FF63063701B7270020094769BFC5
:1049D0002300010083070500E39837FF41468A85DD
:1049E000EFD04F8301E981473727002089462320F4
:1049F000D7C4B5BFEFD0EF8B83070500E39647FD23
:104A00000505EFD00F8B2A8B8A852685EFF0EFC046
:104A1000AA8522865A85EFF05FB971D5EFD06F89EC
:104A200003070500AA87631B57010505EFD06F88B0
:104A300003070500AA87E31427F779B7E30127F7EF
:104A400061B7B7270020154723A0E7C481473E85FB
:104A500082808307050099E36F101025EFB2EFF114
:104A6000130101D79305B007EF3090652A8949CD2E
:104A700003A4C19501CC084085472300F44C1C4198
:104A8000DC4782972324A44C2326B44CEFF04FB686
:104A9000EFF00FB683070900372A0020930A8AA98E
:104AA000A5EB854723A4FA1AEFC0AFD11306400641
:104AB000CA85A811EF3050638547230601142D677E
:104AC0001307C7718A07BA9798432D66B724002049
:104AD000B4111306C6D99305001013858499EF60AD
:104AE000200203A4C19401E403A4819511CC138591
:104AF0008499EF30705E1C401316050141829C4F73
:104B00009385849922858297130101296FB0AFEABA
:104B10004A85EFC01FFA030705009307B00763013A
:104B2000F702894723A4FA1AEFC0AFC9130640065B
:104B3000CA85A811EF30505B89472306011441B79D
:104B4000014693058AA9EFF0BFE0894709C583C7ED
:104B50004A1A81E7994723A4FA1A03A48A1A1DC0A6
:104B6000EFC02FC613064006CA85A811EF30D057F4
:104B70001D4723060114A287E37387F42D671307EB
:104B800087D5A1B7AD6B9385CBD213058AA9EFF07A
:104B9000CFA88145EFB03FD32D6B93050BDE2A8460
:104BA00013058AA9EFF06FA7AD65930945009385BA
:104BB00045DE13058AA9EFF04FA61841954756899F
:104BC0006317F70003294500631309005689AD6A8E
:104BD0009385CADE4E85EF30104A51EDEFF04FA1BC
:104BE0009385CBD213058AA9EFF02FA3894440C146
:104BF00004C193050BDE13058AA9EFF00FA293857C
:104C0000CADEEFE0AF802D64930504D313058AA9B3
:104C1000EFF0AFA08547AD651CC15CA1938545DF72
:104C200013058AA9EFF06F9F930504D3EFD01FFE01
:104C3000AD659385C5DF13058AA9EFF00F9EEFF0F0
:104C4000CF96AD65938585E02A84EFF00F9DAD6525
:104C5000938505E1EFD09FFBAD659385C5E1228586
:104C6000EFF0AF9B03A7019983A7419904C158C1F5
:104C7000EFE07FFC51BDAD65938545E24E85EF3099
:104C8000903F631F056883A7C195E38F07E6EFC0D8
:104C90004FB3B72A00202D668565A2861306C6E2AB
:104CA0009385058013850AE3EF50906503AAC195AB
:104CB0002A8981495285EFB0FFD783A7C1832AC1D2
:104CC000938A0AE3BEDA83A74184BEDC83A701840A
:104CD000BEDE93078008B387F9021D47D29783A7EA
:104CE0004719FD17636AF70E2D678A071307C77305
:104CF000BA979C43BED893078003B387F902014754
:104D00001308E0052145D297BE86838546001386A9
:104D100005FE1376F60F6365C80CD0013A960CA217
:104D200005078506E313A7FE2306010C01471305BB
:104D3000E005930C810ED1450386C700930606FE5D
:104D400093F6F60F6365D50AB386EC0090A20507CB
:104D50008507E313B7FE230E010EE687F419130649
:104D60002002930570021305C0050387070009CBD5
:104D70006304C7006313A7008CA38507E397F6FEBF
:104D8000DC01F40113062002930570021305C0052F
:104D90000387070009CB6304C7006313A7008CA334
:104DA0008507E397F6FE93078003B387F902D6558C
:104DB000D29703AD8702131B1D00135B1B005A859E
:104DC000EF40401219E5D6555A85EF401058635709
:104DD000A002130D00003DA8AD67938787D619BFC9
:104DE0001307072494083697230A07E235BF930771
:104DF000072498083E97230C07E4B1BFE6556A855F
:104E0000EF40B054634DA01CF6556A85EF40000496
:104E10006349051C6A85EF5040432A8CEF50004ED1
:104E2000AA856A85EF50800983A58184EF40505B95
:104E3000EF50A0419357F54133CBA700330BFB4014
:104E400093078003B387F90213932900B30D6A0017
:104E500083AB8D0F5E85D297DA379307803EB356CA
:104E6000F702B377F70236C33EC5EF50003E2AC7BC
:104E7000EF50C048AA855E85EF50400483A5418766
:104E8000EF401056EF50603C9357F54133C6A700F2
:104E90001D8EB2D49307F06F63CB271993050000E2
:104EA0006A85EF30B07A2656635F0512631D0C12D7
:104EB000AD66138DC6CCB3872A01BED485679387B0
:104EC0000780B38727413EC98A47B3D73741858BCF
:104ED000638F07102D671307474093078008B38738
:104EE000F902D29783C70720638707102D6813083C
:104EF000484093078008B387F902D29783C71721E8
:104F0000638F070EAD689388484083A78D4046CFD6
:104F100042CDBED483A78D423ACBBED69307800341
:104F2000B387F9023655D29783C53702130A803EFC
:104F3000AEC683C52702AEC483C51702AEC283C501
:104F40000702AEC0EE332EDEDE3332D666DA3EDC4A
:104F5000DC013ED8BA4783A541873ED483A70D48DC
:104F60003ED2EF40F047EF50402E336545032AD044
:104F70003655EF50802D83A541872ACE2655EF4028
:104F80003046EF50802C336545032ACC2655EF5030
:104F9000C02BAA472ACAFA483EC89A476A485AC448
:104FA0003EC662C26AC0C6575A47CA452D66CE86FB
:104FB000130686E533852A01EF5090346355A0042B
:104FC0002A999307F07F63D027052D66AD651306F8
:104FD000C6F5938505F72285EFE0BFEC35B6665D33
:104FE00015BD765D05BDAD66138D0661E9B52D670E
:104FF000130747CCDDB52D68130848CCDDBDAD687F
:10500000938848CC19B7850991476382F902856571
:105010002D6693850580B385254133852A011306C6
:1050200006F8EF50F02D2A9903AAC1955DB103A4AB
:10503000C195370B00807D1B832D8410B3F46D0167
:105040002685EF508020AADAEF50402BAA852685CE
:10505000EF40D06683A54187EF409038EF50E01EC7
:10506000032DC410AADCB3746D012685EF50E01D3A
:10507000AADEEF50A028AA852685EF40306483A5DC
:105080008185EF40F035EF50401C832444112AC144
:10509000B3F964014E85EF50401B2AC3EF50002640
:1050A000AA854E85EF40906183A54187EF4050333C
:1050B000EF50A019832984112AC533FC6901628548
:1050C000EF50A0182AC7EF506023AA856285EF40F1
:1050D000F05E83A54187EF40B030EF500017832C7E
:1050E000C4112AC9B3FB6C015E85EF5000162ACBB0
:1050F000EF50C020AA855E85EF40505C83A5818576
:10510000EF40102EEF506014032C44122ACDB37BD5
:105110006C015E85EF5060132ACFEF50201EAA85E8
:105120005E85EF40B05983A58184EF40702BEF502E
:10513000C011832B04112AD133FB6B015A85EF5028
:10514000C0102AD3EF50801BAA855A85EF40105714
:1051500083A58185056B130B0B80EF407028EF5002
:10516000C00E2AD5B3872A01930500006E853ED76D
:10517000330B2B41EF30904D63580516AD67938D7F
:10518000C7CC930500006A85EF30504C635205167A
:10519000AD67138DC7CC930500002685EF30104B0B
:1051A000635C0514AD649384C4CC930500004E8504
:1051B000EF30D04963560514AD699389C9CC930586
:1051C00000006685EF30904863500514AD6C938CF9
:1051D000CCCC930500006285832A0412EF3010477F
:1051E000635805122D6C130CCCCC930500005E8522
:1051F000EF30D04563520512AD67938BC7CC832740
:10520000841203254413BED48327C412BED6832739
:1052100004132944BED8EF50400383A58185AACE4C
:105220004655EF40F01BEF50400233658502AACC93
:105230004655EF50800183A58185AACA3655EF40B7
:10524000301AEF50800033658502AAC83655EF400A
:10525000D07F83A58185AAC62655EF407018EF4000
:10526000D07E33658502AAC42655EF40107EAA572A
:10527000AAC25EDCBEC09A572D666A883EDE8A5797
:10528000EE86130646F83EDAFA47DA853ED8EA4754
:105290005657F6583ED2DA473A5566CE3ED0CA4700
:1052A0004EC826C23ECCBA4762D656D43ECAAA479A
:1052B0003EC69A473EC48A473EC0E657EF50500468
:1052C000AA8703A5C19409E503A58195E30E05828C
:1052D0003306F9001C414206B72500209C4F41824D
:1052E000938505E36FF03F82AD67938D076151BDF4
:1052F000AD67138D076145B5AD649384046175B5E1
:10530000AD699389096165BDAD6C938C0C61D1B5B4
:105310002D6C130C0C61D1BDAD67938B0761C5B5C6
:105320002D6C93054C064E85EF30E054AA8A61E55A
:1053300083A4C195638A04FCEFE09FAB9385CBD235
:1053400013058AA9EFE07FAD89471CC140C19305D1
:105350000BDE13058AA9EFE05FAC93054C06EFD096
:10536000FF8AAD65938505D313058AA9EFE0FFAAEF
:1053700085471CC15CA12685EFB0CFEBAD65938559
:1053800085D72A8413058AA9EFE03FA999471CC154
:1053900083A701938D461306400A8507B3E7D7021A
:1053A000B7260020938546C48D4813038002094E1A
:1053B00023A8F192B387C702138746C43E972320E0
:1053C000070A58C111450326070A63C1C802B3067C
:1053D0006602335854411378180005062320C70A83
:1053E000BE96AE9623A0C60123A20601850AE39CC1
:1053F000AAFC6FF0FF87AD65938505074E85EF30FA
:10540000804763110514CA851306801AA811EFA0FE
:105410007FD403A9C195630909EEAD6A93858A0714
:10542000A811EFE09F9F184191476309F7002D668F
:1054300013060608AD659385050A71BEAD699385AF
:10544000C90AA811EFE07F9D1C41054BF917E360E5
:10545000FBFE2D6A93054A0BA811EFE01F9C1C412F
:10546000F917E366FBFC93858A07A811EFE0FF9A22
:105470003D4693054500C801EF3000479385C90AB2
:10548000A811A309010CEFE05F99EFB0AFC293053B
:105490004A0BAA89A811EFE05F98EFB0AFC1AD65E4
:1054A0002A8A9385C50BC801EFA09FC935E103295E
:1054B000490E8D4763E12709370B00809307FBFFF7
:1054C000930500004E8583AAC195337AFA00EF4018
:1054D000C06763540500334A4B01930780083309C2
:1054E000F9021395190005819D45B3872A01130917
:1054F000091923A8A71E23A6471F33852A01EFB049
:105500008FCC2D661306060DAD659385050E49A05B
:10551000AD659385450CC801EFA09FC209CD8307F7
:10552000410C2547938707FD6367F700C801EF200B
:1055300010582A89BDBF2D66AD651306860E93856A
:10554000051051BCAD659385C5104E85EF30A03276
:1055500029E583A4C195638904DA13890419938921
:10556000843E138A043B230809064A858145EFB02F
:105570008FC51309890823A009009109E3152AFFA3
:105580002D66AD652388043A13064611938585126E
:105590002285EFE05F976FF02FD7AD6593850513F8
:1055A0004E85EF30402D25E11306801ACA85A811DB
:1055B000EFA05FBA83A4C195638804D42D699305D5
:1055C00089D7A811EFE07F851C410547F91763765D
:1055D000F7002D661306C613B1BD930589D7A81130
:1055E000EFE0BF83EFB0EFAB8D4763F9A7002D6607
:1055F0001306C614AD6593850516F1BA23A2A40E51
:105600000146814571B7AD659385C5164E85EF306E
:1056100080266317051083A9C195638709CEAD6500
:10562000938585D74A85EFE04FFFFD55EFB0AFA9D1
:105630002D6A9305CA17AA844A85EFE05F9E9305F9
:10564000CA1719E9AD6A93854A184A85EFE03F9D6C
:105650002A8A35C593854A184A85EFE00FFC034A2C
:105660004500AD6A9385CA184A85EFE05F9B938534
:10567000CA1819E92D6B93058B194A85EFE03F9AFB
:10568000AA8A29C993058B194A85EFE00FF9834A45
:10569000450063D30408938409199389093B23883F
:1056A0004407A3805409954563130A009145268554
:1056B00093848408EFB02FB1E39399FE91B78D479F
:1056C000E3E197FA93078008B387F402CE9703CA01
:1056D000072041BF8D4763EE970293078008B38789
:1056E000F402CE9783CA172193078008B384F4028B
:1056F0009545B38799002380472193840419A38893
:1057000057213385990063130A009145EFB0AFAB81
:10571000C5BDE3D704EE41B78D47E3D797FCCDB5C0
:10572000AD659385451A4E85EF30E01409C9AD6526
:105730009385C51B4E85EF3000146319051A83A9A4
:10574000C195638309BC2D66AD659385C51C1306A1
:10575000461CA811CAD5EFE09F8183A58187AA8A3C
:10576000EF40A03E6357A00223A659119387491C1E
:105770001387493E9306000023A05701D4C394C762
:10578000D4C794CB93878708E316F7FE4E85EFB016
:105790002FA52D66AD659385C51D1306461DA81161
:1057A000EFE0EFFC83A58187AA89EF40003A6358B8
:1057B000A00003A5C195232A3511EFB06FA22D6675
:1057C000AD659385051F1306461EA811EFE02FFA5D
:1057D00083A58187AA89EF4040376358A00003A5BD
:1057E000C195232C3511EFB0AF9F2D66AD65938524
:1057F00085201306C61FA811EFE06FF783A58187E8
:10580000AA89EF4080346358A00003A5C195232ED8
:105810003511EFB0EF9C2D66AD659385052213061B
:105820004621A811EFE0AFF483A58187AA89EF4054
:10583000C0316358A00003A5C19523223513EFB0F2
:105840002F9A2D66AD65938545231306C622A811B0
:10585000EFE0EFF183A58187AA89EF40002F63581D
:10586000A00003A5C19523283511EFB06F972D66D1
:10587000AD65938505241306C623A811EFE02FEF2D
:1058800083A58187AA89EF40402C6358A00003A517
:10589000C19523243511EFB0AF94AD6993854924A8
:1058A0004A85EFE08FD71C41054AF9176361FA0278
:1058B00083A4C195938549244A85EFE00FD6EFA0D4
:1058C0005FFE23A0A4122685EFB08F9115BBAD69B2
:1058D000938509254A85EFE04FD41C41F917E36110
:1058E000FAD283A4C19593850925F9B7AD6593854F
:1058F000C5254E85EF2030784DE983A9C195639485
:1059000009006FF06FA02D66AD651306C62693855E
:105910000527A811CAD5EFE04FE92D66AD65AA8A23
:105920001306462793858527A811EFE00FE82D661B
:10593000AD651306861B9385850B2A8AA811EFE0B7
:10594000CFE62D66AD65938545282A891306C627BF
:10595000A811EFE08FE5AA84930500005685EF407B
:10596000C01E6344050023A459139305000052850B
:10597000EF40A01D6344050023A6491393050000D2
:105980004A85EF40801C6344050023A82913930532
:1059900000002685EF40601B6344050023AA99128E
:1059A0004E85EFB06F864E8505B7AD659385C528EA
:1059B0004E85EF20506C2A8A631805241306801A3E
:1059C000CA85A811EFA00FF983A4C19599E06FF0E3
:1059D000AF932D69930589D7A811EFE00FC41C413F
:1059E0000547F917E367F7BE930589D7A811EFE0DC
:1059F000CFC2EFA01FEB8D47AA8963F6A7002D66E3
:105A0000130606D705BC93078003B307F5020147C9
:105A10001308E0052145A697BE86838546001386B8
:105A200005FE1376F60F6363C80C30193A960CA284
:105A300005078506E313A7FE2300010C9305E00587
:105A4000930A410C51468386C700138706FE1377DD
:105A5000F70F63E4E50A33874A0114A3050A8507B3
:105A6000E313CAFE230C010CD687B40913062002E7
:105A7000930570021305C0050387070009CB630473
:105A8000C7006313A7008CA38507E397F6FE3C19B4
:105A900094013E8A13062002930570021305C00587
:105AA0000387070009CB6304C7006313A7008CA317
:105AB0008507E397F6FE93078003B387F902A6975D
:105AC00003A9870283A5C183131B1900135B1B0065
:105AD0005A85EF30204101E983A5C1835A85EF4003
