:100000006F70905F130000001300000013000000E9
:100010001300000013000000130000001300000094
:100020001300000013000000130000001300000084
:08003000130000007300100032
:100038000000000000000000726700007667000002
:10004800000000007A6700000000000000000000C7
:1000580078670000947D00000000000000000000A8
:100068002C66000000000000987D000000000000E1
:100078009A7D00009C7D00009E7D0000A07D000010
:10008800A27D0000A47D0000566600006C6600009A
:100098008266000098660000AE660000B07D000031
:1000A800B27D0000B47D0000B67D0000B87D000080
:1000B800BA7D0000BC7D0000BE7D0000C07D000050
:1000C800C27D0000C47D0000C67D0000C46600003B
:1000D800CA7D000068650000CE7D00007C650000D8
:1000E80090650000B6650000DC650000D87D000062
:1000F800DA7D0000DC7D0000DE7D0000E07D000090
:10010800E27D00008A7B0000E67D0000E87D0000BB
:1001180004670000EC7D0000EE7D0000F07D00002B
:10012800F27D0000F47D0000F67D00000000000074
:080138000000000000000000BF
:1001400010219421050585056313D60075FA330542
:10015000D64082802A8309CA838305002300730066
:100160007D16050385056DFA82802A8311C623005A
:10017000B3007D16050365FE8280397101436EC6AA
:1001800019A0397141536AC866CA62CC5ECE19A003
:10019000397101535AD056D252D44ED64AD826DAA3
:1001A00022DC06DE33016140828241114AC026C250
:1001B00022C406C68282B24D4101024D924C224CAD
:1001C000B24B4101024B924A224AB24941010249D3
:1001D00092442244B2404101828001458280828063
:1001E0007D5582800347C503B7370020938707A654
:1001F0000A07BA979C4398431E2393F7070289C7BF
:100200004A231375F50F82807D558280EFF2FFF946
:100210001C414111CC87DC439305F10005468297D0
:10022000410175B737370140130707C0AA87630B31
:10023000E5023707004005456387E70213070740DB
:1002400009456382E70237170040930607800D4592
:10025000638BD700130707C011456386E70041652C
:100260007D15828001458280EFF23FF403A78199DA
:1002700083A7C1992A8458C51C402285DC4B8297EC
:10028000635D050083A681995C4403A7C199338708
:10029000F6401C44E362F7FE7D5515BFEFF25FEFB9
:1002A0002A89AE89B284014463149400228519BF5F
:1002B0004A855D3FE34C05FEB387890088A30504AA
:1002C000E5B7EFF2FFEC014495C2AA892E8A328984
:1002D000B68401444E85493F634A050063084501E1
:1002E000B307890088A30504E39684FE2285D9BD5F
:1002F000EFF21FEAB7F700E003A9819983A9C1993A
:100300009047D447411132C436C603AA819983AAC3
:10031000C1999047D44732C2984BDC4B1306170063
:10032000B336E600BE96631449016389590312454A
:100330001304803E3305A640B337A600B387F640CA
:10034000B307F402B335A4023305A402BE95330407
:100350004403EF80101D22954101ADB5A2473248FC
:100360001304803E3305F6403337A600B3870641B9
:10037000998FB307F402B335A4023305A402BE95E6
:1003800033042403EF80F019F9B781470547631A56
:10039000E5002D678E071307C775BA97DC4399C729
:1003A00082878507058193F7F70FD5B78280B72736
:1003B0000240C847058911E5C84741891335150032
:1003C0000D058280EFF27FDE2A848544CD376318E5
:1003D000950019E0154529A0D93F7D14CDBF7DD8E2
:1003E000FDB39C4513F7070113F8F70001C7D84187
:1003F0003368E80037270240145B3707000F758F1A
:1004000045EB85462388D198371701406315E500F1
:100410009A2135839AA18E2113F7F50F31C3184124
:100420008146054E930E80023D4F930F8004214379
:100430003316DE00B3F8C500631016036392D709C4
:1004400050C913962600B318CF0093C8F8FF33F7AE
:10045000E8003316C800518F8506E39B66FC18C17F
:100460001307F00F6375B70454410146054E930E10
:100470008002130F80042143130786003317EE0018
:10048000B3F8E500631117036390D70558C99318B3
:1004900026003D47331717011347F7FFF98EB318AE
:1004A0001801B3E6D8000506E31866FC54C1828043
:1004B00037170140E311E5F603C7019929DF89BF2A
:1004C000E391F7F910C9B5BFE393E7FD18C9C1B7C8
:1004D0003707300013560501931605013378E50000
:1004E0003D8AC182B707014063530502DC4F631C9C
:1004F000E80641060D473317C7001347F7FFF98F8A
:10050000BDCD558112053395A600C98F8DA8D8435E
:10051000B727024083A80703B707000FB3F71701F7
:1005200089EB93571700F9784E07B3F717014D83FE
:100530005D8FB70730006318F804370600F17D16A9
:1005400037080140B377C70003274800718F232283
:10055000E80091C5558112053395A600C98F37076C
:1005600001405CC3828037071000698F41F75581D5
:1005700012053395A6001347F5FFF98FD9F5370714
:1005800001405CCF8280B7071000E98F99CB8D477F
:10059000B397C70093C7F7FFF98F3707000FD98FBD
:1005A0004DBF55811205B396A60093C7F6FFF98F8C
:1005B0003707000FD98FC5D5D58F55B71E213737CF
:1005C0000140130707C0C207C1836304E502370770
:1005D00000406300E50213070740630CE50037178E
:1005E0000040930607806306D500130707C0631613
:1005F000E500BA2193F7F7F8D98FFA2193F7F7CFEF
:10060000C207C183D98F1EA1DE215EB59E211EB512
:10061000B7370140938707C06314F5009C251EB9C6
:1006200085475EA982801E294A25ED8F42054181BA
:1006300089C76D8D3335A0008280014582801629DF
:10064000F577FD17FD8EFE21DA25D58F1EA95625DB
:10065000FD779387379FFD8EDE21D58F9625D58F29
:10066000B625D58F5EA55E29A146C207C18393F743
:10067000F7CFD98F5EA9371702405C43B18B6398DF
:10068000D70E5C435843C166C983BD8B758F8907FC
:10069000C5466393D700C94701EF37470240032798
:1006A0000780418B09CF37177A001307072021A84D
:1006B000371702405843B7060200758F6DD73717BA
:1006C0003D0013070790B387E702371602405842F0
:1006D000B70600209386060511833D8B36971823B5
:1006E00033D7E7005C42A1839D8BB69703C8070010
:1006F0005C421378F80FAD839D8BBE969C225442CA
:10070000370600201306460CB9828D8AB2969422D1
:1007100093F7F70FB746014093860680B357F7006B
:100720006304D500B357070156256547B387E70231
:10073000C206C186984163D10604060793064006A7
:100740005225B3D7E7024206418633D7D702B3F723
:10075000D7021207635406028E0793872703B3D785
:10076000D7029D8BD98FC207C1831EA58280B71780
:100770007A009387072091BF0A07C9B7920793872A
:100780002703B3D7D702BD8BF1BFFD577D57631544
:10079000F50001458280B1059C41E38CE7FEE31C36
:1007A000F5FEC84182802D679376F50F130640024F
:1007B00013078768937705706364D6048A063697B3
:1007C00018439146D98F13D747003D8B63E0E60469
:1007D000AD66938646390A073697144313F7F70038
:1007E0008547B397E700C207C18337170140A1C10E
:1007F0006396E60003C7019911C3B5839CCA828042
:100800001376050C1308000C630606018DC9232816
:10081000000002901306900CE36AD6FEAD661375D5
:10082000F5030A0593868649AA96944241BF6396CA
:10083000E60003C7019911C3B583DCCA8280232A6D
:100840000000C1BF03A7819983A7C199BA8603A7F6
:10085000819983A7C199158FE36BA7FE828082805F
:10086000AA8798438D4748416314F7006F90C06092
:100870008280184189476315F70048416F90E06A0C
:10088000484182801C410547F9176363F700C9BFDF
:100890002E85828018419947AA866314F700484143
:1008A00005E999479CC203A701930D4605073367E5
:1008B000C7021306400A23A8E1923307C702B727ED
:1008C00000209387C7C43385E7002320050AC8C2E8
:1008D000828023A0A19423AAB19491C99C412E8522
:1008E000A9659C4F1306E0029385857582878280F7
:1008F000AA872E85C8C3B28590C7E1BFEFF25F8992
:100900002E894C412A844A85B289EF805070CE8569
:10091000EF80F06F4C44EF80207B832AC40148C4F1
:100920002A8AD685EF8050656357A0062326540196
:100930000C404A85EF80B06D4C44EF80E078AA848B
:10094000930500004E85EF80505D05C10C484A8537
:10095000EF90A0190C44EF80906BCE85EF80502D66
:10096000AA852685EF804076AA8483294401A6853E
:100970004E85EF80801063430500A689044CCE8528
:100980002685EF80705F6343A000CE842328240176
:1009900026856FF03F83B7040080B3C45401A68559
:1009A0005285EF80800DE35505F844C451B75C4192
:1009B000638BB700930700004CC11CD15CD17CD184
:1009C0003CD52326050682808347054B8DE3EFF255
:1009D000CFFD85472A842308F54A08411C41DC479E
:1009E0008297232CA44A232EB44A6FF04FFE8280B4
:1009F000032685128326C512032705139307451A7C
:100A00001305453C9305000090C3D4C398C7CCC7D9
:100A10008CCB93878708E397A7FE82809307854353
:100A200001470145054691468C4391C5B315E60043
:100A30004D8D4205418105079107E317D7FE82805E
:100A40003E2163F2F5041C259356060113578600D8
:100A500085EF93F6F60F1377F70F1376F60F03482B
:100A60003501834805015C45639008050D48B38551
:100A70000503AE970C29BE9594A11439BE9698A291
:100A80003829BA9790A38280B386F6021377F70FBE
:100A90001376F60F3307F702A18693F6F60F3306A7
:100AA000F6022183218265BF8A05AE973E98230016
:100AB0000800C9B7EFF26FEF2A849304B012EFF089
:100AC0003F835C486374F50048C8D5BF1D8DE3F8CB
:100AD000A4FE9967739007801C206388072C5C44F0
:100AE0004E20144C504C8823BE9513871700930753
:100AF00000083378F50090CA630108160100010070
:100B000001000100010001000100010001000100DD
:100B100001000100010001000100010001000100CD
:100B200001000100010001000100010001000100BD
:100B300001000100010001000100010001000100AD
:100B4000010001000100010001000100010001009D
:100B5000010001000100010001000100010001008D
:100B6000010001000100010001000100010001007D
:100B7000010001000100010001000100010001006D
:100B8000010001000100010001000100010001005D
:100B9000010001000100010001000100010001004D
:100BA000010001000100010001000100010001003D
:100BB000010001000100010001000100010001002D
:100BC000010001000100010001000100010001001D
:100BD000010001000100010001000100D0CA010074
:100BE00001000100010001000100010001000100FD
:100BF00001000100010001000100010001000100ED
:100C000001000100010001000100010001000100DC
:100C100001000100010001000100010001000100CC
:100C200001000100010001000100010001000100BC
:100C300001000100010001000100010001000100AC
:100C4000010001000100010001000100010001009C
:100C5000858363870714010069BD0100010001005D
:100C6000010001000100010001000100010001007C
:100C7000010001000100010001000100010001006C
:100C8000010001000100010001000100010001005C
:100C9000010001000100010001000100010001004C
:100CA000010001000100010001000100010001003C
:100CB000010001000100010001000100010001002C
:100CC000010001000100D0CA010001000100010083
:100CD000010001000100010001000100010001000C
:100CE00001000100010001000100010001000100FC
:100CF00001000100010001000100010001000100EC
:100D000001000100010001000100010001000100DB
:100D100001000100010001000100010001000100CB
:100D200001000100010001000100010001000100BB
:100D300001000100010001000100010001000100AB
:100D4000010001000100010001000100010001009B
:100D5000010001000100010001000100010001008B
:100D6000010001000100010001000100010001007B
:100D7000010001000100010001000100010001006B
:100D8000010001000100010001000100010001005B
:100D900001000100010001000100010001004DBD42
:100DA0006375B7000823050799B399679387870888
:100DB00073900780EFF0CFD348C86FF04FC1014563
:100DC00082808280EFF26FBEEFF08FD281456FF0AC
:100DD0000FC099C12E85BDB4828082808D4763E4A7
:100DE000B7003306C04093F5F50F6354C002931665
:100DF0000601C182814709476382E5046368B7023F
:100E000037170040130707809DE556BF2310F704EE
:100E1000828001CA3306C04093170601C183814610
:100E2000D9BF9307803E9306803EF1B70D47E3910B
:100E3000E5FE3707004056BB1EBF828037070040E3
:100E4000231AD742231CF7428280EFF20FB693F7A2
:100E5000F50F0D456363F50293F5F50FA2063725EF
:100E6000002093975500558F42061305059D598E16
:100E700081453E95F1366FF08FB59145E39DB7FE04
:100E8000A206558F420637250020598E814513054D
:100E900005A5CDB7EFF26FB1B7F700E09047D447A3
:100EA000411132C436C6984BDC4B7D151304170034
:100EB000B334E400BE94B385A4021306803E814699
:100EC000B337850233058502BE95EF7090652247E2
:100ED000B24701463AC03EC20148B7F800E003A756
:100EE000880083A7C8003AC43EC6024792472243FF
:100EF000B24363E5F304639477006361E304224340
:100F0000B243024E924E3307C341B336E300B38778
:100F1000D341958F3297B336C700C2973A8622479E
:100F20003388F600B2473AC03EC2E36AB8FA639427
:100F30000501E366A6FA41016FF06FA9024E924ED9
:100F40002243B307C441B2433337F400B386D441DC
:100F5000998E33876700B337F7009E96B6975DBFCB
:100F6000EFF20FA383A7419585CF03A7819983A7AC
:100F7000C1999309700C3A8403A541951C41DC5337
:100F8000829719CD83A6819903A7C199B38786401B
:100F900063E8F60063E6F90013054006E53DE9BFA6
:100FA0006FF04FA2EFF26FA037250020930705A541
:100FB000DC4781C7130505A5F53C37240020130441
:100FC000049D930404085C4499C32285E53413040A
:100FD0000402E31A94FE6FF08F9FE9B7828083A723
:100FE000819085C303D7474083D6674005071377B1
:100FF000F73F6308D70083D64740BE96C8A2239226
:10100000E7408280035645408356654093170601AA
:1010100013970601C18341833385E7406375D6008A
:1010200013850740198D4205418182800357454051
:1010300083576540630FF70083576540AA97D8230D
:1010400083576540850793F7F73F2313F5403A85AB
:1010500082807D558280AA87814613950601418151
:101060006378C50203D8474003D767406302E802AC
:1010700003D767403E9748233387D500850608A3EA
:1010800003D7674005071377F73F2393E740F1B78E
:1010900082800545828083C7819213F5F70F8DE723
:1010A000B707024013874704FC43858B91C75C4315
:1010B0000545C207C18389EBB747014003D50780C7
:1010C0001D81134515000589828003A6819903A718
:1010D000019083A6C1996377E60003A7C18F050736
:1010E00023AEE18E03A5818F23A0C19083A5C18F7C
:1010F000518D8280D9BFEFF24F88C13FB7070240C0
:10110000D84703A60192420741832A84AE8463082C
:10111000E60823A0E19223AC819023AE919083A7AF
:1011200001916399870083A7419163959700B36705
:101130009400B5E303AD419283AB018337190020DE
:1011400003AB41831309099D856A138A010F930C30
:101150000901938DFAFF4A870145B30659011E2301
:101160004107EA9763C75707EE873E95E319D7FE15
:101170002185EF80905BDE85EF806069DA85EF8006
:1011800000692320AA000909110AE31699FD23A882
:10119000819023AA91901385010F6FF0CF8103A74F
:1011A000819183A6C1913307E5403336E500B386CC
:1011B000D5406396C60093064006E3F2E6F637276D
:1011C000014013070740144737065000D18E14C75B
:1011D00099B7E3DC07F8814749BFEFE21FFD2E8492
:1011E000193FAA871305000081CF0D47B30587403B
:1011F000939615001D476365D7008E05AE9788430B
:101200006FE0FFFCEFE27FFA2E84F5352A87014577
:101210000DC38D47818F860785079D4663EBF600DA
:101220008A073E9783A581830843EF80E0543325E6
:10123000A0006FE0DFF9EFE25FF72E846D3D2A87B3
:101240001305000019CB8D47818F860785079D46C2
:1012500063E5F6008A073E9708436FE05FF75C415D
:1012600014419C439842FD176379F7001C4513060F
:1012700017009C4390C2BA978CA3828081ED828034
:101280001C451306170085059C4390C28386F5FF15
:10129000BA9794A38387050081CB5C4114419C439A
:1012A0009842FD17E36EF7FC82808327050A63D519
:1012B000F50293078002B385F5028946B307B500AE
:1012C00098436314D700C84382808D460145631755
:1012D000D700C8436F80503A0145828082805C41CC
:1012E00014419C439842FD176379F7001C4513068F
:1012F00017009C4390C2BA978CA382808387050015
:1013000081CB5C4114419C439842FD176363F70015
:1013100082801C451306170085059C4390C2838676
:10132000F5FFBA9794A3D9BF5C4114419C439842FE
:10133000FD176379F7001C45130617009C4390C204
:10134000BA978CA382808387050081CB5C411441CE
:101350009C439842FD176363F70082801C45130687
:10136000170085059C4390C28386F5FFBA9794A326
:10137000D9BFEFE29FE0B7270020138707A7597175
:101380004047444B832B4702032C07022AC60147E0
:10139000938707A7634A872283AAC70203AB870202
:1013A00083AD0701214D37F900E0A54903278900E6
:1013B0008327C9001306803E3AC83ECA03270901A5
:1013C000832749018146130A1700B33CEA00BE9CFB
:1013D000B3859903B3B7490333854903BE95EF70CD
:1013E00050144247D247AA883ACC3ECE0145014824
:1013F000032789008327C9003AC83ECA6247F247DB
:101400004246D24663E1F61E6394D700636DE61C44
:10141000424ED24E6246F2463303CE4033376E0020
:101420003386DE409A87198EAA9733B7A700429673
:101430003308C70042473E85D2473ACC3ECEE369E7
:10144000B8FA63940501E36515FB814763C1871C06
:10145000032789008327C9001306803E3AD03ED275
:1014600003270901832749018146130A1700B33C6A
:10147000EA00BE9CB3859903B3B74903338549039A
:10148000BE95EF70100A02579257AA883AD43ED6FA
:1014900001450148032789008327C9003AD03ED27D
:1014A0002257B2570256925663E2F6186394D70059
:1014B000636EE616025E925E2256B2563303CE404B
:1014C00033376E003386DE409A87198EAA9733B77A
:1014D000A70042963308C70002573E8592573AD478
:1014E0003ED6E369B8FA63940501E36515FBEE8621
:1014F000014763418716814763C487187D1DE31741
:101500000DEAB7F700E09047D447254532D836DAE0
:10151000984BDC4B1306803E13091700B339E900E2
:10152000BE99B30535038146B3372503330525033B
:10153000BE95EF70007F4257D2572A833ADC3EDED9
:101540000147814737F500E01045544532D836DA77
:101550006256F2564258D25863E3D8146394160187
:10156000636FC812C25E525F6258F258338E0E41EA
:1015700033B6CE0133081F41F2863308C840BE9609
:1015800033B6F6003A98330706014256B687D2566C
:1015900032DC36DEE36AB7FA6394E500E3E667FA25
:1015A000B2476395073263D0871413972700B38639
:1015B000E400944281EA62971443139717005E9700
:1015C0001A2398CA8507C5B7931627003386D40017
:1015D000104201EAE296904293161700DE96962298
:1015E00014CA050745BB6246F246424EB307CA40DD
:1015F000D24E3333FA00B386DC403387C701B3865B
:1016000066403336F700F696BA87369631BD1397A3
:101610002700B386E400944281EA5A971443139753
:10162000170056971A2398CA85070DB52256B25649
:10163000025EB307CA40925E3333FA00B386DC40E1
:101640003387C701B38666403336F700F696BA870C
:101650003696ADBD9E22131627006296104286076D
:10166000C2070C46C183131617009EA25E96122273
:101670006D8E01C693E717009EA20507890695BDEA
:1016800013972700B386E400944281EA5A971443E3
:101690001397170056971A23D8CA8507B1BD625809
:1016A000F258C25EB3060941525F333ED900B38897
:1016B00019413386D601B388C8413338D600FA9829
:1016C000B28646986DBD13972700B386E400944216
:1016D00081EA62971443139717005E971A23D8CABA
:1016E0008507E3C287FEB7F700E09047D44725455A
:1016F000B2C0B6C2984BDC4B1306803E13091700EC
:10170000B339E900BE99B30535038146B3372503E4
:1017100033052503BE95EF70C06006479647014626
:10172000BAC4BEC6814E37FE00E003278E00832771
:10173000CE00BAC0BEC22647B6470648964863E9FF
:10174000F818639417016365E8180648964826431D
:10175000B64333076840B336E800B3877840958FC7
:101760003297B336C700F6973A860647B38EF6002F
:101770009647BAC4BEC6E3EABEFA6394D501E366EF
:10178000A6FA814763C88716B7F700E09047D447A9
:101790002545B2C8B6CA984BDC4B1306803E1309E8
:1017A0001700B339E900BE99B30535038146B33755
:1017B000250333052503BE95EF70A0564647D6474F
:1017C0000146BACCBECE814E37FE00E003278E0024
:1017D0008327CE00BAC8BECA6647F6474648D648F1
:1017E00063E9F812639417016365E8124648D64826
:1017F0006643F64333076840B336E800B387784062
:10180000958F3297B336C700F6973A864647B38E20
:10181000F600D647BACCBECEE3EABEFA6394D50151
:10182000E366A6FA814763C88710B7F700E09047E0
:10183000D4472545B2D0B6D2984BDC4B1306803E38
:1018400013041700B334E400BE94B3059502814637
:10185000B337850233058502BE95EF70804C06577D
:1018600096570146BAD4BED60148B7F800E003A7A0
:10187000880083A7C800BAD0BED22657B6570653F1
:10188000965363E9F30C639477006365E30C0653A6
:101890009653265EB65E3307C341B336E300B38783
:1018A000D341958F3297B336C700C2973A86065711
:1018B0003388F6009657BAD4BED6E36AB8FA639472
:1018C0000501E366A6FA65616FE0FF8E814711BDF1
:1018D0002643B6430648B307694096483337F900B4
:1018E000B3867940998E33870701B337F700C696E0
:1018F000B697BDB513972700B386E400944281EAFA
:101900005A9714431397170056971A2398CA8507B6
:1019100095BD6643F6434648B3076940D64833371A
:10192000F900B3867940998E33870701B337F70002
:10193000C696B697F9B513972700B386E40094428C
:1019400081EA5A9714431397170056971A23D8CA57
:101950008507D1BD265EB65E0653B307C4419653D4
:101960003337F400B386D441998E33876700B33799
:10197000F7009E96B6973DB737270020930707A735
:10198000D04B8C4B130707A78147544763C3D7003D
:10199000828093962700B29623A0060093961700A4
:1019A000AE96239006008507CDB739C5030705001D
:1019B000930720026312F7049307150001471303EE
:1019C0002002130EC0051308F6FF9308E006930EDD
:1019D0002007130F40078386070089CE1385170061
:1019E00063956600636EC70482806394C60583872F
:1019F000170091EB8D4711A089473727002023243A
:101A0000F7C401458280637F07016380170363D7B2
:101A1000F800638ED7016393E701A547B386E5001D
:101A20009CA20507930715007DB7A947C5BFB54719
:101A3000F5B73E85E37807FFB387E50094A3D5B7F4
:101A4000BA9523800500828019CD370780FFDD46D7
:101A500031171C21DD1793F7F70F63E6F600B35734
:101A6000F740858B91C382800505E5B7EFE2EFF380
:101A700004412A8485452685EFE0FFBA19CDDE248E
:101A8000858B81CF0325C4FF5C5D89C73C4113056D
:101A9000450382971C4079579AAB6FE04FF3EFE212
:101AA000CFF000412A895E24898B91EB5E24918BD3
:101AB00099E75E24A18B81E75E24C18B8DC78945A0
:101AC0002285EFE05FB615C1F5571EA88544832730
:101AD000C9FF8D049204138544003E95184501C743
:101AE000A6979C4B82976FE08FEE91452285EFE0A1
:101AF0009FB309C5ED571EA88944D1BFA1452285D2
:101B0000EFE07FB209C5DD571EA88D44C9B7C145B6
:101B10002285EFE05FB145DDBD571EA8914445BF6A
:101B2000EFE2AFE8411102C202C402C6FD576313DF
:101B3000F50001A01377F500AD670A079387C77119
:101B4000BA97118103A907003D899147AE840144EA
:101B500063ECA702A967938787780A053E951C4125
:101B60003717024082871C4F3714014093E7470024
:101B70001CCF1304048009A81C4F37140140130420
:101B800004C093E787001CCF93D7844093F7F707EF
:101B90006387071EB7160240984EFD17136717009C
:101BA00098CE1307F004636CF71C29678A071307A4
:101BB000C779BA979C4382871C4F3714014093E73B
:101BC00007011CCFD1B71C4F371401401304044048
:101BD00093E707021CCF4DBF1C4F3724014093E70A
:101BE00007041CCF79B785450545EFE07F8E41AAF4
:101BF0008145DDBF85450945CDBF8145EDBF8545A3
:101C00001145E5B78145EDBF85452145F9BF8145C2
:101C1000EDBF85453705140013050503F9B7854564
:101C2000370514004105D1B78145EDB78545370526
:101C300016001305050C55BF85453705160013051D
:101C4000050465B78145E5B78545370518001305D7
:101C5000053061BF8545370518001305052071B7AC
:101C60008545370518001305051041B78145F1BFBB
:101C7000854537151A00130505C085BF37151A00AD
:101C800085451305058095B78145E5B7854505650B
:101C9000A9BF8145EDBF854537451D00B9B78545CD
:101CA00037651D0099B78145E5BF8545216535BF7D
:101CB0008145EDBF85453705200005053DB78145C8
:101CC000DDBF8545370520001305050239BF814575
:101CD000D5BF8545370520009DB78145E5BF8545C2
:101CE000370520001305050809B78145D5BF85458F
:101CF000370520000905D5BD8145DDBF8545370580
:101D000020001105DDB58145DDBF85453705200083
:101D10002105E1BD8145DDBF85453705200019B7A7
:101D20008145E5BF85453705300035BF8545370519
:101D3000300025B78545370530001305054075B5DA
:101D400085453715200055B58145E5BF81453725C7
:101D5000200061BD8545E5BF85453745200071B54B
:101D60008145E5BF85453705008061BF854537055D
:101D700013804DBD370701405C4F9D9B5CCF93D7CF
:101D8000244013F734008D8B65CB3AC40947638137
:101D9000E70E0D476380E70E05476389E70CC147EF
:101DA0003EC6D5A085453705158051BD854537050B
:101DB000158019BF370701405C4F93F7F7F97DBFD6
:101DC00085453705008095BF8545370530801DB7AF
:101DD000854537053080D5B5B7060140DC4E37075D
:101DE000FDFF7D17F98FDCCE59BF85453705328061
:101DF00005B785453705328029B7B7060140DC4E67
:101E00003707F4FFF9BF85453705348075BD854533
:101E10003705348001BDB7060140DC4E3707D0FFDF
:101E2000C9B785453705368075BD85453705368088
:101E300039B5B7060140DC4E370740FF5DB7854531
:101E40003705388019BD85453705388029BDB70667
:101E50000140DC4E370700FD69B785453705208016
:101E6000E9BDB7070140D84FD8CF11BFD1470DBF4B
:101E7000E1473DB7F1472DB70547638FE700894636
:101E8000638ED70095E34C00228523122101EFE0F9
:101E90004FD541016FE0AFB3914719B791848D8859
:101EA00093078004E38EE4EE93078002D5BDFD57CF
:101EB0007D576318F50082806314F5008C458DB161
:101EC000B1059C41E39AE7FE01A0EFE20FAB83A7C7
:101ED000819901113704002003A8C1993EC49307DA
:101EE000040203C7C7022ACA42C68D47AE8913043B
:101EF000040263E3E7048347C402373700209306F4
:101F000007A68A07B69790431305703E834786025B
:101F10008A07BE969C42930607A603A8070083572C
:101F2000080093F70704638A072C01476395E92E9D
:101F30004E8505616FE02FA82D6A93058A622545BD
:101F4000EFE0BF84630E0520373900208144114D36
:101F5000130909A6230694026395A40993058A62CE
:101F60002545EFE09F82630D051EA54793058A6214
:101F700025451CCCEFE07F810328C401AD6D93851E
:101F80008D5CAA84428542CEEFE03F80832B040221
:101F90002D6D9305CD58AA8A5E85EFE00FFF505056
:101FA000AD6C2A8993850C55328532CCEFE0EFFD7C
:101FB0002A8B6387041A7248FD556246630EB80681
:101FC00063800A1A6383BB04630C09186313B60A9F
:101FD000639A541B638A24196303090463130B0A6D
:101FE000B5AA93972400CA9783AC0700638B0C00B3
:101FF00093058A622545EFE04FF983A70C00E38C37
:10200000A7EE850493F4F40FB1B7630F760163096B
:102010000514639654076381241563140906631736
:102020009B14232064018DA0638654156319091441
:10203000DA8404C0B1E82DA2638B0B03630209129A
:10204000630D0601630E0510E38754FDE3850AFC6A
:1020500023202401631469113DA063855411638317
:102060000A106319A90E23202401CA8431A8630928
:10207000760D63070B0EE38054FBE38E0AF8E31939
:1020800009FC23206401DA84B74601409386068068
:10209000639ED40E37160240144E9165CD8E14CE39
:1020A000230604029306500314D493058A6225453F
:1020B000FD3B63860A00484C93858D5CCD3B014A0D
:1020C0006308090008509305CD58130A0010C53362
:1020D00063080B00485093850C55136A0A20C13BD6
:1020E0000349C402B7370020938707A69316290037
:1020F000B697B706002093864602044094C3F16762
:10210000938707201CC4B7070C0044C02326040093
:102110001CC8231A440163960A00DE2893E787004F
:10212000DEA8B7050020938585022685EFE02FD134
:10213000DE240967D98FDEA48D47E3FE27DB0DA0DF
:10214000E38A54E9E3880AE8E30409EE2320240142
:10215000E30BA9F2CA8419A8E30569F3232004005C
:102160008149F9B3E39C24E7E38D64F1E3180BFEA6
:1021700004C019BFE39224E7E39EAAFCEDB5E31B7C
:10218000A9FC01B7E318A9FCCA8465B5B7460040AD
:1021900093860640639FD40037160240544EB7051D
:1021A0000200CD8E54CE85462306D40293066003EA
:1021B000E5BDB756004013860680639FC4003716FE
:1021C0000240544EB7050400CD8E54CE89462306F6
:1021D000D40293067003C9BD938606C0E397D4EC7E
:1021E00037160240544EB7050800CD8E54CE8D46AA
:1021F0002306D4029306D00345BD03A48199A247C8
:1022000083A4C199B305F4403337B400E31A97F4BB
:10221000E377B5D0B1B7834786028A07B6979C4368
:102220008C439E2193F70704EDDFD2451C42BA95FB
:102230008C210507CEA3DDB92E85B28579B1EFD209
:10224000DFF6371402401C4C39713715014093E713
:1022500047001CCC8D473ED20C109307F00F13059E
:1022600005802310F10202D4EFE0AF975C483707F6
:102270000240416693E717005CC81C477916F18F4E
:102280001CC7232407002326070023280700232A2E
:1022900007005C4361763D0693E7F7005CC31C478B
:1022A000F18F0D661306065AD18F1CC78567938779
:1022B00007805CC7B72701401386C74410CB371689
:1022C00000201306069D50CB14479387074093E6E2
:1022D000160014C75844D176FD161367072058C45A
:1022E00058441377F7DF58C45840758FB166558F3F
:1022F00058C0184C1367072018CC72566257D44345
:10230000518F3706F1E01306F6EFF18E558F136704
:102310000710D8C39847B7F6F1FF9386D67F758F1D
:10232000B7060E008906558F98C7D857B70610FF15
:10233000FD16758FB7067000558FD8D79847B7062A
:1023400000FCFD161367170098C7D843758FD8C3D4
:102350009847B72601401367870098C793870640C0
:102360009847218B65FF98471367470098C7372721
:102370000140930707409C47918BE5FF2303010031
:102380002546372701401C836376F60623030100A8
:10239000A54621461C8363F1F60A23140100231588
:1023A0000100230301009546130600601C8363F8B7
:1023B000F6101C8363820714388414833C840C83D6
:1023C00010833347D702B3E7B7028607B3C7C70204
:1023D000BA97C207C1837C84188399479546998F21
:1023E00093F7F70FDC839C83639D071285679387C0
:1023F000078091AA930607409C4693E787009CC6F6
:10240000930707409447A18AE5FE944793E6460068
:1024100094C7930607409C46918BE5FFF4461C83C6
:102420008607938707048A972396D7FC1C83850722
:1024300093F7F70F5C8381BFA30301009C8363784C
:10244000F6001C83850793F7F70F5C83A1B7988389
:102450009C830607850786071307070493870704ED
:102460000A978A970357C7FC83D7C7FC63F3E7042F
:102470009C838607938707048A9783D7C7FC7C844D
:102480009C83988385078607938707048A9783D55B
:10249000C7FC93171700938707048A972396B7FC06
:1024A0009C83388485078607938707048A97239639
:1024B000E7FC9C83850793F7F70FDC8341B71C8308
:1024C00089078607938707048A9783D7C7FCE36247
:1024D000F6EE1C83388489078607938707048A975A
:1024E00083D7C7FCBA97C207C1837C841C83850746
:1024F00093F7F70F5C835DBD93070040E9BD1C8334
:10250000388589078607938707048A9783D7C7FC8E
:10251000BA97C207C1837C851C83850793F7F70FA1
:102520005C831C83E3FDF6FC388594833C858C83B7
:1025300090833347D702B3E7B7028607B3C7C70212
:10254000BA97C207C1837C853C84308528842C855A
:1025500085661307004093860680B307F7403386ED
:10256000C640098F8D8EC20742064207C2064186C9
:10257000C1874187C186B297369709463367C7023C
:10258000372301400D4E9D45994E15457D48B3C7F3
:10259000C702BA97C207C18723A2F1928147B386C7
:1025A000C70313070340104BB396D500D18E138693
:1025B000170014CB9376F60F63E2DE02B388A7020E
:1025C000032F4703B316180193C6F6FFB3F6E601CF
:1025D000B3971701D58F5CDBB287D1B7B386A7025B
:1025E0008328070389163316D8001346F6FF33767F
:1025F0001601B396D700D18E14DB6384B7009D47D4
:1026000079BF1C47B70650001305001093E7071069
:102610001CC71C47D58F1CC7EFE0CFA221616FD02C
:102620001FBBEFD29FB8371402401C4C0111B714E6
:10263000014093E7C7001CCC9307803FFC82E14731
:102640003ECE4C088D47138504C03ECCEFD07FD9D9
:10265000E1774C0813850480FC82EFD09FD81C4C96
:1026600037051800854593E717001CCC5C4C130513
:102670000530B714004093E717005CCC5C4C93E73F
:1026800027005CCC5C4C93E747005CCCEFD05FE468
:1026900037151A00854513050580EFD07FE3854780
:1026A0003EC42C009307703E3705004037040040BD
:1026B0003EC6EFD0BFF02C0013050440EFD01FF052
:1026C0002C0013850480EFD07FEF1E30E5759385D5
:1026D000F5CFC207C183F99BC207C1831EB01E306C
:1026E00056201A2CC207C20642074183C1821377C3
:1026F000C7F856A013670706C1831AACF59B231AC7
:10270000040293E717001EB01E301966C207C1838A
:10271000BD9BC207C1831EB01E3056201A2CC207B3
:10272000C2066D8F518FC182420756A04183C1837B
:102730001AAC93F7F7FD93E70701231C04021EB0C0
:10274000035704429307044042074183799B4207A1
:1027500041839AB39A33CA23962F42074205C20691
:10276000C182418193F6C6F8CAA393E60606418367
:1027700096AF759B239A0702136717009AB39A3393
:10278000420741833D9B420741839AB39A33CA2350
:10279000962F42074205ED8ED18EC2064181C1823D
:1027A0004183CAA31377F7FD96AF239C07021367F3
:1027B00007019AB303D704829387048042074183B9
:1027C0001377F7EF420741839AB39A33CA23D62F80
:1027D00042074205C206C182418193F6C6F8CAA3E8
:1027E00093E606064183D6AF1377F7DF239E0702F1
:1027F000136707109AB39A3342074183799B4207C4
:1028000041839AB39A33CA23962F42074205C206E0
:10281000C182418193F6C6F8CAA393E606064183B6
:1028200096AF759B239A0702136717009AB39A33E2
:10283000420741833D9B420741839AB39A33CA239F
:10284000962F42074205ED8ED18E4181C206CAA362
:10285000C182418396AF1377F7FD239C070213676C
:1028600007019AB39A33420741831377F7EF420780
:1028700041839AB39A33CA23D62F42074205C20630
:10288000C182418193F6C6F8CAA393E60606418346
:10289000D6AF1377F7DF239E0702136707109AB3AB
:1028A0009A33FD76FD16758F9AB39633CA23DA2FC5
:1028B00042056D8F518F418142077976CAA34183CA
:1028C0007D16DAAFF18E056623900704D18E96B39C
:1028D0001E2093E717001EA08357044093E71700BC
:1028E0002310F44083D7048093E717002390F480EB
:1028F00005616FD0DF8DEFD25F8B011123130100D3
:1029000002CA02CC02CE23A4A190B7170240984F6E
:10291000916637140140558F98CF984F1305048066
:102920008D441367470098CFD84B4C000569136757
:102930001700D8CB930700207C82E1473EC626C40F
:10294000EFD03FAA93070040130504807C824C001F
:10295000930780043EC6EFD0DFA8C147130504806B
:102960004C003EC62312210126C4EFD09FA71304BA
:102970000480F167232A240193870720374401400C
:102980003EC80C08B14713050480FC85EFD03FCB4F
:102990009307C48098431367070298C3984313674B
:1029A000070498C303A7419011E7B7E700E0A38AA3
:1029B000074225A083A641900547E388E6FE83A64B
:1029C00041900947E383E6FE03A74190E30F97FC9C
:1029D00003A741909147E30AF7FCB7E700E0370708
:1029E000200023A2E710374701409387410C93064C
:1029F000478094C3C14694C793060008D4CB8D6624
:102A0000D4D323A2070023A0070223A8070023A4EE
:102A1000070223AE070023AC070023A60700930795
:102A200007800357C7808966558FDAA78567938724
:102A3000E7FD23A6F19205616FD06FF9EFD24FF554
:102A400005472384E192B74701401307F0FB239029
:102A5000E780B7070240FC432E893284858B8DCBFB
:102A6000E1649384146AB709024093874904DC4304
:102A7000C207C18399C7FD1489C40545EFE08FC122
:102A8000EDB7B7060240FC4241677917F98FFCC2E7
:102A9000B7060240FC4241677917F98FFCC223A2B6
:102AA000060423A4060423A6060423A80604DC4285
:102AB0003D672285D98FDCC21387410C2322270171
:102AC00040C7F042E177BD070C537D8E1C47CD8F88
:102AD0000C4BCD8F4C4BCD8F0C4FCD8F4C4FCD8FA2
:102AE0004C53CD8F0C57CD8FD18FFCC2A0C61C4349
:102AF0000567FCC623A82605FC4293E71700FCC225
:102B0000B71701409387078098CBB747014003D799
:102B100047819387C780136707089AA71307F0FBBD
:102B2000239AE7FE98431367070498C36FD08FE991
:102B3000EFD2AFE791472A841CC17D461105EF50C3
:102B4000901DA30104026FD08FE881E523200500CA
:102B50008280F9BFEFD2EFE29377F50F13074002BF
:102B60002E896365F7042D678A0713078768BA976C
:102B70009C43137405705D8CFD576304F426373B4A
:102B80000020135C240093078BA3137CCC03E297F3
:102B90009C43937CF400130B8BA3B3D79701858BD5
:102BA000B1CFAD699387893AFD561DA81377050CFF
:102BB0009306000C6317D7221307900C6363F72268
:102BC0002D679376F5038A061307874936971843CE
:102BD000AD67938787680A0759BF630FE420B10781
:102BE0009843E31CD7FE629B03270B008547B397EE
:102BF000970193C7F7FFF98F2320FB007D199147B9
:102C0000914563ED271DAD679387C78D0A093E99EE
:102C10008327090082870A05938744015E951CC1BA
:102C200093070008DCD4930700049CD8B737014011
:102C300023AC4401C4C823AE040023A004022392A1
:102C40000402938707C06312FA0EB71602409C4E27
:102C5000056713070780D98F9CCE83A7890089CB8E
:102C60000D46CE854E85829723A4090023A6090030
:102C7000C109E394A9FF884CC167FD1723AE040086
:102C80009CD01E2123A0040023A2040093E7070880
:102C900023A4040023A6040023A804001EA19385F6
:102CA000C401EFD0BF91B7E700E093870710130787
:102CB0000020D8C3056793060780D4C3D8C309672B
:102CC000D8C31167D8C3B3875B019C4384C3DE9A22
:102CD00083A70A0083A90700E38709F083A4890179
:102CE0002685EFD02FD4B7370140938707C063996B
:102CF000F408B71602409C4E7D771307F77FF98FD3
:102D00009CCE0A055E952320050023AA0900938422
:102D10004908138A4903638C440BC1149C44E5DFC2
:102D20000D46A68526858297FDB7B7070040631933
:102D3000FA00371702405C4F93E717005CCF31BFB2
:102D4000938707406318FA00371702405C4F93E7F8
:102D50002700EDB7B7170040138707806318EA0014
:102D6000371702405C4F93E74700C9BF938707C0FE
:102D7000E315FAEE371702405C4F93E787007DBFFB
:102D8000B70700406398F400371702405C4FF99B87
:102D90005CCF85BF938707406397F40037170240E5
:102DA0005C4FF59BF5B7B717004013870780639713
:102DB000E400371702405C4FED9BD9BF938707C0F3
:102DC000E391F4F4371702405C4FDD9BD1B79305D4
:102DD00040084E85EF50A00B39B58D452285EFE0B8
:102DE0003FD46FD08FBDE145D5BF93058002FDB7BD
:102DF0008145EDB79D45DDB79385893A2285EFD0B2
:102E0000DF98EFD02FC2B73B00209387CBA4931A53
:102E10002500D6979C43938BCBA4E39A07EA13052E
:102E20004008EF50E006AA849385893A2285EFD0C6
:102E3000DF95938944032A8A138D4408CE8723A003
:102E4000070023A2070023A4070023A60700C10749
:102E5000E317FDFE5285EFD0EFBCC167FD17E31C01
:102E6000F5DA01A0EFD26FB137240020930704A751
:102E7000C44703A9470103AC470283AC070203AB75
:102E8000C70283AB87025D712AC4214D930D0008F0
:102E9000130404A7B7F900E0254A03A7890083A714
:102EA000C9001306803E3AC83ECA83A7090103A899
:102EB00049018146938A170033B7FA003A98B3055F
:102EC0000A0342C6B3375A0333055A03BE95EF507F
:102ED00050654247D24732483ACC2A833ECE01451C
:102EE000814803A7890083A7C9003AC83ECA624740
:102EF000F2474246D24663EAF6066394D700636619
:102F0000E6064247D247E24E724F3306D741333E80
:102F1000C7003387E7413307C741B287AA97B3B6E3
:102F2000A7004697B388E60042473E85D2473ACC91
:102F30003ECEE3E8B8FA63941501E36465FAA2476C
:102F4000B3F7B7016394072863D497061397270054
:102F5000B306E900944281EA669714431397170079
:102F600062971A23D8CA8507C5B76247F247424617
:102F7000338FEA40D246330EF840B3BEEA01330E37
:102F8000DE41B307CF0033B7E701F296369779B742
:102F900013972700B306E900944281EA6697144329
:102FA0001397170062971A2398CA8507E3C297FE02
:102FB000814763CF972003A7890083A7C900130621
:102FC000803E3AD03ED283A7090103A84901814639
:102FD000938A170033B7FA003A98B3050A0342C63A
:102FE000B3375A0333055A03BE95EF509053025737
:102FF000925732483AD42A833ED60145814803A7E6
:10300000890083A7C9003AD03ED22257B257025650
:10301000925663EEF61C6394D700636AE61C02576F
:103020009257A25E325F3306D741333EC7003387E3
:10303000E7413307C741B287AA97B3B6A7004697BF
:10304000B388E60002573E8592573AD43ED6E3E86D
:10305000B8FA63941501E36465FA814763CC971A63
:103060007D1D93DD1D00E31A0DE2814763C3971CAC
:10307000B7F700E09047D447254532D836DA984B69
:10308000DC4B1306803E9309170033BAE9003E9AE1
:10309000B30545038146B337350333053503BE9584
:1030A000EF5030484257D257014E3ADC3EDE0147DE
:1030B00037F300E0032683008326C30032D836DAD4
:1030C0006256F2564258D25863E4D81863941601F7
:1030D0006360C818C25E525F625CF25C33888E41E6
:1030E00033B60E01B3079F41C286918FBA9633B6AD
:1030F000E600F297330EF60042563687D25632DC9F
:1031000036DEE369BEFA6394C501E365A7FA814739
:1031100063C49716B7F700E09047D4472545B2C07F
:10312000B6C2984BDC4B1306803E9304170033B9AC
:10313000E4003E99B30525038146B3379502330574
:103140009502BE95EF50F03D064796470146BAC43A
:10315000BEC60148B7F800E003A7880083A7C800EF
:10316000BAC0BEC22647B6470643964363E5F3128C
:10317000639477006361E31206439643264EB64E8E
:103180003307C341B336E300B387D341958F3297FA
:10319000B336C700C2973A8606473388F60096478B
:1031A000BAC4BEC6E36AB8FA63940501E366A6FA38
:1031B00081448549544463C2D41050484C54085447
:1031C000814763CBD71261616FC0FFFE8147F9BBB6
:1031D00013972700B306E900944281EA5E971443EF
:1031E000139717005A971A2398CA8507D9B32257FD
:1031F000B2570256338FEA409256330EF840B3BEB0
:10320000EA01330EDE41B307CF0033B7E701F29690
:1032100036971DB513972700B306E900944281EA5B
:103220005E971443139717005A971A23D8CA850735
:1032300035B513972700B306E900944281EA6697F3
:1032400014431397170062971A2398CA850739BD4C
:103250006258F258425FB3870941D25FB3BEF900AA
:1032600033081A413386E7013308D841B337F600F3
:103270007E98B286C2979DBD13972700B306E900DA
:10328000944281EA5E971443139717005A971A23C2
:1032900098CA8507B5BD264EB64E0643B387C441CE
:1032A000964333B7F400B306D941998E338767004C
:1032B000B337F7009E96B697D9BD1C4C13992400DE
:1032C0008945CA978843EFF0FF881C5093961400F5
:1032D000CA979C4398475C50B6979E23F98F89C73D
:1032E0005C48CA9723A037011C4C95458504CA97B2
:1032F0008843EFF03F867DBD139727003308E60033
:1033000003280800631B08002A9703280700139767
:1033100017002E971A23232AE80085075DB5EFC210
:103320005FE6B7F700E09047D447797132C036C204
:10333000984BDC4B2A8A13041700B334E40025456C
:10334000BE94B30595021306803E8146B3378502CD
:1033500033058502BE95EF50D01C024792470146C7
:103360003AC43EC60148B7F800E003A7880083A727
:10337000C8003AC03EC22247B2470243924363E3C9
:10338000F31C63947700636FE31A02439243224E67
:10339000B24E3307C341B336E300B387D341958FB1
:1033A0003297B336C700C2973A8602473388F60091
:1033B00092473AC43EC6E36AB8FA63940501E366ED
:1033C000A6FAB7270020138707A744470329470118
:1033D000832B4702032C0702938707A70147634506
:1033E000971883AAC70203AB8702814763CD97185A
:1033F000B7F700E09047D447254532C836CA984B06
:10340000DC4B1306803E13041700B339E400BE9969
:10341000B30535038146B337850233058502BE9572
:10342000EF5030104247D2472A833ACC3ECE014774
:10343000814737F500E01045544532C836CA624628
:10344000F2464248D24863EFD81463941601636B86
:10345000C814C24E524F6248F248338E0E4133B602
:10346000CE0133081F41F2863308C840BE9633B6FA
:10347000F6003A98330706014246B687D24632CC68
:1034800036CEE36AB7FA6394E500E3E667FA81476C
:1034900063CE9712B7F700E09047D447254532D066
:1034A00036D2984BDC4B1306803E13041700B33919
:1034B000E400BE99B30535038146B3378502330571
:1034C0008502BE95EF50F00502579257014E3AD44F
:1034D0003ED6014737F300E0032683008326C3006E
:1034E00032D036D22256B2560258925863EFD80ED6
:1034F00063941601636BC80E825E125FA25B325C3E
:1035000033887E4133B60E01B3078F41C286918F57
:10351000BA9633B6E600F297330EF60002563687B7
:10352000925632D436D6E369BEFA6394C501E36598
:10353000A7FA814763CF970C5285EFF0BF924561A0
:103540006FC0BFC7224EB24E0243B307C44192437D
:103550003337F400B386D441998E33876700B3378D
:10356000F7009E96B6972DBD931627003306D90017
:10357000104201EAE296904293161700DE969622D8
:1035800014CA0507A9BD13972700B306E9009442A2
:1035900081EA5A9714431397170056971A2398CA2B
:1035A0008507A9B56248F248C24EB3060441524F9E
:1035B000333ED400B38819413386D601B388C8415D
:1035C0003338D600FA98B28646984DB5139727003F
:1035D000B306E900944281EA6297144313971700F7
:1035E0005E971A23D8CA850765B52258B258025F7C
:1035F000B3070441925FB33EF40033881941338628
:10360000E7013308D841B337F6007E98B286C297F7
:1036100001B713972700B306E900944281EA5A974D
:1036200014431397170056971A23D8CA850719B75A
:10363000EFC2BFB737240020930704A7DC47AE844E
:10364000130404A795C3EFE02FB31305C006C139D7
:103650003145EFF03F811305D006D1310545EFD05C
:103660005FD10145EFD0FFD04844032844011844FE
:103670000323040083280401814763C7A70086044D
:1036800026970A236FC0BFB493962700C296904234
:103690009396170001EE3386D8000E220546BA969F
:1036A0008EA2B306F30090A28507C1BF81450146F3
:1036B000FDB7EFC29FAF2A84031565008147634BB6
:1036C00005008545EFF00FC9031564008145EFD073
:1036D0008F8D85471CB06FC09FAFEFC21FAD3725E0
:1036E0000020130505A5F137372500201305059D9A
:1036F000C937372500201305059F653F3725002072
:10370000130505A17D3737250020130505A355377F
:103710006FC0FFABB1456F40807791456F40207718
:10372000930580406F40A076EFC2BFA559713C0061
:103730003ED67C003ED83C003ED07C003ED21C41B0
:103740002EC632C436D436CE19476361F7022D67D0
:103750008A0713074792BA979C432A84B6848287C4
:10376000AD659385C58F6808EFD05FB165616FC0A7
:10377000DFA45C2189C7AD6593850503EDB7AD6511
:103780009385058FCDB7EFD0AF8D2D66AA86130632
:103790004690C145E800EF609079EC00E9B7EFD0C2
:1037A0004F8DB70400801389F4FF83A5C18333795B
:1037B00025012A844A85EF50C03501E983A5C183DC
:1037C0004A85EF50707B6356A000AD659385859068
:1037D00059BF930500002285EF50202A6356050645
:1037E00083A501842285EF50402963490508A18CF7
:1037F0002685EF6060682A89EF602073AA85268598
:10380000EF60A02E83A58184EF60600083A5C18452
:10381000EF50900BEF604066AA849305000022856C
:10382000EF50A025635705009305D0022810EFD074
:103830001FA32D662687CA8613068691930500026C
:10384000E800EF60D06E91BF83A541842285EF50E0
:10385000B0726359A002AD669386C623228536C234
:10386000EF60B00C92462D662A87AE87130606914C
:1038700093050002E800EF60906B05B7AD66938694
:10388000868FE9BFA284ADB7930520022810EFD040
:103890001F9D1104130920020307040011C7A2474A
:1038A0009440FD1763E8F600930520022810EFD03E
:1038B0001F9B6DBD630627019307C0056317F700C3
:1038C0009305C0052810EFD09F99830504002810A8
:1038D0000504EFD0DF98C9B7032B45009305B00569
:1038E0002810EFD0DF9763190B1C9305D0057DBF1F
:1038F00054432D6613064690C145E800EF603063DF
:10390000EC000DA803294700B70C0080138DFCFFC5
:1039100083A5C183337DA9016A85EF50801F01E92A
:1039200083A5C1836A85EF5030656355A008AD65F6
:10393000938585908800EFD07F9C83270B0A8509AB
:10394000E3D5F9FA9305C0022810EFD05F91838781
:10395000818E89E723200A0A2384818F18409947A2
:1039600052896318F700032944006314090013897E
:1039700041B0B24522468327090A2ECA32CCE3DE83
:10398000F9FA930C8002B38C99033C083EDC5C0886
:103990003EDE3C08BEC25C08BEC426DA330799018D
:1039A0001C43A6C09546FD17E3E9F6F88A07D697AB
:1039B0009C438287930500004A85EF50000C6357B3
:1039C000050683A501844A85EF50200B634A05084C
:1039D000B3CC2C016685EF60204A2A8DEF60E0545D
:1039E000AA856685EF60601083A58184EF50306200
:1039F00083A5C184EF50406DEF600048AA8C930509
:103A000000004A85EF506007635705009305D00218
:103A10004818EFD0DF8C2D666687EA8613068691FC
:103A200093050002E800EF609050D9BD83A5418462
:103A30004A85EF5070546359A002AD669386C62341
:103A40004A8536C2EF60606E92462D662A87AE8741
:103A50001306069193050002E800EF60504D4DB546
:103A6000AD669386868FE9BFCA8CADB75C2389C7E4
:103A7000AD65938505037DBDAD659385058F5DBD02
:103A8000481893052002EFD09F8593858C00CA9536
:103A90008800EFD0BF86930520024818EFD03F84FE
:103AA00069BD5C431547A686E800BAC6BEC8AD39F5
:103AB00069B55C431947C5BF83270B0A8149E356A3
:103AC000F0E2AD6A138A41B0054C938A0A9441B57D
:103AD00040419305B0072810EFD06FF819C4832731
:103AE000041A930904016345F0009305D0077DBBD8
:103AF000930520022810EFD08FF601492D6A832705
:103B0000041A938509FF6345F900AD659385C523C4
:103B10006808EFD0AFF6680893050A92EFD00FF669
:103B20008327041A4E856344F900138581BA22461F
:103B3000B245A6860509CD3E8327041AE357F9FA54
:103B400028109305C002EFD08FF1930520022810B2
:103B500093894903EFD0AFF05DB7EFC28FE283A73F
:103B6000419579716384070EEFD08FBF9307E07F93
:103B7000B72A00203EC693878AE33EC83C003ECC6D
:103B80007C003ECE1C083ED03C003ED27C003ED4A1
:103B9000B72900201C089305B00728083ED6938457
:103BA00009AA02C4EFD04FF883A7041A13898AE345
:103BB000938909AA814B635DF0042D6C9305200263
:103BC0002808EFD06FF6A6854810EFD0CFF7930501
:103BD0000C924810EFD02FF7A2474244324A5408C3
:103BE0003E94330AFA405286A2851385040102CA24
:103BF000EFF09FB35247637547013A9423000400E6
:103C0000A247850BBA973EC483A7091A63C3FB0476
:103C10009305D0072808EFD02FF12247B2476376EB
:103C2000F700C247BA97238007002246354703A50D
:103C30004195B307C90098A3294798B31C410906C9
:103C400042069C4F418293858AE3829745616FC00B
:103C5000CFD69305C002280893844403EFD0CFEC5D
:103C6000B1BFEFC28FD421468145231E0500231F1B
:103C7000050023100502231105022A84EFC0EFCEB0
:103C80005146814513058400EFC02FCE6FC02FD45D
:103C90002320050013060002814511056FC0EFCCFB
:103CA000EFC2AFD02A84930405011309051B2685B2
:103CB00093844403F13FE39C24FF85472320041AA7
:103CC0002302F41A6FC0AFD0EFC22FCE95471CC1AC
:103CD00003A4018F0D47617105043364E402AA84D3
:103CE000280023A8818E6D3F9307801AB307F40242
:103CF000370700201307C7482C001306501ABA973D
:103D00003E85EFC02FC5C8C05D616FC04FCCEFC20C
:103D1000CFC961712800693737250020130405AA2F
:103D20002C001306501A130505AAEFC0AFC22324B6
:103D3000041A5D616FC0AFC9EFC22FC72A8448451E
:103D40004111AE84EF40A02338381C280D46630390
:103D5000F7001146330696024206418252A0328590
:103D600032C6EF40402148C409C932468145EFC000
:103D7000CFBF26A041016FC08FC52312040081442C
:103D8000CDBFEFC28FC2B707020185071CC98547A7
:103D90001EA12304050023260500232A05002A84EA
:103DA000B284593F1C3081CB031564006345050084
:103DB0008145EFE03FDA1C3066A089CB854526853A
:103DC000EFE05FD981452685EFC0FF9D8317640032
:103DD0009306400213F7F70F63CDE602AD660A07BC
:103DE000938686683697184393F70770D98F13F632
:103DF000F70093D6470005473317C700BD8A114621
:103E00006378D604BD8B0547232C0400B317F70055
:103E100011A893F6070C1306000C6388C600232C28
:103E20000400A1675CCC6FC08FBA9306900C63CF7F
:103E3000E600AD6613F6F7030A0693868649B29646
:103E400094422D67130787688A0669BFFD575DBFD7
:103E5000AD678A0693874739B6979C4358CCB71607
:103E600001401CCCE391D7FCB72702409C5BB7060E
:103E7000000FF58FCDFB358358CC75B7EFC2EFAF90
:103E8000B7170240984B856693860680558F98CB6E
:103E9000944B7D771307F77FF98E94CBD44F411164
:103EA0008545758FD8CF984F21653724002013673B
:103EB000170098CFEFC0CFE1EFF03F82EFE02FB8CF
:103EC000EFE02FF6370632008145130504A5EFC059
:103ED0003FB7EFD02F8D1305800CEFC0BF961306B0
:103EE00020038145130504A5EFC09FB5EFD08F8B4C
:103EF0001305800CEFC01F950D6613060620814543
:103F0000130504A5EFC0DFB3EFD0CF891305800CF4
:103F1000EFC05F93130504A501468145EFC05FB272
:103F200037240020EFD00F88EFE06FB1EFE06FEFA4
:103F3000EFF0AFFA930404A791471145DCC4EF30CA
:103F40007077DC4488C037070020130404A713955A
:103F5000270063E3E7007D55EF30D0755C4448C02F
:103F6000370700207D5563F4E70013952700EF30F5
:103F700070745844B707004048C8F9177D5563E48A
:103F8000E70013151700EF30F0725844B7070040F0
:103F900008C4F9177D5563E4E70013151700EF30E7
:103FA00070715C4408C8370700207D5563F4E70052
:103FB00013952700EF3010705C4408CC37070020C1
:103FC0007D5563F4E70013952700EF30B06E5C4435
:103FD00048CC370700207D5563F4E7001395270090
:103FE000EF30506D5C4408D0370700207D5563F4F6
:103FF000E70013952700EF30F06B5844B7070040F7
:1040000008D4F9177D5563E4E70013151700EF3066
:10401000706A5844B707004048D0F9177D5563E4EB
:10402000E70013151700EF30F0681C4C032BC40198
:10403000832B4402032C4400832C0400032D8400B2
:1040400010540C50B7020020B70300202D68AD6F4C
:1040500048D43EC681488146814E938202009383B4
:104060000301130940029309000C130A900C054F39
:1040700013084839938F8F68914AFD5D5C4463C58E
:10408000FE0481445C4463C8F4188DC3EFD0DF8E16
:104090001305C006EFF0AFA82D45EFE0BFDC130518
:1040A000D006EFF0CFA70145EFD0AFAC48480328CA
:1040B000040083280401032344008147584463CD4E
:1040C000E71841016FC02F8F3247B38756009C43DA
:1040D00036973303DB001CC3B38776009C43232051
:1040E000F30018431373F70F636969020A037E93A1
:1040F00003230300137707703367670013534700E8
:104100001373F30063FA6A0801433D8B3317EF0022
:10411000420723A06500418311A8137E070C631496
:104120003E0163706A0423A00500216733831B01ED
:104130002310E30013F7F70F6365E9060A077E977C
:10414000184393F70770D98F13D747003D8B63F05F
:10415000EA0C0147BD8BB317FF00C20718C2C18329
:1041600091A89374F7032D6E8A04130E8E49269E30
:10417000032E0E002D63130383680A0E729303232C
:10418000030013770770114E33676700135347001E
:104190001373F300E36A6EF60A03429303230300EA
:1041A000ADB713F3070C63143301637AEA022320DB
:1041B0000600A167330715011EA3B307DC0023A087
:1041C000B701B387DC0123800700B3071D012390EB
:1041D0000700850E110691059106890845B513FE65
:1041E000F7032D630A0E130383497293032303001D
:1041F0002D67130787680A031A97184393F7077008
:104200001143D98F13D747003D8BE364E3F40A07CA
:104210004297184381B78329C40113992400854527
:10422000CA9903A509008504EFC0EFD71C4C85454A
:10423000CA978843EFC02FD703A509008545EFE053
:104240007F911C4C9545CA978843EFE0BF905C482E
:10425000CA9723A007003DB5939627003306D500E3
:1042600010423307F8001336160010A313971700F7
:1042700046971A237D569375070281C993750701E6
:10428000054681E50983137627009A9690C2850733
:1042900035B5EFB2FFEF0329051A39712A8481443D
:1042A000130A400363C624059D4763C4270793048C
:1042B0004003330599027D462295EF40C02503292E
:1042C000041A6808B30499020509B3099400A38F7E
:1042D0000900EFF0FF9B130640026C0813850901EB
:1042E000EFB05FE7C1042320241B3305940029A805
:1042F000B38944032EC633053401EFB07FE4B245E1
:1043000019E5C1093305340121616FB0BFEB8504A4
:1043100051BF2302041A138581BAFDB7EFB25FE7DC
:10432000B284AA892E89EFF09F9E37240020AD65C4
:1043300093858595130504AAA93F8947AD651CC1DE
:10434000232235019385C595130504AA993785471E
:10435000AD651CC12302050093850596130504AACB
:104360000D3FCA85EFE06FFEAD6593858596130519
:1043700004AA0537A685EFE04FFDEFF00FFE6FB002
:104380007FE4EFB2FFE0AA8932842E89EFF03F98F4
:10439000B7240020AD6593858595138504AAD53D86
:1043A0008947AD651CC1232235019385C5951385C9
:1043B00004AAEFF01FEE85471CC15CA1630C090045
:1043C000AD6593850596138504AAEFF09FECCA8529
:1043D000EFE0AFF719C8AD6593858596138504AAFC
:1043E000EFF03FEBA285EFE04FF6EFF00FF76FB085
:1043F0007FDDEFB2FFD92A8408412E89B284EFF025
:104400005FE91C4185490840F917CA8563FBF9003B
:10441000A685EFF01FE81C41F91763EAF900084090
:10442000A685EFF01FE7EFC0CFC46FB0BFD903A5DB
:104430000185E5BFEFB2DFD52A8408412E89B28419
:10444000EFF03FE51C4185490840F917CA8563FB39
:10445000F900A685EFF0FFE31C410840F91763E976
:10446000F900A685EFF0FFE2EFC0AFC06FB09FD5B7
:10447000CA85EFF01FE21C41CA850840F91763FBAB
:10448000F900A685EFF0FFE01C41F91763EBF90096
:104490000840A685EFF0FFDFEFC08FBCEF50F0289B
:1044A000F1B703A50185D9B7EFB29FCE8329051ACD
:1044B000AA842E890144130A40036345340101454F
:1044C0006FB05FD033054403CA852695EFB05FC750
:1044D00019C10504DDB70545E5B7EFB21FCA39714B
:1044E00019E101443DA08D47B289E3CCC7FEAE84FB
:1044F000EFD08FD5030905002A84630C0900AD6550
:1045000011469385C58FEF30307501E923A0040073
:104510001104228521616FB01FCAAD6511469385D4
:1045200005032285EF30507309E585479CC0DCA068
:10453000C5B7AD6515469385058F2285EF30D071DF
:1045400019E585479CC0238204001504D9B7930759
:104550002002631EF9006C08130600022285EFD0CA
:10456000CFC42A846C082685EFE08FDC5DB7930703
:10457000D002630DF904930709FD2547637BF70A11
:104580009307B0056310F92E99479CC02685EFC0AC
:104590006FB0030704009307B0052A8CE313F7F408
:1045A0002D6B0504130AD0058D4B954A130BCB9642
:1045B0001309800283070400639A071803070400A5
:1045C0009307D005631AF7280504A1B70504230E45
:1045D00021018547B78500040146130550041308DF
:1045E0005006F9481303A002B5150307040019CBC0
:1045F000634CE5066358E300930657FDB3D6D50038
:10460000858A95EA1387070314083697230E07FC5B
:1046100099CB05476398E7068347C101938757FD08
:1046200093F7D70FA1EBB7270020114723A4E7C4C6
:104630004DBD814745B7794E634CFE02130EE00233
:104640006306C701137EF7FD631EAE0013860703E2
:10465000130E01017296230EE6FC8507368609A823
:104660008546EDB7B286DDB7E31E07F9E3DAF8FE5B
:104670000504A5BF01EE6808EF30500689479CC0CD
:10468000C8C041BD01E62547E357F7FE8307C101D6
:104690001307D0026389E7081307B002930DC10125
:1046A0006394E700930DD101054A49A0638B670726
:1046B000938C07FD93F6FC0F63E7DB0463950A0216
:1046C000EA854A85EF50A0142AC613958C016185AE
:1046D000EF50B005B245EF40301F2A89850D838722
:1046E0000D00E9F72DA0A2454E85EF504012AA8992
:1046F00013958C016185EF505003CE85EF5020114A
:10470000AA854A85C9BF93F7F7FDE39987FD8D47D1
:104710009CC05285EF507001CA85EF50400FC8C051
:10472000CDBB854A65BF930DD1017D5A83A94185D3
:1047300083A7C185814A130900003EC403AD81856A
:10474000130BE002A54B130C500451BF2285EFD090
:10475000AFAF830705002A84638E470F6808EFF028
:104760002FD322854E866C088D3B2A846306050E66
:1047700083240C0A63C19B08F247FD1763EDFA0618
:104780008A07DA979C4382876808EFC06F8DB387EA
:1047900024030947E29798C3C8C3850423209C0AD1
:1047A00099A86808EFC0EF8CB3872403E29723A091
:1047B0007701C8C3DDB7B3872403034701028546E9
:1047C000E29794C3D8A3D1BFB384240311477D4695
:1047D0000C10B3079C00A10498C333059C00EF3074
:1047E000905383270C0A3387270385076297A30317
:1047F00007022320FC0A2285EFD00FA583070500BE
:104800001307C0022A846394E7040505EFD0CFA301
:10481000830705002A84E39F47D9B727002009476B
:1048200031B5B38724030147E29723A05701F2462D
:10483000639D5601025711A8B38724039946014787
:10484000E29794C37246E307D6FED8C3B9B7E383B1
:1048500047D7E1B7E31405D6B7270020094723A4BB
:10486000E7C445B99307B007E319F9FA2685EFF0D5
:10487000AFC5AA8513861900228519202A8451B94B
:104880006309050EEFB2DF908D474111328463DC7E
:10489000C700B7270020154723A4E7C481473E85FA
:1048A00041016FB03F92AE84EFD00F9A83060500AE
:1048B0001307B00793071500E392E6FE1309D0072C
:1048C00093092002130AA0030504930AC002038778
:1048D000070009EB838607001307D007639EE602F3
:1048E000850775BF3E85EFD02F9603070500AA8781
:1048F000E30227FF63063701B7270020094769BF96
:104900002300010083070500E39837FF41468A85AD
:10491000EFD0AF8901E9814737270020894623245A
:10492000D7C4B5BFEFD04F9283070500E39647FD8C
:104930000505EFD06F912A8B8A852685EFF07F954C
:10494000AA8522865A85EFF05FB971D5EFD0CF8F57
:1049500003070500AA87631B57010505EFD0CF8E1B
:1049600003070500AA87E31427F779B7E30127F7C0
:1049700061B7B7270020154723A4E7C481473E85C8
:104980008280372500208307856399E36F10101B11
:10499000EFB2AFFE130101D79305B007130585638E
:1049A000EF30F0342A8941C903A4019401CC0840B6
:1049B00085472300F44C1C41DC4782972324A44CF8
:1049C0002326B44CEFF0AFB4EFF06FB483070900C7
:1049D000372A0020930A0AAABDE3854723A4FA1ABE
:1049E000EFC00FD813064006CA85A811EF30B032C9
:1049F0008547230601142D67130787368A07BA9760
:104A000098432D66B4111306869C930500101385F8
:104A100041A0EF50D05103A4419511CC138541A082
:104A2000EF30702E1C401316050141829C4F938578
:104A300041A022858297130101296FB0CFF74A85E3
:104A4000EFD08F80030705009307B0076301F702DB
:104A5000894723A4FA1AEFC0AFD013064006CA85CF
:104A6000A811EF30502B89472306011469B701467E
:104A700093050AAAEFF0DFE0894709C583C74A1A00
:104A800081E7994723A4FA1A03A48A1A1DC0EFC02C
:104A90002FCD13064006CA85A811EF30D0271D4739
:104AA00023060114A287E37887F42D67130747983C
:104AB00089BFAD6B93858B9513050AAAEFF06FFD47
:104AC0008145EFB03FDC2D6B9305CBA02A84130505
:104AD0000AAAEFF00FFCAD6593094500938505A187
:104AE00013050AAAEFF0EFFA1841954756896317A4
:104AF000F70003294500631309005689AD6A9385C1
:104B00008AA14E85EF30101A51EDEFF04FA093853A
:104B10008B9513050AAAEFF0CFF7894440C104C171
:104B20009305CBA013050AAAEFF0AFF693858AA1EF
:104B3000EFE00F802D649305C49513050AAAEFF0EA
:104B40004FF58547AD651CC15CA1938505A2130592
:104B50000AAAEFF00FF49305C495EFD07FFDAD6581
:104B6000938585A213050AAAEFF0AFF2EFF0CF9577
:104B7000AD65938545A32A84EFF0AFF1AD659385CC
:104B8000C5A3EFD0FFFAAD65938585A42285EFF02C
:104B90004FF003A7819983A7C19904C158C1EFE0E1
:104BA000DFFB51BDAD65938505A54E85EF30900FB8
:104BB0006316056483A70194E38F07E6EFC04FBA3D
:104BC000B72A00202D668565A286130686A59385E3
:104BD000058013858AE3EF50903503AA01942A8952
:104BE00081495285EFB09FE383A7C183AADE938AF0
:104BF0008AE3BEDA83AD418483A70184BEDC9307D8
:104C00008008B387F9021D47D29783A74719FD177C
:104C10006363F7282D678A0713078734BA979C4385
:104C2000BED893078003B387F90201471308E00554
:104C30002145D297BE8683854600138605FE1376EE
:104C4000F60F636EC824D0013A960CA205078506BC
:104C5000E313A7FE2306010C01471305E005D14528
:104C60000386C700930606FE93F6F60F6360D5240D
:104C7000B411BA9690A205078507E313B7FE930710
:104C80008003B387F902230E010ED655D29703ACE9
:104C90008702131B1C00135B1B005A85EF307067E3
:104CA000631D0520D6555A85EF40102D6347A0207F
:104CB000EE856285EF40502C6344A020E655628566
:104CC000EF30B05B634005206285EF50E01AAA8C9C
:104CD000EF50A025AA856285EF40306183A58184CD
:104CE000EF40F032EF5040199357F54133CBA70016
:104CF000330BFB4093078003B387F902139329001A
:104D0000330D6A00832B8D0F5E85D297DA379307B8
:104D1000803EB356F702B377F70236C13EC3EF5079
:104D2000A0152AC5EF506020AA855E85EF40F05B94
:104D300083A54187EF40B02DEF5000149357F54104
:104D400033C6A7001D8EB2D49307F06F63C2271D30
:104D5000930500006285EF305052265663560516C3
:104D600063940C16AD669386868FB3872A01BED4F2
:104D7000F657056C130C0C80B3D73741858B330C79
:104D80002C41638707142D671307070393078008D7
:104D9000B387F902D29783C70720638F07122D6864
:104DA0001308080393078008B387F902D29783C7D3
:104DB000172163870712AD689388080383278D4006
:104DC00036CD46CBBED483278D4242C93AC7BED624
:104DD00093078003B387F9023655D29783C537020C
:104DE000130A803EAEC683C52702AEC483C5170230
:104DF000AEC283C50702AEC0EE332EDEDE3332D63E
:104E000083A541873EDCBC113EDADC013ED8AA47CF
:104E10003ED483270D483ED2EF40701FEF50C005AF
:104E2000336545032AD03655EF50000583A54187E9
:104E30002ACE2655EF40B01DEF50000433654503E0
:104E40002ACC2655EF5040039A47EA462ACA3EC864
:104E50008A4736C0DA483EC65AC466C24A48C65770
:104E60003A472D66CE86130646A8E28533852A0189
:104E7000EF50F00B635AA0062A999307F07F63D591
:104E800027072D66AD65130686B89385C5B92285BB
:104E9000EFF0CFC84DB6AD679387479951B313076D
:104EA000072494083697230A07E26DB39307072473
:104EB00098083E97230C07E4D9B3130C000029B5DA
:104EC0006E8C19B5665C09B5AD669386C62371BD57
:104ED0002D671307078F5DBD2D681308088FD9B59F
:104EE000AD689388088FD9BD850991476382F9021F
:104EF00085652D6693850580B385254133852A0117
:104F00001306C6BAEF50B0022A9903AA0194C5B994
:104F100003A40194370B00807D1B832D8410B3F410
:104F20006D012685EF405075AADAEF500000AA8582
:104F30002685EF40903B83A54187EF40500DEF4021
:104F4000B073032DC410AADCB3746D012685EF4045
:104F5000B072AADEEF40707DAA852685EF40F0385A
:104F600083A58185EF40B00AEF401071832444117E
:104F70002AC1B3F964014E85EF4010702AC3EF4097
:104F8000D07AAA854E85EF40503683A54187EF4001
:104F90001008EF40706E832984112AC533FC690123
:104FA0006285EF40706D2AC7EF403078AA85628530
:104FB000EF40B03383A54187EF407005EF40D06BE1
:104FC000832CC4112AC9B3FB6C015E85EF40D06A03
:104FD0002ACBEF409075AA855E85EF40103183A5FE
:104FE0008185EF40D002EF403069032C44122ACD76
:104FF000B37B6C015E85EF4030682ACFEF40F072E2
:10500000AA855E85EF40702E83A58184EF40300035
:10501000EF409066832B04112AD133FB6B015A8534
:10502000EF4090652AD3EF405070AA855A85EF4033
:10503000D02B83A58185056B130B0B80EF40207D62
:10504000EF4090632AD5B3872A01930500006E854F
:105050003ED7330B2B41EF30502263550516AD6719
:10506000938D878F930500006A85EF301021635F71
:105070000514AD67138D878F930500002685EF30EB
:10508000D01F63590514AD649384848F9305000089
:105090004E85EF30901E63530514AD699389898F57
:1050A000930500006685EF30501D635D0512AD6C01
:1050B000938C8C8F930500006285832A0412EF3055
:1050C000D01B635505122D6C130C8C8F93050000BB
:1050D0005E85EF30901A635F0510AD67938B878F05
:1050E0008327841203254413BED48327C412BED65B
:1050F000832704132944BED8EF40105883A5818527
:10510000AACE4655EF40A070EF4010573365850298
:10511000AACC4655EF40505683A58185AACA36557C
:10512000EF40E06EEF40505533658502AAC8365512
:10513000EF40905483A58185AAC62655EF40206D87
:10514000EF40905333658502AAC42655EF40D052F4
:10515000AA57AAC25EDCBEC09A572D666A883EDE98
:105160008A57EE86130606BB3EDAFA47DA853ED842
:10517000EA475657F6583ED2DA473A5566CE3ED001
:10518000CA474EC826C23ECCBA4762D656D43ECA9B
:10519000AA473EC69A473EC48A473EC0E657EF50EC
:1051A0000059AA8703A54195E30705883306F9004E
:1051B0001C414206B72500209C4F4182938585E320
:1051C0006FF05F87AD67938DC72369BDAD67138DA2
:1051D000C7235DB5AD649384C4234DBDAD69938988
:1051E000C9237DBDAD6C938CCC23E9B52D6C130C1C
:1051F000CC23E9BDAD67938BC723DDB52D6C93053B
:105200000CC94E85EF30002AAA8A61E583A4019477
:10521000E3830482EFE0BFAF93858B9513050AAA61
:10522000EFF02F8789471CC140C19305CBA0130520
:105230000AAAEFF00F8693050CC9EFD07F8FAD65FA
:105240009385C59513050AAAEFF0AF8485471CC165
:105250005CA12685EFB08FFCAD659385459A2A84C5
:1052600013050AAAEFF0EF8299471CC183A70193A7
:105270008D461306400A8507B3E7D702B7260020FC
:105280009385C6C48D4813038002094E23A8F1926A
:10529000B387C7021387C6C43E972320070A58C1A5
:1052A00011450326070A63C1C802B30666023358D4
:1052B00054411378180005062320C70ABE96AE96FF
:1052C00023A0C60123A20601850AE39CAAFC6FF075
:1052D0001F8DAD659385C5C94E85EF30A01C631148
:1052E0000514CA851306801AA811EFA0BFE603A90A
:1052F0000194630209F4AD6A93854ACAA811EFE0EC
:105300005FF9184191476309F7002D661306C6CA75
:10531000AD659385C5CCA5BEAD69938589CDA81132
:10532000EFE03FF71C41054BF917E360FBFE2D6AE8
:1053300093050ACEA811EFE0DFF51C41F917E366EB
:10534000FBFC93854ACAA811EFE0BFF43D469305E4
:105350004500C801EF30201C938589CDA811A30911
:10536000010CEFE01FF3EFB0CFD093050ACEAA896E
:10537000A811EFE01FF2EFB0CFCFAD652A8A938579
:1053800085CEC801EFA0DFDB35E10329490E8D474B
:1053900063E12709370B00809307FBFF93050000AB
:1053A0004E8583AA0194337AFA00EF40E03C6354BF
:1053B0000500334A4B01930780083309F90213951E
:1053C000190005819D45B3872A011309091923A8EE
:1053D000A71E23A6471F33852A01EFB04FDD2D6698
:1053E0001306C6CFAD659385C5D049A0AD6593853D
:1053F00005CFC801EFA0DFD409CD8307410C2547B5
:10540000938707FD6367F700C801EF20302D2A89D5
:10541000BDBF2D66AD65130646D19385C5D285BC4B
:10542000AD65938585D34E85EF30C00729E583A40C
:105430000194638204E0138904199389843E138ADA
:10544000043B230809064A858145EFB04FD613096E
:10545000890823A009009109E3152AFF2D66AD658F
:105460002388043A130606D4938545D52285EFE0B8
:105470005FF16FF04FDCAD659385C5D54E85EF309C
:1054800060022DE11306801ACA85A811EFA09FCCF7
:1054900083A40194638104DA2D699305499AA811C4
:1054A000EFE03FDF1C410547F9176376F7002D66F3
:1054B000130686D6B1BD9305499AA811EFE07FDDAA
:1054C000EFB00FBA8D4763FAA7002D66130686D793
:1054D000AD659385C5D86FF09F9B23A2A40E0146AE
:1054E000814569B7AD65938585D94E85EF20907B61
:1054F0006317051083A90194638F09D2AD65938565
:10550000459A4A85EFE0FFD8FD55EFB0AFB72D6A59
:1055100093058ADAAA844A85EFE01FF993058ADAAF
:1055200019E9AD6A93850ADB4A85EFE0FFF72A8A1D
:1055300035C593850ADB4A85EFE0BFD5034A4500B0
:10554000AD6A93858ADB4A85EFE01FF693858ADB97
:1055500019E92D6B93054BDC4A85EFE0FFF4AA8A2D
:1055600029C993054BDC4A85EFE0BFD2834A450049
:1055700063D30408938409199389093B238844075A
:10558000A3805409954563130A00914526859384A9
:105590008408EFB0CFC1E39399FE91B78D47E3E163
:1055A00097FA93078008B387F402CE9703CA0720BF
:1055B00041BF8D4763EE970293078008B387F402DB
:1055C000CE9783CA172193078008B384F4029545C8
:1055D000B38799002380472193840419A388572116
:1055E0003385990063130A009145EFB04FBCC5BDE8
:1055F000E3D704EE41B78D47E3D797FCCDB5AD6552
:10560000938505DD4E85EF20F06909C9AD65938569
:1056100085DE4E85EF2010696319051A83A9019470
:10562000638B09C02D66AD65938585DF130606DFA4
:10563000A811CAD5EFE0FFDB83A58187AA8AEF40D6
:10564000A0136357A00223A659119387491C1387FF
:10565000493E9306000023A05701D4C394C7D4C782
:1056600094CB93878708E316F7FE4E85EFB0CFB54E
:105670002D66AD65938585E0130606E0A811EFE081
:105680005FD783A58187AA89EF40000F6358A000E8
:1056900003A50194232A3511EFB00FB32D66AD6534
:1056A0009385C5E1130606E1A811EFE09FD483A519
:1056B0008187AA89EF40400C6358A00003A501949C
:1056C000232C3511EFB04FB02D66AD65938545E3C2
:1056D000130686E2A811EFE0DFD183A58187AA89AE
:1056E000EF4080096358A00003A50194232E3511D3
:1056F000EFB08FAD2D66AD659385C5E4130606E466
:10570000A811EFE01FCF83A58187AA89EF40C006CB
:105710006358A00003A5019423223513EFB0CFAA4C
:105720002D66AD65938505E6130686E5A811EFE0C5
:105730005FCC83A58187AA89EF4000046358A0004D
:1057400003A5019423283511EFB00FA82D66AD6590
:105750009385C5E6130686E6A811EFE09FC983A5E9
:105760008187AA89EF4040016358A00003A50194F6
:1057700023243511EFB04FA5AD69938509E74A851C
:10578000EFE03FB11C41054AF9176361FA0283A4B7
:105790000194938509E74A85EFE0BFAFEFB04F8CE6
:1057A00023A0A4122685EFB02FA215BBAD69938567
:1057B000C9E74A85EFE0FFAD1C41F917E361FAD272
:1057C00083A401949385C9E7F9B7AD65938585E80E
:1057D0004E85EF20304D4DE983A901946394090073
:1057E0006FF06FA52D66AD65130686E99385C5E953
:1057F000A811CAD5EFE01FC42D66AD65AA8A1306AD
:1058000006EA938545EAA811EFE0DFC22D66AD6593
:10581000130646DE938545CE2A8AA811EFE09FC184
:105820002D66AD65938505EB2A89130686EAA811D6
:10583000EFE05FC0AA84930500005685EF30D07377
:105840006344050023A45913930500005285EF30EB
:10585000B0726344050023A64913930500004A85EE
:10586000EF3090716344050023A8291393050000CD
:105870002685EF3070706344050023AA99124E8587
:10588000EFB00F974E8505B7AD65938585EB4E85D7
:10589000EF2050412A8A631305201306801ACA8517
:1058A000A811EFA03F8B83A4019499E06FF0AF980B
:1058B0002D699305499AA811EFE0BF9D1C4105474A
:1058C000F917E366F7BE9305499AA811EFE07F9CAC
:1058D000EFA01FF98D47AA8963F6A7002D6613066E
:1058E000C6993DB493078003B307F5020147130837
:1058F000E0052145A697BE8683854600138605FEF2
:105900001376F60F6364C81630193A960CA2050791
:105910008506E313A7FE2300010C9305E005930A17
:10592000410C51468386C700138706FE1377F70F95
:1059300063E5E51433874A0114A3050A8507E313D9
:10594000CAFE93078003B387F902230C010CA697C4
:1059500003A9870283A5C183131A1900135A1A00D9
:105960005285EF30001B6312051283A5C183528557
:10597000EF309060634BA01003AA41844A85D28522
:10598000EF30905F6346A01003AA01844A85D28558
:10599000EF30A00E634E050E4A85EF40E04DAAD6CB
:1059A000EF40A058AA854A85EF40201483A5818442
:1059B000EF30F065EF40404C9357F541B3C8A70076
:1059C000B388F84093078003B387F9021307803E3A
:1059D000C6D4A697DE3733DBE70233FAE702EFB02F
:1059E0002FD8930500004A85EF302009A658365875
:1059F0006352050A6310080AAD679387878F130700
:105A000080032D6685651306C6EC93850580338774
:105A1000E902B386E40003C736023AD203C726027E
:105A20003AD003C716023ACE03C706023ACCFA327E
:105A30003ACADA32A286372400203AC838193AC462
:105A400056C652C25AC04E87130584E3EF40304E0B
:105A50002A8603A5419519E16FE0FFFD1C4142062E
:105A600041829C4F930584E36FE0DFFC130707241A
:105A700094083697230407E279BD93070A2498080F
:105A8000338AE700230A0AE26DBD1309000029B733
:105A9000528919B7AD679387C72395B7AD659385CD
:105AA00085F74E85EF201020631C05341306801AFD
:105AB000CA85A811EFA00FEA83A901946394090095
:105AC0006FE07FF7AD649385449AA811EFE06FFC17
:105AD0001C410547F917E36CF79C9385449AA8117C
