:100000006F701000130000001300000013000000C8
:100010001300000013000000130000001300000094
:100020001300000013000000130000001300000084
:08003000130000007300100032
:100038000000000000000000646300006863000026
:10004800000000006C6300000000000000000000D9
:100058006A6300009C7700000000000000000000B8
:100068001E62000000000000A077000000000000F1
:10007800A2770000A4770000A6770000A877000008
:10008800AA770000AC770000486200005E620000BA
:10009800746200008A620000A0620000B877000065
:1000A800BA770000BC770000BE770000C077000078
:1000B800C2770000C4770000C6770000C877000048
:1000C800CA770000CC770000CE770000B662000047
:1000D800D27700005A610000D67700006E610000F8
:1000E80082610000A8610000CE610000E077000096
:1000F800E2770000E4770000E6770000E877000088
:10010800EA77000048750000EE770000B675000039
:10011800F6620000F4770000F6770000F877000038
:10012800FA770000FC770000FE770000000000006E
:080138000000000000000000BF
:1001400010219421050585056313D60075FA330542
:10015000D64082802A8309CA838305002300730066
:100160007D16050385056DFA82802A8311C623005A
:10017000B3007D16050365FE8280397101436EC6AA
:1001800019A0397141536AC866CA62CC5ECE19A003
:10019000397101535AD056D252D44ED64AD826DAA3
:1001A00022DC06DE33016140828241114AC026C250
:1001B00022C406C68282B24D4101024D924C224CAD
:1001C000B24B4101024B924A224AB24941010249D3
:1001D00092442244B2404101828001458280828063
:1001E0007D5582800347C503B7370020938787E496
:1001F0000A07BA979C4398431E2393F7070289C7BF
:100200004A231375F50F82807D558280EFF2FFF946
:100210001C414111CC87DC439305F10005468297D0
:10022000410175B737370140130707C0AA87630B31
:10023000E5023707004005456387E70213070740DB
:1002400009456382E70237170040930607800D4592
:10025000638BD700130707C011456386E70041652C
:100260007D15828001458280EFF23FF403A701985B
:1002700083A741982A8458C51C402285DC4B82976D
:10028000635D050083A601985C4403A7419833870A
:10029000F6401C44E362F7FE7D5515BFEFF25FEFB9
:1002A0002A89AE89B284014463149400228519BF5F
:1002B0004A855D3FE34C05FEB387890088A30504AA
:1002C000E5B7EFF2FFEC014495C2AA892E8A328984
:1002D000B68401444E85493F634A050063084501E1
:1002E000B307890088A30504E39684FE2285D9BD5F
:1002F000EFF21FEAB7F700E003A9019883A941983C
:100300009047D447411132C436C603AA019883AA44
:1003100041989047D44732C2984BDC4B13061700E4
:10032000B336E600BE96631449016389590312454A
:100330001304803E3305A640B337A600B387F640CA
:10034000B307F402B335A4023305A402BE95330407
:100350004403EF80403B22954101ADB5A2473248AE
:100360001304803E3305F6403337A600B3870641B9
:10037000998FB307F402B335A4023305A402BE95E6
:1003800033042403EF802038F9B781470547631A07
:10039000E5002D678E07130787FFBA97DC4399C7DF
:1003A00082878507058193F7F70FD5B78280B72736
:1003B0000240C847058911E5C84741891335150032
:1003C0000D058280EFF27FDE2A848544CD376318E5
:1003D000950019E0154529A0D93F7D14CDBF7DD8E2
:1003E000FDB39C4513F7070113F8F70001C7D84187
:1003F0003368E80037270240145B3707000F758F1A
:1004000045EB8546238ED196371701406315E500ED
:100410009A2135839AA18E2113F7F50F31C3184124
:100420008146054E930E80023D4F930F8004214379
:100430003316DE00B3F8C500631016036392D709C4
:1004400050C913962600B318CF0093C8F8FF33F7AE
:10045000E8003316C800518F8506E39B66FC18C17F
:100460001307F00F6375B70454410146054E930E10
:100470008002130F80042143130786003317EE0018
:10048000B3F8E500631117036390D70558C99318B3
:1004900026003D47331717011347F7FFF98EB318AE
:1004A0001801B3E6D8000506E31866FC54C1828043
:1004B00037170140E311E5F603C7C19729DF89BF6C
:1004C000E391F7F910C9B5BFE393E7FD18C9C1B7C8
:1004D0003707300013560501931605013378E50000
:1004E0003D8AC182B707014063530502DC4F631C9C
:1004F000E80641060D473317C7001347F7FFF98F8A
:10050000BDCD558112053395A600C98F8DA8D8435E
:10051000B727024083A80703B707000FB3F71701F7
:1005200089EB93571700F9784E07B3F717014D83FE
:100530005D8FB70730006318F804370600F17D16A9
:1005400037080140B377C70003274800718F232283
:10055000E80091C5558112053395A600C98F37076C
:1005600001405CC3828037071000698F41F75581D5
:1005700012053395A6001347F5FFF98FD9F5370714
:1005800001405CCF8280B7071000E98F99CB8D477F
:10059000B397C70093C7F7FFF98F3707000FD98FBD
:1005A0004DBF55811205B396A60093C7F6FFF98F8C
:1005B0003707000FD98FC5D5D58F55B71E213737CF
:1005C0000140130707C0C207C1836304E502370770
:1005D00000406300E50213070740630CE50037178E
:1005E0000040930607806306D500130707C0631613
:1005F000E500BA2193F7F7F8D98FFA2193F7F7CFEF
:10060000C207C183D98F1EA1DE215EB59E211EB512
:10061000B7370140938707C06314F5009C251EB9C6
:1006200085475EA982801E294A25ED8F42054181BA
:1006300089C76D8D3335A0008280014582801629DF
:10064000F577FD17FD8EFE21DA25D58F1EA95625DB
:10065000FD779387379FFD8EDE21D58F9625D58F29
:10066000B625D58F5EA55E29A146C207C18393F743
:10067000F7CFD98F5EA9371702405C43B18B6398DF
:10068000D70E5C435843C166C983BD8B758F8907FC
:10069000C5466393D700C94701EF37470240032798
:1006A0000780418B09CF37177A001307072021A84D
:1006B000371702405843B7060200758F6DD73717BA
:1006C0003D0013070790B387E702371602405842F0
:1006D000B70600209386060511833D8B36971823B5
:1006E00033D7E7005C42A1839D8BB69703C8070010
:1006F0005C421378F80FAD839D8BBE969C225442CA
:10070000370600201306460CB9828D8AB2969422D1
:1007100093F7F70FB746014093860680B357F7006B
:100720006304D500B357070156256547B387E70231
:10073000C206C186984163D10604060793064006A7
:100740005225B3D7E7024206418633D7D702B3F723
:10075000D7021207635406028E0793872703B3D785
:10076000D7029D8BD98FC207C1831EA58280B71780
:100770007A009387072091BF0A07C9B7920793872A
:100780002703B3D7D702BD8BF1BFFD577D57631544
:10079000F50001458280B1059C41E38CE7FEE31C36
:1007A000F5FEC84182802D679376F50F130640024F
:1007B000130747F2937705706364D6048A06369769
:1007C00018439146D98F13D747003D8B63E0E60469
:1007D000AD66938606C30A073697144313F7F700EE
:1007E0008547B397E700C207C18337170140A1C10E
:1007F0006396E60003C7C19711C3B5839CCA828084
:100800001376050C1308000C630606018DC9232816
:10081000000002901306900CE36AD6FEAD661375D5
:10082000F5030A05938646D3AA96944241BF639680
:10083000E60003C7C19711C3B583DCCA8280232AAF
:100840000000C1BF03A7019883A74198BA8603A7F8
:10085000019883A74198158FE36BA7FE8280828061
:10086000EFF2BF9423A6B1944CC110C554C523A484
:10087000C19423A2D19411CA1C42A96532859C4F10
:100880001306E0029385C517829703A5419409C911
:100890001C41A9651306E0029C4F9385C5178297FA
:1008A0003DB2AA8798438D4748416314F7006F8093
:1008B000F07A8280184189476315F70048416F90AC
:1008C0000005484182801C410547F9176363F70022
:1008D000C9BF2E858280EFF2BF8B2E894C412A84BE
:1008E0004A85B289EF80F010CE85EF8090104C449D
:1008F000EF80C01B832AC40148C42A8AD685EF80B2
:10090000F0056357A006232654010C404A85EF806A
:10091000500E4C44EF808019AA84930500004E8548
:10092000EF80E07D05C10C484A85EF80503A0C44C9
:10093000EF80300CCE85EF80E04DAA852685EF80D4
:10094000E016AA8483294401A6854E85EF703031D4
:1009500063430500A689044CCE852685EF801000F0
:100960006343A000CE842328240126856FF09F8551
:10097000B7040080B3C45401A6855285EF70302EB1
:10098000E35505F844C451B75C41638BB700930746
:1009900000004CC11CD15CD17CD13CD5232605067E
:1009A0008280505D344178419307450B1305452DF6
:1009B0009305000090C3D4C398C7CCC78CCB938752
:1009C0008708E397A7FE82809307C5370147014553
:1009D000054691468C4391C5B315E6004D8D420501
:1009E000418105079107E317D7FE82803E2163F21C
:1009F000F5041C25935606011357860085EF93F6E0
:100A0000F60F1377F70F1376F60F03483501834877
:100A100005015C45639008050D48B3850503AE9755
:100A20000C29BE9594A11439BE9698A23829BA977C
:100A300090A38280B386F6021377F70F1376F60F32
:100A40003307F702A18693F6F60F3306F6022183E9
:100A5000218265BF8A05AE973E9823000800C9B77A
:100A6000EFF2AFF42A849304B012EFF07F885C4871
:100A70006374F50048C8D5BF1D8DE3F8A4FE9967DF
:100A8000739007801C206388072C5C444E20144C14
:100A9000504C8823BE9513871700930700083378BE
:100AA000F50090CA63010816010001000100010071
:100AB000010001000100010001000100010001002E
:100AC000010001000100010001000100010001001E
:100AD000010001000100010001000100010001000E
:100AE00001000100010001000100010001000100FE
:100AF00001000100010001000100010001000100EE
:100B000001000100010001000100010001000100DD
:100B100001000100010001000100010001000100CD
:100B200001000100010001000100010001000100BD
:100B300001000100010001000100010001000100AD
:100B4000010001000100010001000100010001009D
:100B5000010001000100010001000100010001008D
:100B6000010001000100010001000100010001007D
:100B7000010001000100010001000100010001006D
:100B80000100010001000100D0CA010001000100C4
:100B9000010001000100010001000100010001004D
:100BA000010001000100010001000100010001003D
:100BB000010001000100010001000100010001002D
:100BC000010001000100010001000100010001001D
:100BD000010001000100010001000100010001000D
:100BE00001000100010001000100010001000100FD
:100BF00001000100010001000100010085836387FD
:100C00000714010069BD010001000100010001009D
:100C100001000100010001000100010001000100CC
:100C200001000100010001000100010001000100BC
:100C300001000100010001000100010001000100AC
:100C4000010001000100010001000100010001009C
:100C5000010001000100010001000100010001008C
:100C6000010001000100010001000100010001007C
:100C70000100D0CA010001000100010001000100D3
:100C8000010001000100010001000100010001005C
:100C9000010001000100010001000100010001004C
:100CA000010001000100010001000100010001003C
:100CB000010001000100010001000100010001002C
:100CC000010001000100010001000100010001001C
:100CD000010001000100010001000100010001000C
:100CE00001000100010001000100010001000100FC
:100CF00001000100010001000100010001000100EC
:100D000001000100010001000100010001000100DB
:100D100001000100010001000100010001000100CB
:100D200001000100010001000100010001000100BB
:100D300001000100010001000100010001000100AB
:100D4000010001000100010001004DBD6375B70005
:100D50000823050799B399679387870873900780DD
:100D6000EFF00FD948C86FF08FC6014582808280AE
:100D7000EFF2AFC3EFF0CFD781456FF04FC599C108
:100D80002E85C9B48280AD67373700409387A7AA04
:100D90001CC382808D4763E4B7003306C04093F5DF
:100DA000F50F6354C00293160601C18281470947BB
:100DB0006382E5046368B7023717004013070780B2
:100DC0009DE556BF2310F704828001CA3306C04058
:100DD00093170601C1838146D9BF9307803E9306CE
:100DE000803EF1B70D47E391E5FE3707004056BB63
:100DF0001EBF828037070040231AD742231CF742C8
:100E00008280EFF28FBA93F7F50F0D456361F5021B
:100E100093F5F50FA20693975500558F420613855B
:100E200081FF598E81453E95D1366FF04FBA91457D
:100E3000E39DB7FEA206558F420637250020598E46
:100E4000814513058593CDB7EFF22FB6B7F700E0D4
:100E50009047D447411132C436C6984BDC4B7D15C0
:100E600013041700B334E400BE94B385A402130640
:100E7000803E8146B337850233058502BE95EF700B
:100E800090082247B24701463AC03EC20148B7F82F
:100E900000E003A7880083A7C8003AC43EC6024703
:100EA00092472243B24363E5F3046394770063619E
:100EB000E3042243B243024E924E3307C341B3369A
:100EC000E300B387D341958F3297B336C700C297FB
:100ED0003A8622473388F600B2473AC03EC2E36AF8
:100EE000B8FA63940501E366A6FA41016FF02FAEEC
:100EF000024E924E2243B307C441B2433337F4004B
:100F0000B386D441998E33876700B337F7009E9636
:100F1000B6975DBFEFF2CFA703A7019883A74198CB
:100F20002A84BA849309700C1C402285DC53829772
:100F300019CD83A6019803A74198B387964063E82B
:100F4000F60063E6F90013054006FD3DF1BF6FF0C2
:100F50006FA703A5C19301E503A5819411C15DBFEE
:100F60008280EFF28FA43725002093078593DC471A
:100F700081C713058593ED34138481FF930404081E
:100F80005C4499C32285E93C13040402E31A94FEED
:100F90006FF0EFA3F9B7828083A7819585C303D74C
:100FA000874083D6A74005071377F73F6308D7002C
:100FB00083D68740BE9688A62394E740828083A785
:100FC000419085C303D7874083D6A7400507137791
:100FD000F73F6308D70083D68740BE9688A6239440
:100FE000E7408280035685408356A540931706014B
:100FF00013970601C18341833385E7406375D600AB
:1010000013850740198D4205418182800357854031
:101010008357A540630FF7008357A540AA979827E9
:101020008357A540850793F7F73F2315F5403A8589
:1010300082807D558280AA87814613950601418171
:101040006378C50203D8874003D7A7406302E8024C
:1010500003D7A7403E9708273387D500850608A306
:1010600003D7A74005071377F73F2395E740F1B76C
:1010700082808280054582805C419DEB83C7D1914F
:1010800013F5F70F8DE7B707024013874704FC43BA
:10109000858B91C75C430545C207C18389EBB74780
:1010A000014003D507801D81134515000589828005
:1010B00083C7C19113F5F70FFDFBB7570040D5B7B4
:1010C00003A6019803A7019083A641986377E600E1
:1010D00003A7C18F050723AEE18E03A5818F23A04F
:1010E000C19083A5C18F518D8280D9BFEFF2EF8867
:1010F000C13FB7070240D84703A681914207418309
:101100002A84AE846308E60823ACE19023A881908A
:1011100023AA919083A781906399870083A7C190A8
:1011200063959700B3679400B5E303AD419283AB39
:1011300001833719002003AB418313098993856A22
:10114000138A81FD930C0901938DFAFF4A870145AB
:10115000B30659011E234107EA9763C75707EE8775
:101160003E95E319D7FE2185EF80607ADE85EF801A
:101170004008DA85EF80E0072320AA000909110A58
:10118000E31699FD23A4819023A69190138581FDF8
:101190006FF06F8203A7019183A641913307E54069
:1011A0003336E500B386D5406396C6009306400605
:1011B000E3F2E6F6372701401307074014473706E6
:1011C0005000D18E14C799B7E3DC07F8814749BFB7
:1011D000EFE2BFFD2E84193FAA871305000081CFDF
:1011E0000D47B3058740939615001D476365D700EB
:1011F0008E05AE9788436FE09FFDEFE21FFB2E84C4
:10120000F5352A8701450DC38D47818F86078507F0
:101210009D4663EBF6008A073E9783A581830843CA
:10122000EF70D0733325A0006FE07FFAEFE2FFF795
:101230002E846D3D2A871305000019CB8D47818FC1
:10124000860785079D4663E5F6008A073E970843B3
:101250006FE0FFF75C4114419C439842FD176379AE
:10126000F7001C45130617009C4390C2BA978CA345
:10127000828081ED82801C451306170085059C4302
:1012800090C28386F5FFBA9794A38387050081CB2C
:101290005C4114419C439842FD17E36EF7FC828049
:1012A0005C4114419C439842FD176379F7001C454B
:1012B000130617009C4390C2BA978CA38280838741
:1012C000050081CB5C4114419C439842FD17636348
:1012D000F70082801C451306170085059C4390C2C9
:1012E0008386F5FFBA9794A3D9BF5C4114419C4310
:1012F0009842FD176379F7001C45130617009C43BD
:1013000090C2BA978CA382808387050081CB5C4111
:1013100014419C439842FD176363F70082801C458B
:101320001306170085059C4390C28386F5FFBA9784
:1013300094A3D9BFEFE27FE4B727002013878795F6
:1013400059714047444B832B4702032C07022AC69E
:10135000014793878795634A872283AAC70203AB15
:10136000870283AD0701214D37F900E0A549032726
:1013700089008327C9001306803E3AC83ECA032766
:101380000901832749018146130A1700B33CEA008B
:10139000BE9CB3859903B3B7490333854903BE9512
:1013A000EF7060364247D247AA883ACC3ECE01451C
:1013B0000148032789008327C9003AC83ECA62470B
:1013C000F2474246D24663E1F61E6394D700636D4E
:1013D000E61C424ED24E6246F2463303CE403337CD
:1013E0006E003386DE409A87198EAA9733B7A7001E
:1013F00042963308C70042473E85D2473ACC3ECE9C
:10140000E369B8FA63940501E36515FB814763C19D
:10141000871C032789008327C9001306803E3AD022
:101420003ED203270901832749018146130A170089
:10143000B33CEA00BE9CB3859903B3B74903338537
:101440004903BE95EF70202C02579257AA883AD4D0
:101450003ED601450148032789008327C9003AD0B9
:101460003ED22257B2570256925663E2F618639460
:10147000D700636EE616025E925E2256B2563303C2
:10148000CE4033376E003386DE409A87198EAA9796
:1014900033B7A70042963308C70002573E859257DC
:1014A0003AD43ED6E369B8FA63940501E36515FBC7
:1014B000EE86014763418716814763C487187D1D07
:1014C000E3170DEAB7F700E09047D447254532D837
:1014D00036DA984BDC4B1306803E13091700B339FC
:1014E000E900BE99B30535038146B33725033305BB
:1014F0002503BE95EF7020214257D2572A833ADC4C
:101500003EDE0147814737F500E01045544532D8AB
:1015100036DA6256F2564258D25863E3D8146394CE
:101520001601636FC812C25E525F6258F258338E62
:101530000E4133B6CE0133081F41F2863308C8404E
:10154000BE9633B6F6003A98330706014256B68780
:10155000D25632DC36DEE36AB7FA6394E500E3E69E
:1015600067FAB2476395073263D087141397270051
:10157000B386E400944281EA6297144313971700FC
:101580005E971A2398CA8507C5B793162700338636
:10159000D400104201EAE296904293161700DE96BC
:1015A000962214CA050745BB6246F246424EB3076F
:1015B000CA40D24E3333FA00B386DC403387C701CA
:1015C000B38666403336F700F696BA87369631BD55
:1015D00013972700B386E400944281EA5A97144394
:1015E0001397170056971A2398CA85070DB52256E8
:1015F000B256025EB307CA40925E3333FA00B38636
:10160000DC403387C701B38666403336F700F69671
:10161000BA873696ADBD9E221316270062961042F9
:101620008607C2070C46C183131617009EA25E965A
:1016300012226D8E01C693E717009EA20507890648
:1016400095BD13972700B386E400944281EA5A9728
:1016500014431397170056971A23D8CA8507B1BDAC
:101660006258F258C25EB3060941525F333ED90058
:10167000B38819413386D601B388C8413338D600C0
:10168000FA98B28646986DBD13972700B386E4009A
:10169000944281EA62971443139717005E971A23C6
:1016A000D8CA8507E3C287FEB7F700E09047D44762
:1016B0002545B2C0B6C2984BDC4B1306803E1309D9
:1016C0001700B339E900BE99B30535038146B33736
:1016D000250333052503BE95EF70E00206479647C4
:1016E0000146BAC4BEC6814E37FE00E003278E0015
:1016F0008327CE00BAC0BEC22647B64706489648E2
:1017000063E9F818639417016365E818064896487A
:101710002643B64333076840B336E800B3877840C2
:10172000958F3297B336C700F6973A860647B38E41
:10173000F6009647BAC4BEC6E3EABEFA6394D50182
:10174000E366A6FA814763C88716B7F700E09047BB
:10175000D4472545B2C8B6CA984BDC4B1306803E29
:1017600013091700B339E900BE99B3053503814663
:10177000B337250333052503BE95EF60D078464780
:10178000D6470146BACCBECE814E37FE00E00327D5
:101790008E008327CE00BAC8BECA6647F6474648C1
:1017A000D64863E9F812639417016365E812464866
:1017B000D6486643F64333076840B336E800B3873C
:1017C0007840958F3297B336C700F6973A864647EA
:1017D000B38EF600D647BACCBECEE3EABEFA639427
:1017E000D501E366A6FA814763C88710B7F700E022
:1017F0009047D4472545B2D0B6D2984BDC4B130660
:10180000803E13041700B334E400BE94B305950280
:101810008146B337850233058502BE95EF60B06E11
:10182000065796570146BAD4BED60148B7F800E02D
:1018300003A7880083A7C800BAD0BED22657B657E0
:101840000653965363E9F30C639477006365E30CE6
:1018500006539653265EB65E3307C341B336E300A4
:10186000B387D341958F3297B336C700C2973A8674
:1018700006573388F6009657BAD4BED6E36AB8FA4C
:1018800063940501E366A6FA65616FE0DF92814724
:1018900011BD2643B6430648B3076940964833371F
:1018A000F900B3867940998E33870701B337F70083
:1018B000C696B697BDB513972700B386E400944249
:1018C00081EA5A9714431397170056971A2398CA18
:1018D000850795BD6643F6434648B3076940D64839
:1018E0003337F900B3867940998E33870701B337D0
:1018F000F700C696B697F9B513972700B386E400AC
:10190000944281EA5A9714431397170056971A2363
:10191000D8CA8507D1BD265EB65E0653B307C4415B
:1019200096533337F400B386D441998E33876700DA
:10193000B337F7009E96B6973DB737270020930739
:101940008795D04B8C4B130787958147544763C3CA
:10195000D700828093962700B29623A00600939624
:101960001700AE96239006008507CDB739C503074B
:101970000500930720026312F7049307150001473F
:1019800013032002130EC0051308F6FF9308E006A8
:10199000930E2007130F40078386070089CE138517
:1019A000170063956600636EC70482806394C60562
:1019B0008387170091EB8D4711A0894737270020B7
:1019C000232EF7E001458280637F070163801703C0
:1019D00063D7F800638ED7016393E701A547B38609
:1019E000E5009CA20507930715007DB7A947C5BF71
:1019F000B547F5B73E85E37807FFB387E50094A3C5
:101A0000D5B7BA9523800500828019CD370780FFAE
:101A1000DD4631171C21DD1793F7F70F63E6F6005B
:101A2000B357F740858B91C382800505E5B7EFE298
:101A30004FF5B707674537240240938737125CC0DC
:101A4000B797EFCD9387B79A5CC0930710035CC438
:101A5000B704002083A9040C91472A8A2E89639336
:101A6000F906AD67373700409387A7AA1CC337052F
:101A70000B00EFE03F95631335031C4837050B005F
:101A800093E727001CC8232A24011C4893E7070476
:101A90001CC8EFE03F931C48F59B1CC823A0A40C76
:101AA00003A7040C9147630FF700372702401C4B34
:101AB00093E707081CCB9967938787087390078083
:101AC0006FE0AFEFAD6A930B89044A84114B373C4A
:101AD0000040938AAAAAB72902406376740183A7BB
:101AE000040C638B6701372702401C4B93E7070800
:101AF0001CCB83A7040CE9B7B3072441D29723205A
:101B00005C01156583DC0700EFE0DF8B6312650382
:101B100083A70901156593E7170023A8F90023108F
:101B20009401EFE03F8A83A70901F99B23A8F900FC
:101B300023A0A40C090455B7EFE22FE704412A843F
:101B400085452685EFE03FAE19CDDE24858B81CF1C
:101B50000325C4FF5C5D89C73C411305450382979B
:101B60001C4079579AAB6FE08FE6EFE20FE400413B
:101B70002A895E24898B91EB5E24918B99E75E2400
:101B8000A18B81E75E24C18B8DC789452285EFE05B
:101B90009FA915C1F5571EA885448327C9FF8D0449
:101BA0009204138544003E95184501C7A6979C4BA7
:101BB00082976FE0CFE191452285EFE0DFA609C56E
:101BC000ED571EA88944D1BFA1452285EFE0BFA5EE
:101BD00009C5DD571EA88D44C9B7C1452285EFE070
:101BE0009FA445DDBD571EA8914445BFEFE2EFDB42
:101BF000411102C202C402C6FD576313F50001A0E1
:101C00001377F500AD670A07938787FBBA971181B1
:101C100003A907003D899147AE84014463ECA70204
:101C2000A9679387C71A0A053E951C4137170240DA
:101C300082871C4F3714014093E747001CCF1304E1
:101C4000048009A81C4F37140140130404C093E713
:101C500087001CCF93D7844093F7F7076387071E4D
:101C6000B7160240984EFD171367170098CE13075A
:101C7000F004636CF71C29678A071307071CBA97DF
:101C80009C4382871C4F3714014093E707011CCF08
:101C9000D1B71C4F371401401304044093E70702E7
:101CA0001CCF4DBF1C4F3724014093E707041CCFC6
:101CB00079B785450545EFE0BF8141AA8145DDBF84
:101CC00085450945CDBF8145EDBF85451145E5B742
:101CD0008145EDBF85452145F9BF8145EDBF85456E
:101CE0003705140013050503F9B7854537051400BA
:101CF0004105D1B78145EDB7854537051600130578
:101D0000050C55BF8545370516001305050465B755
:101D10008145E5B78545370518001305053061BFD6
:101D20008545370518001305052071B7854537052A
:101D300018001305051041B78145F1BF85453715DA
:101D40001A00130505C085BF37151A008545130510
:101D5000058095B78145E5B785450565A9BF8145EE
:101D6000EDBF854537451D00B9B7854537651D0071
:101D700099B78145E5BF8545216535BF8145EDBFF3
:101D800085453705200005053DB78145DDBF854503
:101D9000370520001305050239BF8145D5BF8545AC
:101DA000370520009DB78145E5BF854537052000F3
:101DB0001305050809B78145D5BF854537052000BE
:101DC0000905D5BD8145DDBF8545370520001105D5
:101DD000DDB58145DDBF8545370520002105E1BD25
:101DE0008145DDBF85453705200019B78145E5BF31
:101DF00085453705300035BF85453705300025B7A7
:101E00008545370530001305054075B585453715FF
:101E1000200055B58145E5BF81453725200061BDCE
:101E20008545E5BF85453745200071B58145E5BF4E
:101E300085453705008061BF8545370513804DBD59
:101E4000370701405C4F9D9B5CCF93D7244013F72D
:101E500034008D8B65CB3AC409476381E70E0D478B
:101E60006380E70E05476389E70CC1473EC6D5A0EE
:101E700085453705158051BD85453705158019BF46
:101E8000370701405C4F93F7F7F97DBF854537056C
:101E9000008095BF8545370530801DB785453705DE
:101EA0003080D5B5B7060140DC4E3707FDFF7D1702
:101EB000F98FDCCE59BF85453705328005B785459A
:101EC0003705328029B7B7060140DC4E3707F4FFEB
:101ED000F9BF85453705348075BD854537053480A4
:101EE00001BDB7060140DC4E3707D0FFC9B78545B5
:101EF0003705368075BD85453705368039B5B70657
:101F00000140DC4E370740FF5DB785453705388017
:101F100019BD85453705388029BDB7060140DC4E1F
:101F2000370700FD69B7854537052080E9BDB7074C
:101F30000140D84FD8CF11BFD1470DBFE1473DB7C2
:101F4000F1472DB70547638FE7008946638ED700B9
:101F500095E34C00228523122101EFE08FC8410157
:101F60006FE0EFA6914719B791848D88930780049D
:101F7000E38EE4EE93078002D5BDFD577D576318CD
:101F8000F50082806314F5008C458DB1B1059C414C
:101F9000E39AE7FE01A0EFE24F9E83A701980111AB
:101FA0003704002003A841983EC49307040203C7E6
:101FB000C7022ACA42C68D47AE891304040263E3EE
:101FC000E7048347C40237370020930687E48A0773
:101FD000B69790431305703E834786028A07BE96E4
:101FE0009C42930687E403A807008357080093F7F1
:101FF0000704638A072C01476395E92E4E85056126
:102000006FE06F9B2D6A93054AEC2545EFE0EFF7F3
:10201000630E0520373900208144114D130989E4EE
:10202000230694026395A40993054AEC2545EFE045
:10203000CFF5630D051EA54793054AEC25451CCC3D
:10204000EFE0AFF40328C401AD6D93854DE6AA849B
:10205000428542CEEFE06FF3832B04022D6D930592
:102060008DE2AA8A5E85EFE04FF25050AD6C2A896E
:102070009385CCDE328532CCEFE02FF12A8B63875B
:10208000041A7248FD556246630EB80663800A1A48
:102090006383BB04630C09186313B60A639A541B69
:1020A000638A24196303090463130B0AB5AA93977F
:1020B0002400CA9783AC0700638B0C0093054AEC9D
:1020C0002545EFE08FEC83A70C00E38CA7EE850499
:1020D00093F4F40FB1B7630F7601630905146396A7
:1020E0005407638124156314090663179B14232086
:1020F00064018DA06386541563190914DA8404C041
:10210000B1E82DA2638B0B0363020912630D060174
:10211000630E0510E38754FDE3850AFC23202401A8
:10212000631469113DA06385541163830A10631918
:10213000A90E23202401CA8431A86309760D630700
:102140000B0EE38054FBE38E0AF8E31909FC23200D
:102150006401DA84B746014093860680639ED40EFC
:1021600037160240144E9165CD8E14CE230604021C
:102170009306500314D493054AEC2545FD3B638632
:102180000A00484C93854DE6CD3B014A630809009F
:10219000085093058DE2130A0010C53363080B0045
:1021A00048509385CCDE136A0A20C13B0349C40220
:1021B000B7370020938787E493162900B697B706B0
:1021C000002093864602044094C3F167938707205A
:1021D0001CC4B7070C0044C0232604001CC8231AE3
:1021E000440163960A00DE2893E78700DEA8B7055E
:1021F0000020938585022685EFE06FC4DE24096701
:10220000D98FDEA48D47E3FE27DB0DA0E38A54E9D6
:10221000E3880AE8E30409EE23202401E30BA9F292
:10222000CA8419A8E30569F3232004008149F9B39E
:10223000E39C24E7E38D64F1E3180BFE04C019BFAF
:10224000E39224E7E39EAAFCEDB5E31BA9FC01B7EA
:10225000E318A9FCCA8465B5B746004093860640DA
:10226000639FD40037160240544EB7050200CD8E4E
:1022700054CE85462306D40293066003E5BDB756C7
:10228000004013860680639FC40037160240544EF8
:10229000B7050400CD8E54CE89462306D40293069A
:1022A0007003C9BD938606C0E397D4EC371602408D
:1022B000544EB7050800CD8E54CE8D462306D40269
:1022C0009306D00345BD03A40198A24783A4419877
:1022D000B305F4403337B400E31A97F4E377B5D08D
:1022E000B1B7834786028A07B6979C438C439E21E9
:1022F00093F70704EDDFD2451C42BA958C21050700
:10230000CEA3DDB92E85B28579B1EFD21FEA37149D
:1023100002401C4C0111B714014093E7C7001CCCCC
:102320009307803FFC82E1473ECE4C088D471385E2
:1023300004C03ECCEFE0EF8AE1774C0813850480BF
:10234000FC82EFE00F8A1C4C37051800854593E7A7
:1023500017001CCC5C4C13050530B714004093E704
:1023600017005CCC5C4C93E727005CCC5C4C93E79B
:1023700047005CCCEFE0CF9537151A008545130573
:102380000580EFE0EF9485473EC42C009307703E34
:1023900037050040370400403EC6EFE02FA22C0076
:1023A00013050440EFE08FA12C0013850480EFE0BB
:1023B000EFA01E30E5759385F5CFC207C183F99B69
:1023C000C207C1831EB01E3056201A2CC207C20697
:1023D00042074183C1821377C7F856A013670706E7
:1023E000C1831AACF59B231A040293E717001EB0B1
:1023F0001E301966C207C183BD9BC207C1831EB0D0
:102400001E3056201A2CC207C2066D8F518FC18212
:10241000420756A04183C1831AAC93F7F7FD93E7B7
:102420000701231C04021EB0035704429307044013
:1024300042074183799B420741839AB39A33CA2367
:10244000962F42074205C206C182418193F6C6F823
:10245000CAA393E60606418396AF759B239A0702AB
:10246000136717009AB39A33420741833D9B420793
:1024700041839AB39A33CA23962F42074205ED8EC1
:10248000D18EC2064181C1824183CAA31377F7FD71
:1024900096AF239C0702136707019AB303D7048200
:1024A00093870480420741831377F7EF4207418304
:1024B0009AB39A33CA23D62F42074205C206C18275
:1024C000418193F6C6F8CAA393E606064183D6AFC8
:1024D0001377F7DF239E0702136707109AB39A3327
:1024E00042074183799B420741839AB39A33CA23B7
:1024F000962F42074205C206C182418193F6C6F873
:10250000CAA393E60606418396AF759B239A0702FA
:10251000136717009AB39A33420741833D9B4207E2
:1025200041839AB39A33CA23962F42074205ED8E10
:10253000D18E4181C206CAA3C182418396AF13776F
:10254000F7FD239C0702136707019AB39A334207EA
:1025500041831377F7EF420741839AB39A33CA2333
:10256000D62F42074205C206C182418193F6C6F8C2
:10257000CAA393E606064183D6AF1377F7DF239EFF
:102580000702136707109AB39A33FD76FD16758F0D
:102590009AB39633CA23DA2F42056D8F518F41814A
:1025A00042077976CAA341837D16DAAFF18E0566BC
:1025B00023900704D18E96B31E2093E717001EA028
:1025C0008357044093E717002310F44083D7048017
:1025D00093E717002390F48005616FD05FBFEFD2BF
:1025E0005FBA5C41AE843284FDE70547A38EE1907B
:1025F000B74701401307F0FB2390E780B70702407D
:10260000FC43858B95CB61691309196AB7090240B0
:1026100093874904DC43C207C18381CB7D196306DC
:1026200009000545EFE05F82E5B7B7060240FC42CE
:1026300041677917F98FFCC2B7060240FC42416737
:102640007917F98FFCC223A2060423A4060423A64B
:10265000060423A80604DC423D67D98FDCC2138739
:10266000C1FA44C340C7EC42E177BD070853FD8D72
:102670001C47C98F084BC98F484BC98F084FC98F5A
:10268000484FC98F4853C98F0857C98FCD8FFCC297
:10269000A0C61C430567FCC6A4CAFC4293E717000A
:1026A000FCC2B71701409387078098CBB74701401A
:1026B00003D7478113670708239AE7801307F0FBC6
:1026C0002390E7809387C780984322851367070488
:1026D00098C36FD09FAE0547238EE190B757004057
:1026E0001307F0FB2390E7809387C7809843014945
:1026F000896A1377F7FB98C3375A00407D5B9317BD
:102700000901C18363E58700B757004045BFB38720
:10271000240183CB070093890A7183570A8093F7BA
:10272000070881EBFD19638869010545EFE0CFF1EA
:10273000EDB76384090023127A810509C9B7EFD286
:10274000DFA601112313010002CA02CC02CE23A28C
:10275000A190B7170240984F916637140140558FEA
:1027600098CF984F130504808D441367470098CF86
:10277000D84B4C00056913671700D8CB930700208E
:102780007C82E1473EC626C4EFD0BFC59307004018
:10279000130504807C824C00930780043EC6EFD072
:1027A0005FC4C147130504804C003EC623122101BB
:1027B00026C4EFD01FC313040480F167232A240129
:1027C00093870720374401403EC80C08B1471305E2
:1027D0000480FC85EFD0BFE69307C480984313675D
:1027E000070298C398431367070498C303A701958A
:1027F00011E7B7E700E0A38A074225A083A6019569
:102800000547E388E6FE83A601950947E383E6FED4
:1028100003A70195E30F97FC03A701959147E30AEE
:10282000F7FCB7E700E03707200023A2E71037479F
:1028300001409387C1FA9306478094C3C14694C769
:1028400093060008D4CB8D66D4D323A2070023A01F
:10285000070223A8070023A4070223AE070023AC26
:10286000070023A60700930707800357C7808966E0
:10287000558FDAA785679387E7FB23A0F19205615F
:102880006FD0FF94232205005DBDEFD29F8F937719
:10289000F50F130740022E896365F7042D678A0739
:1028A000130747F2BA979C43137405705D8CFD576C
:1028B0006304F426373B0020135C240093070BE2EB
:1028C000137CCC03E2979C43937CF400130B0BE244
:1028D000B3D79701858BB1CFAD69938749C4FD56B6
:1028E0001DA81377050C9306000C6317D722130756
:1028F000900C6363F7222D679376F5038A0613071E
:1029000047D336971843AD67938747F20A0759BFF5
:10291000630FE420B1079843E31CD7FE629B0327B3
:102920000B008547B397970193C7F7FFF98F2320D3
:10293000FB007D199147914563ED271DA96793879A
:1029400007300A093E998327090082870A05938781
:1029500044015E951CC193070008DCD49307000472
:102960009CD8B737014023AC4401C4C823AE04004F
:1029700023A0040223920402938707C06312FA0E75
:10298000B71602409C4E056713070780D98F9CCE6F
:1029900083A7890089CB0D46CE854E85829723A4D7
:1029A000090023A60900C109E394A9FF884CC16767
:1029B000FD1723AE04009CD01E2123A0040023A2F7
:1029C000040093E7070823A4040023A6040023A817
:1029D00004001EA19385C401EFD05FBEB7E700E0FD
:1029E0009387071013070020D8C305679306078055
:1029F000D4C3D8C30967D8C31167D8C3B3875B01F1
:102A00009C4384C3DE9A83A70A0083A90700E38757
:102A100009F083A489012685EFD0DF80B737014014
:102A2000938707C06399F408B71602409C4E7D77E0
:102A30001307F77FF98F9CCE0A055E9523200500CA
:102A400023AA090093844908138A4903638C440B21
:102A5000C1149C44E5DF0D46A68526858297FDB707
:102A6000B70700406319FA00371702405C4F93E73D
:102A700017005CCF31BF938707406318FA00371700
:102A800002405C4F93E72700EDB7B717004013876C
:102A900007806318EA00371702405C4F93E747004E
:102AA000C9BF938707C0E315FAEE371702405C4FA2
:102AB00093E787007DBFB70700406398F40037179E
:102AC00002405C4FF99B5CCF85BF938707406397BB
:102AD000F400371702405C4FF59BF5B7B71700407D
:102AE000138707806397E400371702405C4FED9B24
:102AF000D9BF938707C0E391F4F4371702405C4FC6
:102B0000DD9BD1B7930540084E85EF40D05839B5CD
:102B10008D452285EFF08F8D6FD02FEAE145D5BF2F
:102B200093058002FDB78145EDB79D45DDB79385DF
:102B300049C42285EFD07FC5EFD0CFEEB73B002050
:102B400093874BE3931A2500D6979C43938B4BE3D3
:102B5000E39A07EA13054008EF401054AA849385CE
:102B600049C42285EFD07FC2938944032A8A138DFA
:102B70004408CE8723A0070023A2070023A4070050
:102B800023A60700C107E317FDFE5285EFD08FE9AA
:102B9000C167FD17E31CF5DA01A0EFD20FDE372481
:102BA000002093078495C44703A9470103AC47025B
:102BB00083AC070203ABC70283AB87025D712AC4F3
:102BC000214D930D000813048495B7F900E0254AC0
:102BD00003A7890083A7C9001306803E3AC83ECAEE
:102BE00083A7090103A849018146938A170033B7D7
:102BF000FA003A98B3050A0342C6B3375A033305BD
:102C00005A03BE95EF5030304247D24732483ACC53
:102C10002A833ECE0145814803A7890083A7C900C6
:102C20003AC83ECA6247F2474246D24663EAF606CF
:102C30006394D7006366E6064247D247E24E724F7E
:102C40003306D741333EC7003387E7413307C741D7
:102C5000B287AA97B3B6A7004697B388E600424763
:102C60003E85D2473ACC3ECEE3E8B8FA63941501EC
:102C7000E36465FAA247B3F7B7016394072863D406
:102C8000970613972700B306E900944281EA6697F6
:102C900014431397170062971A23D8CA8507C5B73C
:102CA0006247F2474246338FEA40D246330EF8403D
:102CB000B3BEEA01330EDE41B307CF0033B7E701FD
:102CC000F296369779B713972700B306E900944236
:102CD00081EA669714431397170062971A2398CADC
:102CE0008507E3C297FE814763CF972003A789003A
:102CF00083A7C9001306803E3AD03ED283A70901BC
:102D000003A849018146938A170033B7FA003A981D
:102D1000B3050A0342C6B3375A0333055A03BE95B7
:102D2000EF50701E0257925732483AD42A833ED64B
:102D30000145814803A7890083A7C9003AD03ED244
:102D40002257B2570256925663EEF61C6394D70090
:102D5000636AE61C02579257A25E325F3306D74180
:102D6000333EC7003387E7413307C741B287AA978D
:102D7000B3B6A7004697B388E60002573E85925740
:102D80003AD43ED6E3E8B8FA63941501E36465FAF1
:102D9000814763CC971A7D1D93DD1D00E31A0DE278
:102DA000814763C3971CB7F700E09047D447254598
:102DB00032D836DA984BDC4B1306803E9309170065
:102DC00033BAE9003E9AB30545038146B33735036C
:102DD00033053503BE95EF5010134257D257014EBD
:102DE0003ADC3EDE014737F300E00326830083260A
:102DF000C30032D836DA6256F2564258D25863E4EB
:102E0000D818639416016360C818C25E525F625C92
:102E1000F25C33888E4133B60E01B3079F41C28600
:102E2000918FBA9633B6E600F297330EF60042560B
:102E30003687D25632DC36DEE369BEFA6394C501CA
:102E4000E365A7FA814763C49716B7F700E0904798
:102E5000D4472545B2C0B6C2984BDC4B1306803E22
:102E60009304170033B9E4003E99B3052503814666
:102E7000B337950233059502BE95EF50D00806474B
:102E800096470146BAC4BEC60148B7F800E003A79A
:102E9000880083A7C800BAC0BEC22647B64706430B
:102EA000964363E5F312639477006361E31206438C
:102EB0009643264EB64E3307C341B336E300B3877D
:102EC000D341958F3297B336C700C2973A860647EB
:102ED0003388F6009647BAC4BEC6E36AB8FA63946C
:102EE0000501E366A6FA81448549544463C2D410BF
:102EF00050484C540854814763CBD71261616FD05E
:102F00008FAB8147F9BB13972700B306E9009442C2
:102F100081EA5E971443139717005A971A2398CAA9
:102F20008507D9B32257B2570256338FEA409256DB
:102F3000330EF840B3BEEA01330EDE41B307CF00D3
:102F400033B7E701F29636971DB513972700B306FE
:102F5000E900944281EA5E971443139717005A9749
:102F60001A23D8CA850735B513972700B306E90099
:102F7000944281EA669714431397170062971A23C5
:102F800098CA850739BD6258F258425FB387094134
:102F9000D25FB3BEF90033081A413386E701330824
:102FA000D841B337F6007E98B286C2979DBD13977D
:102FB0002700B306E900944281EA5E971443139711
:102FC00017005A971A2398CA8507B5BD264EB64EE4
:102FD0000643B387C441964333B7F400B306D941DF
:102FE000998E33876700B337F7009E96B697D9BDA1
:102FF0001C4C139924008945CA978843EFF0FF8839
:103000001C5093961400CA979C4398475C50B697FF
:103010009E23F98F89C75C48CA9723A037011C4CAF
:1030200095458504CA978843EFF03F867DBD139789
:1030300027003308E60003280800631B08002A97CE
:1030400003280700139717002E971A23232AE80056
:1030500085075DB5EFD2EF92B7F700E09047D44710
:10306000797132C036C2984BDC4B2A8A13041700A0
:10307000B334E4002545BE94B30595021306803EA3
:103080008146B337850233058502BE95EF50A067B0
:103090000247924701463AC43EC60148B7F800E0ED
:1030A00003A7880083A7C8003AC03EC22247B247A0
:1030B0000243924363E3F31C63947700636FE31A64
:1030C00002439243224EB24E3307C341B336E3006C
:1030D000B387D341958F3297B336C700C2973A86EC
:1030E00002473388F60092473AC43EC6E36AB8FA0C
:1030F00063940501E366A6FAB72700201387879536
:10310000444703294701832B4702032C0702938777
:10311000879501476345971883AAC70203AB8702C7
:10312000814763CD9718B7F700E09047D44725450E
:1031300032C836CA984BDC4B1306803E1304170086
:10314000B339E400BE99B30535038146B337850230
:1031500033058502BE95EF50005B4247D2472A8374
:103160003ACC3ECE0147814737F500E01045544543
:1031700032C836CA6246F2464248D24863EFD81493
:1031800063941601636BC814C24E524F6248F248F2
:10319000338E0E4133B6CE0133081F41F286330819
:1031A000C840BE9633B6F6003A9833070601424649
:1031B000B687D24632CC36CEE36AB7FA6394E500DE
:1031C000E3E667FA814763CE9712B7F700E09047CE
:1031D000D447254532D036D2984BDC4B1306803E7F
:1031E00013041700B339E400BE99B30535038146D3
:1031F000B337850233058502BE95EF50C0500257A4
:103200009257014E3AD43ED6014737F300E00326E9
:1032100083008326C30032D036D22256B2560258DB
:10322000925863EFD80E63941601636BC80E825EEA
:10323000125FA25B325C33887E4133B60E01B30766
:103240008F41C286918FBA9633B6E600F297330E5D
:10325000F60002563687925632D436D6E369BEFA65
:103260006394C501E365A7FA814763CF970C528544
:10327000EFF0BF9245616FC05FF4224EB24E024341
:10328000B307C44192433337F400B386D441998ED7
:1032900033876700B337F7009E96B6972DBD931618
:1032A00027003306D900104201EAE29690429316B5
:1032B0001700DE96962214CA0507A9BD13972700AA
:1032C000B306E900944281EA5A9714431397170012
:1032D00056971A2398CA8507A9B56248F248C24E84
:1032E000B3060441524F333ED400B38819413386AC
:1032F000D601B388C8413338D600FA98B2864698CA
:103300004DB513972700B306E900944281EA62970E
:103310001443139717005E971A23D8CA850765B51B
:103320002258B258025FB3070441925FB33EF400E3
:10333000338819413386E7013308D841B337F600A3
:103340007E98B286C29701B713972700B306E900AB
:10335000944281EA5A9714431397170056971A23F9
:10336000D8CA850719B7EFC25FE437240020930756
:103370008495DC47AE841304849595C3EFE0EFDBBE
:103380001305C006C1393145EFF03F811305D00662
:10339000D1310545EFD01FFA0145EFD0BFF94844C0
:1033A00003284401184403230400832804018147AF
:1033B00063C7A700860426970A236FC05FE1939630
:1033C0002700C29690429396170001EE3386D800EC
:1033D0000E220546BA968EA2B306F30090A2850788
:1033E000C1BF81450146FDB7EFC23FDC2A8403150A
:1033F00065008147634B05008545EFF00FC9031554
:1034000064008145EFD02FBA85471CB06FC03FDC08
:10341000EFC2BFD93725002013058593F1371385F7
:1034200081FFD93713858101C137138581036D3F32
:1034300013858105553F6FC09FD9C1456F40A04599
:1034400091456F4040459305C0406F40C044EFC276
:103450005FD359713C003ED67C003ED83C003ED044
:103460007C003ED21C412EC632C436D436CE19471B
:103470006361F70229678A0713078734BA979C4369
:103480002A84B6848287A965938505326808EFD0BF
:103490005FDE65616FC07FD25C2189C7AD659385B2
:1034A000058BEDB7A96593854531CDB7EFD06FBFDB
:1034B0002966AA8613068632C145E800EF6070458A
:1034C000EC00E9B7EFD00FBFB70400801389F4FF19
:1034D00083A5C183337925012A844A85EF50A00151
:1034E00001E983A5C1834A85EF5050476356A00088
:1034F000A9659385C53259BF930500002285EF4029
:1035000010766356050683A501842285EF40307549
:1035100063490508A18C2685EF6040342A89EF6055
:10352000003FAA852685EF50907A83A58184EF50CD
:10353000504C83A5C184EF506057EF602032AA84BD
:10354000930500002285EF409071635705009305B5
:10355000D0022810EFD01FD029662687CA8613060E
:10356000C63393050002E800EF60B03A91BF83A52F
:1035700041842285EF50903E6359A002AD66938648
:10358000C6AD228536C2EF608058924629662A87EA
:10359000AE871306463393050002E800EF607037EC
:1035A00005B7A9669386C631E9BFA284ADB7930576
:1035B00020022810EFD01FCA1104130920020307AC
:1035C000040011C7A2479440FD1763E8F600930575
:1035D00020022810EFD01FC86DBD63062701930796
:1035E000C0056317F7009305C0052810EFD09FC6EC
:1035F0008305040028100504EFD0DFC5C9B7032BED
:1036000045009305B0052810EFD0DFC463190B1CEB
:103610009305D0057DBF5443296613068632C14504
:10362000E800EF60102FEC000DA803294700B70C4D
:103630000080138DFCFF83A5C183337DA9016A85BA
:10364000EF40706B01E983A5C1836A85EF501031AB
:103650006355A008A9659385C5328800EFD03FC6A1
:1036600083270B0A8509E3D5F9FA9305C0022810D0
:10367000EFD05FBE8387818E89E723200A0A2384E7
:10368000818F1840994752896318F7000329440035
:10369000631409001389C19EB24522468327090A93
:1036A0002ECA32CCE3DEF9FA930C8002B38C990374
:1036B0003C083EDC5C083EDE3C08BEC25C08BEC482
:1036C00026DA330799011C43A6C09546FD17E3E9A6
:1036D000F6F88A07D6979C438287930500004A85AF
:1036E000EF40F0576357050683A501844A85EF40F4
:1036F0001057634A0508B3CC2C016685EF600016AD
:103700002A8DEF60C020AA856685EF50505C83A5A6
:103710008184EF50102E83A5C184EF502039EF60D3
:10372000E013AA8C930500004A85EF40505363577D
:1037300005009305D0024818EFD09FB6296666872A
:10374000EA861306C63393050002E800EF60701C9A
:10375000D9BD83A541844A85EF5050206359A0020A
:10376000AD669386C6AD4A8536C2EF60403A924652
:1037700029662A87AE871306463393050002E800C0
:10378000EF6030194DB5A9669386C631E9BFCA8C82
:10379000ADB75C2389C7AD659385058B7DBDA965F4
:1037A000938545315DBD481893052002EFD05FAF8A
:1037B00093858C00CA958800EFD07FB093052002D6
:1037C0004818EFD0FFAD69BD5C431547A686E800F9
:1037D000BAC6BEC8AD3969B55C431947C5BF8327B2
:1037E0000B0A8149E356F0E2A96A138AC19E054C8F
:1037F000938A4A3641B540419305B0072810EFD06F
:103800007FA519C48327041A930904016345F000B6
:103810009305D0077DBB930520022810EFD09FA30E
:103820000149296A8327041A938509FF6345F90032
:10383000AD659385C5AD6808EFD0BFA36808930553
:103840004A34EFD01FA38327041A4E856344F9003E
:10385000138501A92246B245A6860509CD3E8327D8
:10386000041AE357F9FA28109305C002EFD09F9E7F
:1038700093052002281093894903EFD0BF9D5DB7BF
:10388000EFC23F9003A4C193797109E403A481942A
:103890006304040E2285EFD0EFE79307E07F372B18
:1038A00000203EC693070BE23EC83C003ECC7C00A5
:1038B0003ECE1C083ED03C003ED27C003ED4372A8F
:1038C00000201C089305B00728083ED613094AC7F4
:1038D00002C4EFD09FA18327091A93090BE2130AB0
:1038E0004AC7814B635DF004296C930520022808C8
:1038F000EFD0BF9FCA854810EFD01FA193054C346D
:103900004810EFD07FA0A247C244B24A5408BE94E8
:10391000B38AFA405686A6851305090102CAEFF05C
:103920001FB3524763755701BA9423800400A2471E
:10393000850BBA973EC483270A1A63C2FB0493051A
:10394000D0072808EFD07F9A2247B2476376F70066
:10395000C247BA97238007002246354793050BE2FA
:10396000B387C90098A3294798B31C4009064206AB
:103970009C4F41822285829745616FC01F849305C9
:10398000C002280813094903EFD03F96B9BF23208E
:10399000050013060002814511056FC00FFDEFC23F
:1039A000DF802A84930405011309051B268593846F
:1039B0004403F13FE39C24FF85472320041A23029C
:1039C000F41A6FC0DF80EFC24FFE95471CC103A4FD
:1039D000018F0D47617105043364E402AA84280055
:1039E00023A8818E6D3F9307801AB307F40237072F
:1039F0000020130747372C001306501ABA973E854C
:103A0000EFC04FF5C8C05D616FC06FFCEFC2EFF94A
:103A100061712800693737250020130445C72C0041
:103A20001306501A130545C7EFC0CFF22324041A1A
:103A30005D616FC0CFF9EFC24FF791472A841CC177
:103A40007D461105EF40604BA30104026FC02FF8C3
:103A500081E5232005008280F9BFEFC26FF30329BF
:103A6000051A39712A848144130A400363C5240569
:103A70009D4763C3270793044003330599027D469E
:103A80002295EF4080470329041A6808B30499027D
:103A90000509B3099400A38F0900D53D1306400220
:103AA0006C0813850901EFC0EFEAC1042320241B31
:103AB0003305940029A8B38944032EC63305340185
:103AC000EFC00FE8B24519E5C109330534012161A2
:103AD0006FC04FEF850459BF2302041A138501A953
:103AE000FDB7EFC2EFEAB284AA892E8905373724E1
:103AF0000020A9659385C537130544C7B93F894799
:103B0000A9651CC12322350193850538130544C7D7
:103B1000A9378547A9651CC123020500938545384F
:103B2000130544C71D3FCA852537A9659385C53848
:103B3000130544C71D37A685213FEFF07FD46FC022
:103B40006FE8EFC2EFE4AA8932842E89C135B72429
:103B50000020A9659385C537138544C7FD3D894776
:103B6000A9651CC12322350193850538138544C7F7
:103B7000ED3585471CC15CA1630A0900A9659385E1
:103B80004538138544C7D13DCA85D93509C8A965CB
:103B90009385C538138544C7C935A285553DEFF0D7
:103BA0003FCE6FC02FE2EFC2AFDE2A8408412E89DC
:103BB000B28465351C4185490840F917CA8563FA06
:103BC000F900A685593D1C41F91763E9F900084041
:103BD000A6856135EFC01FCE6FC0CFDE03A501857E
:103BE000E5BFEFC2EFDA2A8408412E89B284EFF0F4
:103BF000DFE61C4185490840F917CA8563FBF900D7
:103C0000A685EFF09FE51C410840F91763E9F9002C
:103C1000A685EFF09FE4EFC0FFC96FC0AFDACA8599
:103C2000EFF0BFE31C41CA850840F91763FBF900B8
:103C3000A685EFF09FE21C41F91763EBF9000840FD
:103C4000A685EFF09FE1EFC0DFC5EF50504CF1B714
:103C500003A50185D9B7EFC2AFD38329051AAA847A
:103C60002E890144130A40036345340101456FC0A6
:103C70006FD533054403CA852695EFC06FCC19C1B3
:103C80000504DDB70545E5B7EFC22FD283254547CB
:103C9000B747614093871706D8412A846316F70017
:103CA0009841C1476302F70883A741855CC41CC8DB
:103CB0005CC81CCC83A781855CCC83A7C1851CD044
:103CC00083A701861CD483A741865CD483A7818601
:103CD0001CD8930720035CD883A7C1861CDC83A76C
:103CE00001875CD083A741875CDC83A781873CC0C8
:103CF000930700007CC083A7C1873CC4C1475CC058
:103D0000B7476140938717061CC48347443F95E338
:103D100008408547230AF43E1C41DC478297232C48
:103D2000A43E232EB43E31A0130680041105EFC03B
:103D30006FC283258447B747614093871706984130
:103D40006318F700130640051305C404EFC08FC0C5
:103D50006FC0EFC7EFC26FC52A8448454111AE84DA
:103D6000EF30704238381C280D466303F7001146C7
:103D7000330696024206418252A0328532C6EF30A7
:103D8000104048C409C932468145EFC00FBE26A085
:103D900041016FC0CFC3231204008144CDBFEFC2E5
:103DA000CFC0B707020185071CC985471EA12304A0
:103DB000050023260500232A05002A84B284593FE2
:103DC0001C3081CB03156400634505008145EFE09D
:103DD000DFAB1C3066A089CB85452685EFE0FFAAC6
:103DE00081452685EFC03F9C8317640093064002FF
:103DF00013F7F70F63CDE602AD660A07938646F226
:103E00003697184393F70770D98F13F6F70093D6B8
:103E1000470005473317C700BD8A11466378D604AB
:103E2000BD8B0547232C0400B317F70011A893F6A8
:103E3000070C1306000C6388C600232C0400A1673E
:103E40005CCC6FC0CFB89306900C63CFE600AD6634
:103E500013F6F7030A06938646D3B29694422D676B
:103E6000130747F28A0669BFFD575DBFAD678A0633
:103E7000938707C3B6979C4358CCB71601401CCC18
:103E8000E391D7FCB72702409C5BB706000FF58F84
:103E9000CDFB358358CC75B7EFC22FAE3714024037
:103EA0001C48856493840480C58F1CC81848FD771E
:103EB0009387F77F7D8F18C8584C5D718545F98FC2
:103EC0005CCC1C4C216593E717001CCCEFC04FE085
:103ED000EFF00FD41C4C371501400C1893E7470046
:103EE0001CCC8D473EDA130505809307F00F23188D
:103EF000F10202DCEFC0EFCE5C48370702404166BA
:103F000093E717005CC81C477916F18F1CC7232460
:103F100007002326070023280700232A07005C4305
:103F200061763D0693E7F7005CC31C47F18F0D6691
:103F30001306065AD18F1CC7B727014044C7138602
:103F4000C74410CB371600201306869350CB144776
:103F50009387074093E6160014C75844D176FD16A0
:103F60001367072058C458441377F7DF58C45840E4
:103F7000758FB166558F58C0184C1367072018CC41
:103F800036462647D443518F3706F1E01306F6EF45
:103F9000F18E558F13670710D8C39847B7F6F1FF16
:103FA0009386D67F758FB7060E008906558F98C702
:103FB000D857B70610FFFD16758FB7067000558FDE
:103FC000D8D79847B70600FCFD161367170098C7A7
:103FD000D843758FD8C39847B72601401367870029
:103FE00098C7938706409847218B65FF98471367CA
:103FF000470098C7372701409307074084479188B7
:10400000E5FC230B0100254637270140834761016A
:10401000637FF606230B0100A54621468347610115
:1040200063FDF60A231C0100231D0100230B010080
:104030009546130600608347610163F1F6148347D8
:10404000610163800718B88483466101BC8483459D
:104050006101034661013347D702B3E7B702860720
:10406000B3C7C702BA97C207C183FC840347610183
:1040700099479546998F93F7F70FA30BF100834764
:1040800071016399071685679387078051AA930684
:1040900007409C4693E787009CC6930707409447D8
:1040A000A18AE5FE944793E6460094C7930607402D
:1040B0009C46918BE5FFF446834761010C08860717
:1040C00093870704AE972396D7FC83476101850742
:1040D00093F7F70F230BF10015BFA30B01008347E4
:1040E0007101637AF60083476101850793F7F70F43
:1040F000230BF10025B703477101834771010C08B9
:1041000006078507860713070704938707042E977A
:10411000AE970357C7FC83D7C7FC63F9E70483470F
:104120007101860793870704AE9783D7C7FCFC8489
:104130008347710103477101850786079387070449
:10414000AE9783D5C7FC9317170093870704180809
:10415000BA972396B7FC83477101B8840C0885078A
:10416000860793870704AE972396E7FC8347710180
:10417000850793F7F70FA30BF10095B7834761010C
:1041800018088907860793870704BA9783D7C7FC5F
:10419000E367F6EA834761010C08B884890786075C
:1041A00093870704AE9783D7C7FCBA97C207C1832A
:1041B000FC8483476101850793F7F70F230BF10018
:1041C0009DBD9307004055B5834761011008B88530
:1041D0008907860793870704B29783D7C7FCBA97E6
:1041E000C207C183FC8583476101850793F7F70FF9
:1041F000230BF10083476101E3F8F6FCB8858346A1
:104200007101BC8583457101034671013347D702B3
:10421000B3E7B7028607B3C7C702BA97C207C1831D
:10422000FC85BC84B085A884AC85856613070040F6
:1042300093860680B307F7403386C640098F8D8E7C
:10424000C20742064207C2064186C1874187C1862E
:10425000B297369709463367C702372301400D4EA0
:104260009D45994E15457D48B3C7C702BA97C20709
:10427000C18723A2F1928147B386C7031307034086
:10428000104BB396D500D18E1386170014CB9376BE
:10429000F60F63E2DE02B388A702032F4703B316CB
:1042A000180193C6F6FFB3F6E601B3971701D58F51
:1042B0005CDBB287D1B7B386A702832807038916D0
:1042C0003316D8001346F6FF33761601B396D7009F
:1042D000D18E14DB6384B7009D4779BF1C47B706B6
:1042E00050001305001093E707101CC71C47372424
:1042F0000020D58F1CC7EFC0EFD4EFE00F81370649
:104300003200814513058493EFC04FEEEFC07FC5A7
:104310001305800CEFC00FD313062003814513054E
:104320008493EFC0AFECEFC0DFC31305800CEFC088
:104330006FD10D6613060620814513058493EFC0E7
:10434000EFEAEFC01FC21305800CEFC0AFCF13051B
:10435000849301468145EFC06FE937240020EFC008
:104360005FC0EFD09FFAEFF0AF8A130984959147B1
:1043700011452326F900EF3060548327C90023201C
:10438000A90037070020130484957D5563F4E700E6
:1043900013952700EF3080525C4448C03707002057
:1043A0007D5563F4E70013952700EF302051584402
:1043B000B707004048C8F9177D5563E4E7001315B7
:1043C0001700EF30A04F5844B707004008C4F91752
:1043D0007D5563E4E70013151700EF30204E5C4471
:1043E00008C8370700207D5563F4E70013952700C0
:1043F000EF30C04C5C4408CC370700207D5563F497
:10440000E70013952700EF30604B5C4448CC37073A
:1044100000207D5563F4E70013952700EF30004A34
:104420005C4408D0370700207D5563F4E7001395FE
:104430002700EF30A0485844B707004008D4F917C8
:104440007D5563E4E70013151700EF30204758440B
:10445000B707004048D0F9177D5563E4E70013150E
:104460001700EF30A0451C4C032BC401832B4402E2
:10447000032C4400832C0400032D8400145410509A
:10448000B70F0020B7020020AD652D6F48D43EC69F
:104490000148014E938F0F009382020113094002DD
:1044A0009309000C130A900C854E938505C3130FD6
:1044B0004FF2914AFD5D5C446345FE0481445C44D7
:1044C00063C8F4188DC3EFD04FC71305C006EFE0E3
:1044D0007FB82D45EFE06FEC1305D006EFE09FB7F6
:1044E0000145EFC03FE54848032804008328040144
:1044F000032344008147584463CDE71861616FB0DE
:104500009FCB3247B387F4019C432697B3089B00A7
:104510001CC3B38754009C4323A0F800184393782E
:10452000F70F636919038A08FA9883A808001377BC
:104530000770336717019358470093F8F80063FA40
:104540001A0981483D8B3397EE004207232016015C
:10455000418311A81373070C6314330163701A05A8
:10456000232006002167B3880B012390E80013F78E
:10457000F70F6365E9060A077A97184393F7077000
:10458000D98F13D747003D8B63F0EA0C0147BD8BF1
:10459000B397FE00C20798C2C18391A89373F70333
:1045A0002D638A03130343D31E9303230300AD68D3
:1045B000938848F20A039A9883A808001377077033
:1045C0001143336717019358470093F8F800E36AE3
:1045D00013F78A08AE9883A80800ADB793F8070CC4
:1045E00063943801637AEA0223A00600A1673307C7
:1045F00005011EA3B3079C0023A0B701B387CC011C
:1046000023800700B3070D0123900700050E9106D4
:1046100011069104090845B513F3F703AD680A03C1
:10462000938848D39A9883A808002D67130747F208
:104630008A084697184393F707709148D98F13D784
:1046400047003D8BE3E4E8F40A072E97184381B74F
:104650008329C401139924008545CA9903A509003B
:104660008504EFC04F941C4C8545CA978843EFC022
:104670008F9303A509008545EFE02FA11C4C9545BC
:10468000CA978843EFE06FA05C48CA9723A0070051
:104690003DB5939627003306D50010423307F80046
:1046A0001336160010A31397170046971A237D564A
:1046B0009375070281C993750701054681E5098352
:1046C000137627009A9690C2850735B5EFB2FFAAF8
:1046D000397119E101443DA08D47B289E3CCC7FE91
:1046E000AE84EFD08FB2030905002A84630C090061
:1046F000A965114693850532EF30807601E923A044
:1047000004001104228521616FB0FFAAAD65114636
:104710009385058B2285EF30A07409E585479CC001
:10472000DCA0C5B7A9651546938545312285EF30D4
:10473000207319E585479CC0238204001504D9B76E
:1047400093072002631EF9006C08130600022285FD
:10475000EFD0CFA12A846C082685EFF0CFAD5DB7EE
:104760009307D0026302F908930709FD2547637098
:10477000F70E9307B0056315F93003AC4400994771
:104780009CC063170C0283A781928D468507B3E70F
:10479000D7029306400A23A4F192B387D7023727A2
:1047A000002013078798BA9723A0070A3E8CDCC025
:1047B000030704009307B005E31EF7F0296B050417
:1047C000130AD0058D4B954A130B0B391309800240
:1047D00083070400639A0718030704009307D005B2
:1047E000631AF728050439BF0504230E2101854704
:1047F000B785000401461305500413085006F94814
:104800001303A002B5150307040019CB634CE5069A
:104810006358E300930657FDB3D6D500858A95EA21
:104820001387070314083697230E07FC99CB054717
:104830006398E7068347C101938757FD93F7D70F26
:10484000A1EBB7270020114723AEE7E061B5814710
:1048500045B7794E634CFE02130EE0026306C701B2
:10486000137EF7FD631EAE0013860703130E0101CE
:104870007296230EE6FC8507368609A88546EDB7B5
:10488000B286DDB7E31E07F9E3DAF8FE0504A5BF3B
:1048900001EE6808EF30000589479CC0C8C09DB58F
:1048A00001E62547E357F7FE8307C1011307D0024E
:1048B0006389E7081307B002930DC1016394E70011
:1048C000930DD101054A49A0638B6707938C07FDBF
:1048D00093F6FC0F63E7DB0463950A02EA854A85D9
:1048E000EF4030112AC613958C016185EF502002EC
:1048F000B245EF40A01B2A89850D83870D00E9F79B
:104900002DA0A2454E85EF40D00EAA8913958C01AB
:104910006185EF40D07FCE85EF40B00DAA854A85F6
:10492000C9BF93F7F7FDE39987FD8D479CC052857A
:10493000EF40F07DCA85EF40D00BC8C0E1B3854A97
:1049400065BF930DD1017D5A83A9018883A7818812
:10495000814A130900003EC403AD4188130BE002F5
:10496000A54B130C500451BF2285EFD00F8A83074B
:1049700005002A84638E470F6808EFF04F81228577
:104980004E866C08A1332A846306050E83240C0A24
:1049900063C19B08F247FD1763EDFA068A07DA97B1
:1049A0009C4382876808EFB0DFEFB3872403094791
:1049B000E29798C3C8C3850423209C0A99A8680875
:1049C000EFB05FEFB3872403E29723A07701C8C35A
:1049D000DDB7B3872403034701028546E29794C3FA
:1049E000D8A3D1BFB384240311477D460C10B3076D
:1049F0009C00A10498C333059C00EF3000500327AE
:104A00000C0AB30727030507E297A38307022320B5
:104A1000EC0A2285EFC07FFF830705001307C00261
:104A20002A846394E7040505EFC03FFE8307050071
:104A30002A84E39F47D9B7270020094731B5338738
:104A400024038147629723205701F246639D560154
:104A5000825711A83387240399468147629714C36C
:104A60007246E307D6FE5CC3B9B7E38347D7E1B725
:104A7000E31405D6B7270020094723AEE7E059B174
:104A80009307B007E319F9FA2685EFE0DFF3AA856B
:104A900013861900228519202A84ADB16309050EF9
:104AA000EFB20FEF8D474111328463DCC700B727A7
:104AB0000020154723AEE7E081473E8541016FB0F6
:104AC0006FF0AE84EFC07FF4830605001307B007D4
:104AD00093071500E392E6FE1309D007930920021D
:104AE000130AA0030504930AC0020387070009EB19
:104AF000838607001307D007639EE602850775BF0C
:104B00003E85EFC09FF003070500AA87E30227FF59
:104B100063063701B7270020094769BF230001005A
:104B200083070500E39837FF41468A85EFC01FE4FD
:104B300001E98147372700208946232ED7E0B5BFFA
:104B4000EFC0BFEC83070500E39647FD0505EFC006
:104B5000DFEB2A8B8A852685EFE03FF0AA85228647
:104B60005A85EFF0BFB671D5EFC03FEA03070500E5
:104B7000AA87631B57010505EFC03FE9030705003E
:104B8000AA87E31427F779B7E30127F761B7B727B7
:104B90000020154723AEE7E081473E8582808307EA
:104BA000050099E36F102038EFB22FDD130101D813
:104BB0009305B007EF30E031AA8949CD03A4C19431
:104BC00001CC084085472300F4401C41DC47829714
:104BD0002324A4402326B440EFE05FE3EFE01FE38B
:104BE00083870900B72A002013894AC7A5EB8547A8
:104BF0002324F91AEFC0EFB513064006CE85A809A5
:104C0000EF30A02F8547230E01122D67130747BEF3
:104C10008A07BA9798432966B7240020B409130677
:104C2000C63E93050010138544B7EF50804E03A491
:104C3000C19301E403A4819411CC138544B7EF30F0
:104C4000C02A1C401316050141829C4F938544B72E
:104C500022858297130101286FB0EFD54E85EFC0F2
:104C6000DFDA030705009307B0076301F7028947FE
:104C70002324F91AEFC0EFAD13064006CE85A8092C
:104C8000EF30A0278947230E011241B701469385D3
:104C90004AC7EFF0BFE0894709C58347491A81E752
:104CA00099472324F91A0324891A1DC0EFC06FAA5B
:104CB00013064006CE85A809EF3020241D47230E99
:104CC0000112A287E37387F429671307873AA1B714
:104CD000A96B9385CB3713854AC7EFE01FD8814571
:104CE000EFB07FBE296B93050B432A8413854AC717
:104CF000EFE0BFD6A965130A4500938545431385A8
:104D00004AC7EFE09FD518419547CA896317F70056
:104D10008329450063930900CA8929699305C9431A
:104D20005285EF30601651EDEFE05FCE9385CB37C3
:104D300013854AC7EFE07FD2894440C104C193057F
:104D40000B4313854AC7EFE05FD19305C943EFE0FA
:104D50009FCE29649305043813854AC7EFE0FFCF3F
:104D60008547A9651CC15CA19385454413854AC745
:104D7000EFE0BFCE93050438EFE0FFCBA965938544
:104D8000C54413854AC7EFE05FCDEFE0DFC3A965F7
:104D9000938585452A84EFE05FCCA9659385054618
:104DA000EFE07FC9A9659385C5462285EFE0FFCA7C
:104DB00003A7019883A7419804C158C1EFE05FACF5
:104DC00051BDA965938545475285EF30E00B2A898F
:104DD0006319055683A7C194E38E07E6EFC06F976A
:104DE000B72C002029668565A2861306C6479385E1
:104DF000058013850CE2EF50C03103AAC194AA8D3F
:104E0000938C0CE25285EFB03FBC83A7C1832AC1CB
:104E1000BEDA83A74184BEDC83A70184BEDE93078C
:104E20008008B307F9021D47D29783A7470AFD17E9
:104E3000636EF7162D678A07130747C0BA9783AAD0
:104E40000700931B4900D29B83A98B2FD655139B38
:104E50001900135B1B005A85EF30E069631C0514D1
:104E6000D6555A85EF40802F6346A014E6554E85EF
:104E7000EF40C02E6343A014F6554E85EF30205E00
:104E8000634F05124E85EF40701D2A8BEF4030288E
:104E9000AA854E85EF40A06383A58184EF406035ED
:104EA000EF40D01B9357F54183DBCB2F33CCA700CA
:104EB000330CFC409307803E33D7FB02B3FBFB026D
:104EC00093172900D29703ADC7003AC36A85EF4014
:104ED000F0182AC5EF40B023AA856A85EF40205F0D
:104EE00083A58189EF40E030EF4050179357F5419B
:104EF00033C6A7001D8E32C732C99307F07763C649
:104F0000B711930500004E85EF3060553A46635A5D
:104F1000050A63180B0AA9679387C7310A47856595
:104F20009385058033572741058B3385BC01B385B5
:104F3000B54141CF2D671307078B1308800833084D
:104F40000903529803480811630508082D681308DF
:104F5000088B93088008B3081903D29883C81812E5
:104F6000638D0806AD689388088BAA4632CC296603
:104F700036CA9A463EC05EC836C662C45AC2D68792
:104F8000CA861306864AEF50C018635CA004AA9D27
:104F90009307F07F63D7B7052966A9651306865284
:104FA0009385C5532285EFE0DFB36DB1A96A938A7B
:104FB0008A3B41BD93090000F1B5E659E1B5F659C8
:104FC000D1B5AD679387C7AD91BF29671307473147
:104FD000ADB7296813084831ADBFA9689388483137
:104FE00069B7050991476302F902856529669385CA
:104FF0000580B385B5413385BC011306C654EF5017
:105000004011AA9D03AAC19419BD03A4C194B70479
:105010000080FD14584C337997004A85BADCEF4084
:10502000F0032AC1EF40B00EAA854A85EF40204A1E
:1050300083A58189EF40E01BEF4050021C502AC33A
:1050400033F997004A85BEDAEF4050012AC5EF4098
:10505000100CAA854A85EF40804783A54188EF4020
:105060004019EF40A07F032984022AC7B379990031
:105070004E85EF40A07E2AC9EF407009AA854E8573
:10508000EF40E04483A58189EF40A016EF40007D0A
:105090008329C4022ACB33FA99005285EF40007C61
:1050A0002ACDEF40D006AA855285EF40404283A525
:1050B0008189EF400014EF40607A832B04032ACFEC
:1050C00033FA9B005285EF4060792AD1EF403004DB
:1050D000AA855285EF40A03F83A54188EF4060112B
:1050E000EF40C077032B84032AD3337A9B00528589
:1050F000EF40C0762AD5EF409001AA855285EF4057
:10510000003D83A58184EF40C00EEF402075832AC7
:1051100044022AD733FA9A005285EF4020742AD9E4
:10512000EF40E07EAA855285EF40603A83A5418832
:10513000EF40200CEF408072B7F6000803AC860009
:105140002ADB6285EF408071337C9C002A8AEF4025
:10515000007CB3F5A4006285EF40603783A58189A8
:10516000056C130C0C80EF40C008EF40206F6657B1
:105170009356F541B387BC01B3C4A6003EDD930549
:105180000000B307BC413A853EDF958CEF30202DFF
:10519000D657635C05162967930CC7319305000049
:1051A0003E85EF30C02B63560516A967138DC731B6
:1051B000930500004A85EF30802A6350051629695F
:1051C0001309C931930500004E85EF304029635A19
:1051D0000514A9699389C931930500005E85EF30F4
:1051E000002863540514A96B938BCB319305000001
:1051F0005A85032C4403EF308026635C0512296B2B
:10520000130BCB31930500005685EF3040256356D4
:105210000512A967938AC7315C5C37F70008BEDACC
:105220003C40BEDC7C40A6D6D2D41443BEDEB6D20F
:105230005843BAD028442944EF40406283A54188AE
:10524000AACE7655EF30F07AEF40406133658502A3
:10525000AACC7655EF40806083A54188AACA6655DE
:10526000EF303079EF40805F33658502AAC866551C
:10527000EF40C05E83A54188AAC65655EF307077CF
:10528000EF40C05D33658502AAC45655EF40005D0E
:10529000DA57AAC256DCBEC0CA5729666A883EDE03
:1052A000BA57E686130606553EDAAA570A47AA48B1
:1052B0003ED89A57FA556A553ED28A574EC84AC2C6
:1052C0003ED0FA475AD662D43ECCEA475ECE3ECABA
:1052D000DA473EC6CA473EC4BA473EC09A47EF4087
:1052E0005063AA8703A5C19309E503A58194E3034D
:1052F00005963386FD001C414206B72500209C4FD1
:105300004182938505E26FF0DF942D67930CC7AD62
:1053100071B5AD67138DC7AD61BD2D691309C9ADF9
:1053200055B5AD699389C9AD45BDAD6B938BCBAD1B
:1053300075BD2D6B130BCBADF1B5AD67938AC7ADC2
:10534000E1BD296C93054C655285EF20F0332A8925
:1053500071E183A4C194E38F048EEFE02FEB93857A
:10536000CB3713854AC7EFE04FEF89471CC140C1D7
:1053700093050B4313854AC7EFE02FEE93054C6569
:10538000EFE06FEBA9659385053813854AC7EFE019
:10539000CFEC85471CC15CA12685EFB0EFE2A96583
:1053A0009385853C2A8413854AC7EFE00FEB994724
:1053B0001CC183A781928D461306400A8507B3E777
:1053C000D702B7260020938586988D481303800264
:1053D000094E114823A4F192B387C7021387869818
:1053E0003E972320070A58C10326070A63CFC80047
:1053F000B306660233552441058905062320C70AF2
:10540000BE96AE9623A0C601C8C20509E31E09FDDB
:105410006FF0DF9AA965938505665285EF20D02647
:10542000631105141306801ACE85A809EFA09FD238
:1054300003A9C194E3000982A96A93858A66A80931
:10544000EFE0AFE1184191476309F70029661306C1
:105450000667A96593850569B1B6A9699385C96988
:10546000A809EFE08FDF1C41054BF917E360FBFE55
:10547000296A93054A6AA809EFE02FDE1C41F91753
:10548000E366FBFC93858A66A809EFE00FDD3D46E5
:1054900093054500A801EF2050269385C969A80906
:1054A000A30B010CEFE06FDBEFB0CFC093054A6AAE
:1054B000AA89A809EFE06FDAEFB0CFBFA9652A8A01
:1054C0009385C56AA801EFA0BFC735E103298933D9
:1054D0008D4763E12709370B00809307FBFF930596
:1054E00000004E8583AAC194337AFA00EF3010474A
:1054F00063540500334A4B01930780083309F902CE
:10550000860993D919009D45B3872A011309090A11
:1055100023AE470F23A0371133852A01EFB0CFC642
:1055200029661306066CA9659385056D49A0A965D2
:105530009385456BA801EFA0BFC009CD8307810CFF
:105540002547938707FD6367F700A801EF2080399F
:105550002A89BDBF2966A9651306866D9385056FE7
:1055600091B4A9659385C56F5285EF20F01129E5A7
:1055700083A4C194638004EE1389040A9389C4331D
:10558000138A042C230809064A858145EFB0CFBF52
:105590001309890823A009009109E3152AFF296648
:1055A000A9652380042C1306467093858571228596
:1055B000EFE02FD96FF00FEAA96593850572528548
:1055C000EF20900C2DE11306801ACE85A809EFA0DC
:1055D0007FB883A4C194638F04E629699305893C4D
:1055E000A809EFE08FC71C410547F9176376F7005C
:1055F00029661306C672B1BD9305893CA809EFE080
:10560000CFC5EFB00FAA8D4763FAA700296613062E
:10561000C673A965938505756FF0DF9823ACA43236
:105620000146814569B7A9659385C5755285EF2007
:10563000B0056317051003A9C194630D09E0A965BE
:105640009385853C4E85EFE04FC1FD55EFB0AFA788
:10565000296A9305CA76AA844E85EFE0CFDF9305C9
:10566000CA7619E9A96A93854A774E85EFE0AFDEDD
:105670002A8A35C593854A774E85EFE00FBE034AE7
:105680004500A96A9385CA774E85EFE0CFDC938504
:10569000CA7719E9296B93058B784E85EFE0AFDB6C
:1056A000AA8A29C993058B784E85EFE00FBB834A00
:1056B000450063D304089304090A1309092C2388BD
:1056C0004407A3805409954563130A009145268534
:1056D00093848408EFB04FABE31399FE91B78D47E5
:1056E000E3E197FA93078008B387F402CA9703CAE5
:1056F000071141BF8D4763EE970293078008B38778
:10570000F402CA9783CA171293078008B384F4027D
:105710009545B3079900238847119384040AA38011
:1057200057133305990063130A009145EFB0CFA5D5
:10573000C5BDE3D704EE41B78D47E3D797FCCDB5A0
:10574000A965938545795285EF20007409C9A9653B
:105750009385C57A5285EF2020736316051683A4BE
:10576000C194638904CE2966A9659385C57B130618
:10577000467BA809CECDEFE00FC383A5C1892A8A55
:10578000EF30D01D634EA0102966A9659385C57CB6
:105790001306467CA809EFE00FC183A5C1892A8AB8
:1057A000EF30D01B6354A00023A444032966A965ED
:1057B0009385057E1306467DA809EFE0CFBE83A53D
:1057C000C1892A8AEF3090196354A00023A64403AC
:1057D0002966A9659385857F1306C67EA809EFE033
:1057E0008FBC83A5C1892A8AEF3050176354A0006B
:1057F00023A844032D66AD65938505811306468075
:10580000A809EFE04FBA83A5C1892A8AEF301015A5
:105810006354A00023AC44032D66AD659385458297
:105820001306C681A809EFE00FB883A5C1892A8AAB
:10583000EF30D0126354A00023A244032D66AD655F
:10584000938505831306C682A809EFE0CFB583A52B
:10585000C1892A8AEF3090106354A00023AE44011E
:105860002D69930549834E85EFE02F9F1C41054A22
:1058700093054983F917637EFA002D69930509841E
:105880004E85EFE08F9D1C41F917E36BFAD8930525
:1058900009844E85EFE06F9CEFB0AF80C8D849B364
:1058A00023A044039387440D1387442F93060000DD
:1058B00023A04701D4C394C7D4C794CB9387870848
:1058C000E316F7FED1B5AD659385C5845285EF200B
:1058D000A05B5DE583A4C19499E06FF0AFB72D663E
:1058E000AD651306C68593850586A809CECDEFE084
:1058F0004FAF2D66AD65AA8A1306468693858586C9
:10590000A809EFE00FAE2966A9651306867A93858C
:10591000856A2A8AA809EFE0CFAC2D66AD6593852C
:105920004587AA891306C686A809EFE08FAB2A89A6
:10593000930500005685EF3070026344050023AEE6
:105940005403930500005285EF3050016344050075
:1059500023A04405930500004E85EF3030006344DA
:10596000050023A23405930500004A85EF30007F2F
:105970006344050023A424052685EFB08F824DB132
:10598000AD659385C5875285EF200050AA8A631CB8
:1059900005221306801ACE85A809EFA0AFFB03A944
:1059A000C194631409006FF0EFAAA9699385893C3B
:1059B000A809EFE08F8A1C410547F917637FF710AC
:1059C000130AC9008149114B03250900CE851C41EA
:1059D000DC53829709E903250900CE851C419C53BD
:1059E00082972320AA008509110AE39F69FD930B82
:1059F0000000FD59EFB0EFD5372B00202D66056A6A
:105A0000A2861306068993050A8013050BE2EF4070
:105A10004070FD572A8413090BE26394F91693052D
:105A20000A802D66898D1306868B4A95EF40606E3D
:105A300083A9C19431044E85EFA01FF99377150017
:105A40002A8AA1C785652D6693850580D6861306AB
:105A5000868C818D33058900EF40A06B8565850AB2
:105A600091472A94938505806389FA0C2966818D74
:105A7000330589001306C654EF40A069B3575A4155
:105A8000858B2A94E1F383A9C19493972A00BE9948
:105A900083A9C9004E85EF30705CAADAEF30306719
:105AA000AA854E85EF30B02283A58189EF306074DE
:105AB000EF30D05A9356F54156578565B3C7A600C7
:105AC0002D6693850580958F1306068ED686818D6B
:105AD00033058900EF40E06351B79385893CA809FD
